{
  "contractName": "Event",
  "abi": [
    {
      "inputs": [
        {
          "internalType": "string",
          "name": "_eventName",
          "type": "string"
        },
        {
          "internalType": "string",
          "name": "_symbol",
          "type": "string"
        },
        {
          "internalType": "string",
          "name": "_location",
          "type": "string"
        },
        {
          "internalType": "string",
          "name": "_company",
          "type": "string"
        },
        {
          "internalType": "uint256",
          "name": "_resaleCeiling",
          "type": "uint256"
        },
        {
          "internalType": "uint256",
          "name": "_maxTicketsPerAddress",
          "type": "uint256"
        },
        {
          "internalType": "uint256",
          "name": "_commissionFee",
          "type": "uint256"
        },
        {
          "internalType": "contract MarketPlace",
          "name": "_marketPlace",
          "type": "address"
        }
      ],
      "stateMutability": "nonpayable",
      "type": "constructor"
    },
    {
      "anonymous": false,
      "inputs": [
        {
          "indexed": true,
          "internalType": "address",
          "name": "owner",
          "type": "address"
        },
        {
          "indexed": true,
          "internalType": "address",
          "name": "approved",
          "type": "address"
        },
        {
          "indexed": true,
          "internalType": "uint256",
          "name": "tokenId",
          "type": "uint256"
        }
      ],
      "name": "Approval",
      "type": "event"
    },
    {
      "anonymous": false,
      "inputs": [
        {
          "indexed": true,
          "internalType": "address",
          "name": "owner",
          "type": "address"
        },
        {
          "indexed": true,
          "internalType": "address",
          "name": "operator",
          "type": "address"
        },
        {
          "indexed": false,
          "internalType": "bool",
          "name": "approved",
          "type": "bool"
        }
      ],
      "name": "ApprovalForAll",
      "type": "event"
    },
    {
      "anonymous": false,
      "inputs": [
        {
          "indexed": true,
          "internalType": "address",
          "name": "from",
          "type": "address"
        },
        {
          "indexed": true,
          "internalType": "address",
          "name": "to",
          "type": "address"
        },
        {
          "indexed": true,
          "internalType": "uint256",
          "name": "tokenId",
          "type": "uint256"
        }
      ],
      "name": "Transfer",
      "type": "event"
    },
    {
      "anonymous": false,
      "inputs": [
        {
          "indexed": false,
          "internalType": "uint256",
          "name": "tokenId",
          "type": "uint256"
        }
      ],
      "name": "ticketBoughtDuringPostEvent",
      "type": "event"
    },
    {
      "anonymous": false,
      "inputs": [
        {
          "indexed": false,
          "internalType": "uint256",
          "name": "tokenId",
          "type": "uint256"
        }
      ],
      "name": "ticketBoughtDuringSales",
      "type": "event"
    },
    {
      "anonymous": false,
      "inputs": [
        {
          "indexed": false,
          "internalType": "uint256",
          "name": "tokenId",
          "type": "uint256"
        }
      ],
      "name": "ticketCheckedIn",
      "type": "event"
    },
    {
      "anonymous": false,
      "inputs": [
        {
          "indexed": false,
          "internalType": "uint256",
          "name": "tokenId",
          "type": "uint256"
        }
      ],
      "name": "ticketCreated",
      "type": "event"
    },
    {
      "anonymous": false,
      "inputs": [
        {
          "indexed": false,
          "internalType": "uint256",
          "name": "tokenId",
          "type": "uint256"
        }
      ],
      "name": "ticketInvalidated",
      "type": "event"
    },
    {
      "anonymous": false,
      "inputs": [
        {
          "indexed": false,
          "internalType": "uint256",
          "name": "tokenId",
          "type": "uint256"
        }
      ],
      "name": "ticketListed",
      "type": "event"
    },
    {
      "anonymous": false,
      "inputs": [
        {
          "indexed": false,
          "internalType": "uint256",
          "name": "tokenId",
          "type": "uint256"
        }
      ],
      "name": "ticketUnlisted",
      "type": "event"
    },
    {
      "anonymous": false,
      "inputs": [
        {
          "indexed": false,
          "internalType": "uint256",
          "name": "tokenId",
          "type": "uint256"
        }
      ],
      "name": "ticketValidated",
      "type": "event"
    },
    {
      "inputs": [
        {
          "internalType": "address",
          "name": "to",
          "type": "address"
        },
        {
          "internalType": "uint256",
          "name": "tokenId",
          "type": "uint256"
        }
      ],
      "name": "approve",
      "outputs": [],
      "stateMutability": "nonpayable",
      "type": "function"
    },
    {
      "inputs": [
        {
          "internalType": "address",
          "name": "owner",
          "type": "address"
        }
      ],
      "name": "balanceOf",
      "outputs": [
        {
          "internalType": "uint256",
          "name": "",
          "type": "uint256"
        }
      ],
      "stateMutability": "view",
      "type": "function"
    },
    {
      "inputs": [
        {
          "internalType": "uint256",
          "name": "tokenId",
          "type": "uint256"
        }
      ],
      "name": "getApproved",
      "outputs": [
        {
          "internalType": "address",
          "name": "",
          "type": "address"
        }
      ],
      "stateMutability": "view",
      "type": "function"
    },
    {
      "inputs": [
        {
          "internalType": "address",
          "name": "owner",
          "type": "address"
        },
        {
          "internalType": "address",
          "name": "operator",
          "type": "address"
        }
      ],
      "name": "isApprovedForAll",
      "outputs": [
        {
          "internalType": "bool",
          "name": "",
          "type": "bool"
        }
      ],
      "stateMutability": "view",
      "type": "function"
    },
    {
      "inputs": [],
      "name": "name",
      "outputs": [
        {
          "internalType": "string",
          "name": "",
          "type": "string"
        }
      ],
      "stateMutability": "view",
      "type": "function"
    },
    {
      "inputs": [
        {
          "internalType": "uint256",
          "name": "tokenId",
          "type": "uint256"
        }
      ],
      "name": "ownerOf",
      "outputs": [
        {
          "internalType": "address",
          "name": "",
          "type": "address"
        }
      ],
      "stateMutability": "view",
      "type": "function"
    },
    {
      "inputs": [
        {
          "internalType": "address",
          "name": "from",
          "type": "address"
        },
        {
          "internalType": "address",
          "name": "to",
          "type": "address"
        },
        {
          "internalType": "uint256",
          "name": "tokenId",
          "type": "uint256"
        }
      ],
      "name": "safeTransferFrom",
      "outputs": [],
      "stateMutability": "nonpayable",
      "type": "function"
    },
    {
      "inputs": [
        {
          "internalType": "address",
          "name": "from",
          "type": "address"
        },
        {
          "internalType": "address",
          "name": "to",
          "type": "address"
        },
        {
          "internalType": "uint256",
          "name": "tokenId",
          "type": "uint256"
        },
        {
          "internalType": "bytes",
          "name": "_data",
          "type": "bytes"
        }
      ],
      "name": "safeTransferFrom",
      "outputs": [],
      "stateMutability": "nonpayable",
      "type": "function"
    },
    {
      "inputs": [
        {
          "internalType": "address",
          "name": "operator",
          "type": "address"
        },
        {
          "internalType": "bool",
          "name": "approved",
          "type": "bool"
        }
      ],
      "name": "setApprovalForAll",
      "outputs": [],
      "stateMutability": "nonpayable",
      "type": "function"
    },
    {
      "inputs": [
        {
          "internalType": "bytes4",
          "name": "interfaceId",
          "type": "bytes4"
        }
      ],
      "name": "supportsInterface",
      "outputs": [
        {
          "internalType": "bool",
          "name": "",
          "type": "bool"
        }
      ],
      "stateMutability": "view",
      "type": "function"
    },
    {
      "inputs": [],
      "name": "symbol",
      "outputs": [
        {
          "internalType": "string",
          "name": "",
          "type": "string"
        }
      ],
      "stateMutability": "view",
      "type": "function"
    },
    {
      "inputs": [
        {
          "internalType": "uint256",
          "name": "tokenId",
          "type": "uint256"
        }
      ],
      "name": "tokenURI",
      "outputs": [
        {
          "internalType": "string",
          "name": "",
          "type": "string"
        }
      ],
      "stateMutability": "view",
      "type": "function"
    },
    {
      "inputs": [
        {
          "internalType": "address",
          "name": "from",
          "type": "address"
        },
        {
          "internalType": "address",
          "name": "to",
          "type": "address"
        },
        {
          "internalType": "uint256",
          "name": "tokenId",
          "type": "uint256"
        }
      ],
      "name": "transferFrom",
      "outputs": [],
      "stateMutability": "nonpayable",
      "type": "function"
    },
    {
      "inputs": [],
      "name": "addEventToMarketplace",
      "outputs": [],
      "stateMutability": "nonpayable",
      "type": "function"
    },
    {
      "inputs": [
        {
          "internalType": "string",
          "name": "_seat",
          "type": "string"
        },
        {
          "internalType": "string",
          "name": "_type",
          "type": "string"
        },
        {
          "internalType": "uint256",
          "name": "_creationPrice",
          "type": "uint256"
        },
        {
          "internalType": "uint256",
          "name": "_seatID",
          "type": "uint256"
        }
      ],
      "name": "createTicket",
      "outputs": [
        {
          "internalType": "uint256",
          "name": "",
          "type": "uint256"
        }
      ],
      "stateMutability": "nonpayable",
      "type": "function"
    },
    {
      "inputs": [
        {
          "internalType": "uint256",
          "name": "tokenId",
          "type": "uint256"
        }
      ],
      "name": "buyTicketsDuringPostEvent",
      "outputs": [],
      "stateMutability": "payable",
      "type": "function"
    },
    {
      "inputs": [
        {
          "internalType": "string",
          "name": "_seat",
          "type": "string"
        },
        {
          "internalType": "string",
          "name": "_type",
          "type": "string"
        },
        {
          "internalType": "uint256",
          "name": "_creationPrice",
          "type": "uint256"
        },
        {
          "internalType": "uint256",
          "name": "_numOfTickets",
          "type": "uint256"
        }
      ],
      "name": "createTicketInBulk",
      "outputs": [],
      "stateMutability": "nonpayable",
      "type": "function"
    },
    {
      "inputs": [
        {
          "internalType": "uint256",
          "name": "tokenId",
          "type": "uint256"
        }
      ],
      "name": "buyTicketsDuringSales",
      "outputs": [],
      "stateMutability": "payable",
      "type": "function"
    },
    {
      "inputs": [
        {
          "internalType": "uint256",
          "name": "tokenId",
          "type": "uint256"
        },
        {
          "internalType": "uint256",
          "name": "_newListingPrice",
          "type": "uint256"
        }
      ],
      "name": "listTicket",
      "outputs": [],
      "stateMutability": "nonpayable",
      "type": "function"
    },
    {
      "inputs": [
        {
          "internalType": "uint256",
          "name": "tokenId",
          "type": "uint256"
        }
      ],
      "name": "unlistTicket",
      "outputs": [],
      "stateMutability": "nonpayable",
      "type": "function"
    },
    {
      "inputs": [
        {
          "internalType": "uint256",
          "name": "tokenId",
          "type": "uint256"
        }
      ],
      "name": "checkInTicket",
      "outputs": [],
      "stateMutability": "nonpayable",
      "type": "function"
    },
    {
      "inputs": [
        {
          "internalType": "uint256",
          "name": "tokenId",
          "type": "uint256"
        }
      ],
      "name": "invalidateTicket",
      "outputs": [],
      "stateMutability": "nonpayable",
      "type": "function"
    },
    {
      "inputs": [
        {
          "internalType": "uint256",
          "name": "tokenId",
          "type": "uint256"
        }
      ],
      "name": "validateTicket",
      "outputs": [],
      "stateMutability": "nonpayable",
      "type": "function"
    },
    {
      "inputs": [],
      "name": "changeStateToSales",
      "outputs": [],
      "stateMutability": "nonpayable",
      "type": "function"
    },
    {
      "inputs": [],
      "name": "changeStateToDuring",
      "outputs": [],
      "stateMutability": "nonpayable",
      "type": "function"
    },
    {
      "inputs": [],
      "name": "changeStateToPostEvent",
      "outputs": [],
      "stateMutability": "nonpayable",
      "type": "function"
    },
    {
      "inputs": [],
      "name": "getEventOrganizer",
      "outputs": [
        {
          "internalType": "address",
          "name": "",
          "type": "address"
        }
      ],
      "stateMutability": "view",
      "type": "function"
    },
    {
      "inputs": [
        {
          "internalType": "string",
          "name": "_type",
          "type": "string"
        }
      ],
      "name": "getTicketsListForEventType",
      "outputs": [
        {
          "internalType": "uint256[]",
          "name": "",
          "type": "uint256[]"
        }
      ],
      "stateMutability": "view",
      "type": "function"
    },
    {
      "inputs": [
        {
          "internalType": "uint256",
          "name": "id",
          "type": "uint256"
        }
      ],
      "name": "getTicket",
      "outputs": [
        {
          "components": [
            {
              "internalType": "address",
              "name": "_ticketOwner",
              "type": "address"
            },
            {
              "internalType": "string",
              "name": "_seat",
              "type": "string"
            },
            {
              "internalType": "uint256",
              "name": "_seatID",
              "type": "uint256"
            },
            {
              "internalType": "string",
              "name": "_type",
              "type": "string"
            },
            {
              "internalType": "uint256",
              "name": "creationPrice",
              "type": "uint256"
            },
            {
              "internalType": "uint256",
              "name": "listingPrice",
              "type": "uint256"
            },
            {
              "internalType": "bool",
              "name": "isListed",
              "type": "bool"
            },
            {
              "internalType": "bool",
              "name": "isCheckedIn",
              "type": "bool"
            },
            {
              "internalType": "bool",
              "name": "isValid",
              "type": "bool"
            }
          ],
          "internalType": "struct Event.Ticket",
          "name": "",
          "type": "tuple"
        }
      ],
      "stateMutability": "view",
      "type": "function"
    },
    {
      "inputs": [],
      "name": "getCurrentTicketCount",
      "outputs": [
        {
          "internalType": "uint256",
          "name": "",
          "type": "uint256"
        }
      ],
      "stateMutability": "view",
      "type": "function"
    },
    {
      "inputs": [],
      "name": "getCurrentEventStage",
      "outputs": [
        {
          "internalType": "enum Event.eventStage",
          "name": "",
          "type": "uint8"
        }
      ],
      "stateMutability": "view",
      "type": "function"
    },
    {
      "inputs": [],
      "name": "getEventContractAddress",
      "outputs": [
        {
          "internalType": "address",
          "name": "",
          "type": "address"
        }
      ],
      "stateMutability": "view",
      "type": "function"
    }
  ],
  "bytecode": "0x60806040526000600a553480156200001657600080fd5b5060405162005ed138038062005ed183398181016040528101906200003c9190620002f4565b878781600090805190602001906200005692919062000198565b5080600190805190602001906200006f92919062000198565b50505087600690805190602001906200008a92919062000198565b5033600760006101000a81548173ffffffffffffffffffffffffffffffffffffffff021916908373ffffffffffffffffffffffffffffffffffffffff1602179055508560089080519060200190620000e492919062000198565b508460099080519060200190620000fd92919062000198565b506000600a8190555083600b8190555082600c8190555081600d819055506000601360006101000a81548160ff021916908360038111156200014457620001436200058c565b5b021790555080600f60006101000a81548173ffffffffffffffffffffffffffffffffffffffff021916908373ffffffffffffffffffffffffffffffffffffffff160217905550505050505050505062000672565b828054620001a69062000520565b90600052602060002090601f016020900481019282620001ca576000855562000216565b82601f10620001e557805160ff191683800117855562000216565b8280016001018555821562000216579182015b8281111562000215578251825591602001919060010190620001f8565b5b50905062000225919062000229565b5090565b5b80821115620002445760008160009055506001016200022a565b5090565b60006200025f620002598462000462565b62000439565b9050828152602081018484840111156200027e576200027d6200061e565b5b6200028b848285620004ea565b509392505050565b600081519050620002a4816200063e565b92915050565b600082601f830112620002c257620002c162000619565b5b8151620002d484826020860162000248565b91505092915050565b600081519050620002ee8162000658565b92915050565b600080600080600080600080610100898b03121562000318576200031762000628565b5b600089015167ffffffffffffffff81111562000339576200033862000623565b5b620003478b828c01620002aa565b985050602089015167ffffffffffffffff8111156200036b576200036a62000623565b5b620003798b828c01620002aa565b975050604089015167ffffffffffffffff8111156200039d576200039c62000623565b5b620003ab8b828c01620002aa565b965050606089015167ffffffffffffffff811115620003cf57620003ce62000623565b5b620003dd8b828c01620002aa565b9550506080620003f08b828c01620002dd565b94505060a0620004038b828c01620002dd565b93505060c0620004168b828c01620002dd565b92505060e0620004298b828c0162000293565b9150509295985092959890939650565b60006200044562000458565b905062000453828262000556565b919050565b6000604051905090565b600067ffffffffffffffff82111562000480576200047f620005ea565b5b6200048b826200062d565b9050602081019050919050565b6000620004a582620004c0565b9050919050565b6000620004b98262000498565b9050919050565b600073ffffffffffffffffffffffffffffffffffffffff82169050919050565b6000819050919050565b60005b838110156200050a578082015181840152602081019050620004ed565b838111156200051a576000848401525b50505050565b600060028204905060018216806200053957607f821691505b6020821081141562000550576200054f620005bb565b5b50919050565b62000561826200062d565b810181811067ffffffffffffffff82111715620005835762000582620005ea565b5b80604052505050565b7f4e487b7100000000000000000000000000000000000000000000000000000000600052602160045260246000fd5b7f4e487b7100000000000000000000000000000000000000000000000000000000600052602260045260246000fd5b7f4e487b7100000000000000000000000000000000000000000000000000000000600052604160045260246000fd5b600080fd5b600080fd5b600080fd5b600080fd5b6000601f19601f8301169050919050565b6200064981620004ac565b81146200065557600080fd5b50565b6200066381620004e0565b81146200066f57600080fd5b50565b61584f80620006826000396000f3fe6080604052600436106101e35760003560e01c806383ece4c611610102578063aade5b7811610095578063d1fd229c11610064578063d1fd229c146106bc578063e0016aee146106e7578063e985e9c514610712578063ee8d83f71461074f576101e3565b8063aade5b7814610604578063b88d4fde1461062d578063c7ddab3614610656578063c87b56dd1461067f576101e3565b80639e757aef116100d15780639e757aef14610584578063a22cb465146105ad578063a636a30a146105d6578063a8358e29146105ed576101e3565b806383ece4c6146104dc578063869b556e1461050557806393e9541d1461051c57806395d89b4114610559576101e3565b8063305a905a1161017a57806342842e0e1161014957806342842e0e146103fc5780636352211e1461042557806370a08231146104625780637dc379fa1461049f576101e3565b8063305a905a1461034f5780633dc0e1c9146103785780633f34acb5146103a35780634140fb22146103e0576101e3565b8063081812fc116101b6578063081812fc14610295578063095ea7b3146102d257806323b872dd146102fb57806328ce308314610324576101e3565b806301ffc9a7146101e85780630244032e14610225578063054ae7df1461024157806306fdde031461026a575b600080fd5b3480156101f457600080fd5b5061020f600480360381019061020a9190613e1b565b610766565b60405161021c9190614749565b60405180910390f35b61023f600480360381019061023a9190613f5d565b610848565b005b34801561024d57600080fd5b5061026860048036038101906102639190613f5d565b610bf4565b005b34801561027657600080fd5b5061027f610da1565b60405161028c919061477f565b60405180910390f35b3480156102a157600080fd5b506102bc60048036038101906102b79190613f5d565b610e33565b6040516102c991906146c0565b60405180910390f35b3480156102de57600080fd5b506102f960048036038101906102f49190613ddb565b610eb8565b005b34801561030757600080fd5b50610322600480360381019061031d9190613cc5565b610fd0565b005b34801561033057600080fd5b50610339611030565b6040516103469190614b43565b60405180910390f35b34801561035b57600080fd5b5061037660048036038101906103719190613f8a565b611077565b005b34801561038457600080fd5b5061038d61120c565b60405161039a9190614764565b60405180910390f35b3480156103af57600080fd5b506103ca60048036038101906103c59190613e75565b611223565b6040516103d79190614727565b60405180910390f35b6103fa60048036038101906103f59190613f5d565b611299565b005b34801561040857600080fd5b50610423600480360381019061041e9190613cc5565b6117de565b005b34801561043157600080fd5b5061044c60048036038101906104479190613f5d565b6117fe565b60405161045991906146c0565b60405180910390f35b34801561046e57600080fd5b5061048960048036038101906104849190613c58565b6118b0565b6040516104969190614b43565b60405180910390f35b3480156104ab57600080fd5b506104c660048036038101906104c19190613f5d565b611968565b6040516104d39190614b21565b60405180910390f35b3480156104e857600080fd5b5061050360048036038101906104fe9190613f5d565b611bc9565b005b34801561051157600080fd5b5061051a611e4c565b005b34801561052857600080fd5b50610543600480360381019061053e9190613ebe565b611f81565b6040516105509190614b43565b60405180910390f35b34801561056557600080fd5b5061056e6122d6565b60405161057b919061477f565b60405180910390f35b34801561059057600080fd5b506105ab60048036038101906105a69190613ebe565b612368565b005b3480156105b957600080fd5b506105d460048036038101906105cf9190613d9b565b6124b6565b005b3480156105e257600080fd5b506105eb6124cc565b005b3480156105f957600080fd5b5061060261255b565b005b34801561061057600080fd5b5061062b60048036038101906106269190613f5d565b612690565b005b34801561063957600080fd5b50610654600480360381019061064f9190613d18565b61291f565b005b34801561066257600080fd5b5061067d60048036038101906106789190613f5d565b612981565b005b34801561068b57600080fd5b506106a660048036038101906106a19190613f5d565b612b2e565b6040516106b3919061477f565b60405180910390f35b3480156106c857600080fd5b506106d1612bd5565b6040516106de91906146c0565b60405180910390f35b3480156106f357600080fd5b506106fc612bff565b60405161070991906146c0565b60405180910390f35b34801561071e57600080fd5b5061073960048036038101906107349190613c85565b612c07565b6040516107469190614749565b60405180910390f35b34801561075b57600080fd5b50610764612c9b565b005b60007f80ac58cd000000000000000000000000000000000000000000000000000000007bffffffffffffffffffffffffffffffffffffffffffffffffffffffff1916827bffffffffffffffffffffffffffffffffffffffffffffffffffffffff1916148061083157507f5b5e139f000000000000000000000000000000000000000000000000000000007bffffffffffffffffffffffffffffffffffffffffffffffffffffffff1916827bffffffffffffffffffffffffffffffffffffffffffffffffffffffff1916145b80610841575061084082612dd0565b5b9050919050565b8061085281612e3a565b610891576040517f08c379a000000000000000000000000000000000000000000000000000000000815260040161088890614b01565b60405180910390fd5b6003601360009054906101000a900460ff1660038111156108b5576108b4614f77565b5b8160038111156108c8576108c7614f77565b5b14610908576040517f08c379a00000000000000000000000000000000000000000000000000000000081526004016108ff906147c1565b60405180910390fd5b600060116000858152602001908152602001600020604051806101200160405290816000820160009054906101000a900473ffffffffffffffffffffffffffffffffffffffff1673ffffffffffffffffffffffffffffffffffffffff1673ffffffffffffffffffffffffffffffffffffffff16815260200160018201805461098f90614e32565b80601f01602080910402602001604051908101604052809291908181526020018280546109bb90614e32565b8015610a085780601f106109dd57610100808354040283529160200191610a08565b820191906000526020600020905b8154815290600101906020018083116109eb57829003601f168201915b5050505050815260200160028201548152602001600382018054610a2b90614e32565b80601f0160208091040260200160405190810160405280929190818152602001828054610a5790614e32565b8015610aa45780601f10610a7957610100808354040283529160200191610aa4565b820191906000526020600020905b815481529060010190602001808311610a8757829003601f168201915b5050505050815260200160048201548152602001600582015481526020016006820160009054906101000a900460ff161515151581526020016006820160019054906101000a900460ff161515151581526020016006820160029054906101000a900460ff1615151515815250509050600115158160c00151151514610b5f576040517f08c379a0000000000000000000000000000000000000000000000000000000008152600401610b56906149e1565b60405180910390fd5b610b6e816000015133866117de565b33816000019073ffffffffffffffffffffffffffffffffffffffff16908173ffffffffffffffffffffffffffffffffffffffff168152505060008160c00190151590811515815250507f327ab2f05b86d514a18f0e75b46e49ae77bb17fb9ff8fcdc9fe586fbedb967ab84604051610be69190614b43565b60405180910390a150505050565b600760009054906101000a900473ffffffffffffffffffffffffffffffffffffffff1673ffffffffffffffffffffffffffffffffffffffff163373ffffffffffffffffffffffffffffffffffffffff1614610c84576040517f08c379a0000000000000000000000000000000000000000000000000000000008152600401610c7b90614801565b60405180910390fd5b80610c8e81612e3a565b610ccd576040517f08c379a0000000000000000000000000000000000000000000000000000000008152600401610cc490614b01565b60405180910390fd5b600015156011600084815260200190815260200160002060060160029054906101000a900460ff16151514610d37576040517f08c379a0000000000000000000000000000000000000000000000000000000008152600401610d2e90614901565b60405180910390fd5b60016011600084815260200190815260200160002060060160026101000a81548160ff0219169083151502179055507f7b2b39d4f224af697c345bb975acb5347691ad52a7e6d1782f6d4bc7cf5a5cee82604051610d959190614b43565b60405180910390a15050565b606060008054610db090614e32565b80601f0160208091040260200160405190810160405280929190818152602001828054610ddc90614e32565b8015610e295780601f10610dfe57610100808354040283529160200191610e29565b820191906000526020600020905b815481529060010190602001808311610e0c57829003601f168201915b5050505050905090565b6000610e3e82612e3a565b610e7d576040517f08c379a0000000000000000000000000000000000000000000000000000000008152600401610e7490614a01565b60405180910390fd5b6004600083815260200190815260200160002060009054906101000a900473ffffffffffffffffffffffffffffffffffffffff169050919050565b6000610ec3826117fe565b90508073ffffffffffffffffffffffffffffffffffffffff168373ffffffffffffffffffffffffffffffffffffffff161415610f34576040517f08c379a0000000000000000000000000000000000000000000000000000000008152600401610f2b90614a81565b60405180910390fd5b8073ffffffffffffffffffffffffffffffffffffffff16610f53612ea6565b73ffffffffffffffffffffffffffffffffffffffff161480610f825750610f8181610f7c612ea6565b612c07565b5b610fc1576040517f08c379a0000000000000000000000000000000000000000000000000000000008152600401610fb8906148e1565b60405180910390fd5b610fcb8383612eae565b505050565b610fe1610fdb612ea6565b82612f67565b611020576040517f08c379a000000000000000000000000000000000000000000000000000000000815260040161101790614aa1565b60405180910390fd5b61102b838383613045565b505050565b6000601260003373ffffffffffffffffffffffffffffffffffffffff1673ffffffffffffffffffffffffffffffffffffffff16815260200190815260200160002054905090565b8161108181612e3a565b6110c0576040517f08c379a00000000000000000000000000000000000000000000000000000000081526004016110b790614b01565b60405180910390fd5b600015156011600085815260200190815260200160002060060160009054906101000a900460ff1615151461112a576040517f08c379a000000000000000000000000000000000000000000000000000000000815260040161112190614a61565b60405180910390fd5b600d54600b5461113a9190614c72565b821115600b54604051602001611150919061469a565b604051602081830303815290604052906111a0576040517f08c379a0000000000000000000000000000000000000000000000000000000008152600401611197919061477f565b60405180910390fd5b5060016011600085815260200190815260200160002060060160006101000a81548160ff0219169083151502179055507fa896dd68acb4fb999e2c3f9e897aeaf26e39f2606c9919bbbcf3f8f18a295710836040516111ff9190614b43565b60405180910390a1505050565b6000601360009054906101000a900460ff16905090565b6060601482604051611235919061465f565b908152602001604051809103902080548060200260200160405190810160405280929190818152602001828054801561128d57602002820191906000526020600020905b815481526020019060010190808311611279575b50505050509050919050565b600f60009054906101000a900473ffffffffffffffffffffffffffffffffffffffff1673ffffffffffffffffffffffffffffffffffffffff163373ffffffffffffffffffffffffffffffffffffffff1614611329576040517f08c379a000000000000000000000000000000000000000000000000000000000815260040161132090614ae1565b60405180910390fd5b6001601360009054906101000a900460ff16600381111561134d5761134c614f77565b5b8160038111156113605761135f614f77565b5b146113a0576040517f08c379a0000000000000000000000000000000000000000000000000000000008152600401611397906147c1565b60405180910390fd5b816113aa81612e3a565b6113e9576040517f08c379a00000000000000000000000000000000000000000000000000000000081526004016113e090614b01565b60405180910390fd5b33600c54601260008373ffffffffffffffffffffffffffffffffffffffff1673ffffffffffffffffffffffffffffffffffffffff168152602001908152602001600020541061146d576040517f08c379a0000000000000000000000000000000000000000000000000000000008152600401611464906147a1565b60405180910390fd5b600060116000868152602001908152602001600020600501549050803410156114cb576040517f08c379a00000000000000000000000000000000000000000000000000000000081526004016114c2906149a1565b60405180910390fd5b600115156011600087815260200190815260200160002060060160009054906101000a900460ff16151514611535576040517f08c379a000000000000000000000000000000000000000000000000000000000815260040161152c90614ac1565b60405180910390fd5b6000349050600073ffffffffffffffffffffffffffffffffffffffff166011600088815260200190815260200160002060000160009054906101000a900473ffffffffffffffffffffffffffffffffffffffff1673ffffffffffffffffffffffffffffffffffffffff16146116c657601260006011600089815260200190815260200160002060000160009054906101000a900473ffffffffffffffffffffffffffffffffffffffff1673ffffffffffffffffffffffffffffffffffffffff1673ffffffffffffffffffffffffffffffffffffffff168152602001908152602001600020600081548092919061162a90614e08565b919050555060006011600088815260200190815260200160002060000160009054906101000a900473ffffffffffffffffffffffffffffffffffffffff1690506000600d548361167a9190614cf9565b90508173ffffffffffffffffffffffffffffffffffffffff166108fc829081150290604051600060405180830381858888f193505050501580156116c2573d6000803e3d6000fd5b5050505b601260003273ffffffffffffffffffffffffffffffffffffffff1673ffffffffffffffffffffffffffffffffffffffff168152602001908152602001600020600081548092919061171690614e95565b9190505550326011600088815260200190815260200160002060000160006101000a81548173ffffffffffffffffffffffffffffffffffffffff021916908373ffffffffffffffffffffffffffffffffffffffff16021790555060006011600088815260200190815260200160002060060160006101000a81548160ff0219169083151502179055507fbfe8f16ca15d78557d0124ec93edf07e20e3ae8fac47cdd04f769e668e8008c9866040516117ce9190614b43565b60405180910390a1505050505050565b6117f98383836040518060200160405280600081525061291f565b505050565b6000806002600084815260200190815260200160002060009054906101000a900473ffffffffffffffffffffffffffffffffffffffff169050600073ffffffffffffffffffffffffffffffffffffffff168173ffffffffffffffffffffffffffffffffffffffff1614156118a7576040517f08c379a000000000000000000000000000000000000000000000000000000000815260040161189e90614941565b60405180910390fd5b80915050919050565b60008073ffffffffffffffffffffffffffffffffffffffff168273ffffffffffffffffffffffffffffffffffffffff161415611921576040517f08c379a000000000000000000000000000000000000000000000000000000000815260040161191890614921565b60405180910390fd5b600360008373ffffffffffffffffffffffffffffffffffffffff1673ffffffffffffffffffffffffffffffffffffffff168152602001908152602001600020549050919050565b611970613a04565b8161197a81612e3a565b6119b9576040517f08c379a00000000000000000000000000000000000000000000000000000000081526004016119b090614b01565b60405180910390fd5b60116000848152602001908152602001600020604051806101200160405290816000820160009054906101000a900473ffffffffffffffffffffffffffffffffffffffff1673ffffffffffffffffffffffffffffffffffffffff1673ffffffffffffffffffffffffffffffffffffffff168152602001600182018054611a3e90614e32565b80601f0160208091040260200160405190810160405280929190818152602001828054611a6a90614e32565b8015611ab75780601f10611a8c57610100808354040283529160200191611ab7565b820191906000526020600020905b815481529060010190602001808311611a9a57829003601f168201915b5050505050815260200160028201548152602001600382018054611ada90614e32565b80601f0160208091040260200160405190810160405280929190818152602001828054611b0690614e32565b8015611b535780601f10611b2857610100808354040283529160200191611b53565b820191906000526020600020905b815481529060010190602001808311611b3657829003601f168201915b5050505050815260200160048201548152602001600582015481526020016006820160009054906101000a900460ff161515151581526020016006820160019054906101000a900460ff161515151581526020016006820160029054906101000a900460ff161515151581525050915050919050565b80611bd381612e3a565b611c12576040517f08c379a0000000000000000000000000000000000000000000000000000000008152600401611c0990614b01565b60405180910390fd5b81611c1c81612e3a565b611c5b576040517f08c379a0000000000000000000000000000000000000000000000000000000008152600401611c5290614b01565b60405180910390fd5b3373ffffffffffffffffffffffffffffffffffffffff166011600083815260200190815260200160002060000160009054906101000a900473ffffffffffffffffffffffffffffffffffffffff1673ffffffffffffffffffffffffffffffffffffffff1614611cff576040517f08c379a0000000000000000000000000000000000000000000000000000000008152600401611cf690614ae1565b60405180910390fd5b6001601360009054906101000a900460ff166003811115611d2357611d22614f77565b5b816003811115611d3657611d35614f77565b5b14611d76576040517f08c379a0000000000000000000000000000000000000000000000000000000008152600401611d6d906147c1565b60405180910390fd5b600115156011600086815260200190815260200160002060060160009054906101000a900460ff16151514611de0576040517f08c379a0000000000000000000000000000000000000000000000000000000008152600401611dd7906148a1565b60405180910390fd5b60006011600086815260200190815260200160002060060160006101000a81548160ff0219169083151502179055507f510517eedc0f38cbd6c973c1853725b8219949b205d6769efdb072c94f8a8db184604051611e3e9190614b43565b60405180910390a150505050565b600760009054906101000a900473ffffffffffffffffffffffffffffffffffffffff1673ffffffffffffffffffffffffffffffffffffffff163373ffffffffffffffffffffffffffffffffffffffff1614611edc576040517f08c379a0000000000000000000000000000000000000000000000000000000008152600401611ed390614801565b60405180910390fd5b6000601360009054906101000a900460ff166003811115611f0057611eff614f77565b5b816003811115611f1357611f12614f77565b5b14611f53576040517f08c379a0000000000000000000000000000000000000000000000000000000008152600401611f4a906147c1565b60405180910390fd5b6001601360006101000a81548160ff02191690836003811115611f7957611f78614f77565b5b021790555050565b6000600760009054906101000a900473ffffffffffffffffffffffffffffffffffffffff1673ffffffffffffffffffffffffffffffffffffffff163373ffffffffffffffffffffffffffffffffffffffff1614612013576040517f08c379a000000000000000000000000000000000000000000000000000000000815260040161200a90614801565b60405180910390fd5b6000601360009054906101000a900460ff16600381111561203757612036614f77565b5b81600381111561204a57612049614f77565b5b1461208a576040517f08c379a0000000000000000000000000000000000000000000000000000000008152600401612081906147c1565b60405180910390fd5b6000604051806101200160405280600073ffffffffffffffffffffffffffffffffffffffff1681526020018881526020018581526020018781526020018681526020018681526020016000151581526020016000151581526020016001151581525090506000600a600081548092919061210390614e95565b919050559050612135600f60009054906101000a900473ffffffffffffffffffffffffffffffffffffffff16826132ac565b816011600083815260200190815260200160002060008201518160000160006101000a81548173ffffffffffffffffffffffffffffffffffffffff021916908373ffffffffffffffffffffffffffffffffffffffff16021790555060208201518160010190805190602001906121ac929190613a6c565b506040820151816002015560608201518160030190805190602001906121d3929190613a6c565b506080820151816004015560a0820151816005015560c08201518160060160006101000a81548160ff02191690831515021790555060e08201518160060160016101000a81548160ff0219169083151502179055506101008201518160060160026101000a81548160ff02191690831515021790555090505060148760405161225c919061465f565b90815260200160405180910390208190806001815401808255809150506001900390600052602060002001600090919091909150557fdb0768e60aff03a7bcaff4bb349275ba861e576848c43c99418047adce10e8e5816040516122c09190614b43565b60405180910390a1809350505050949350505050565b6060600180546122e590614e32565b80601f016020809104026020016040519081016040528092919081815260200182805461231190614e32565b801561235e5780601f106123335761010080835404028352916020019161235e565b820191906000526020600020905b81548152906001019060200180831161234157829003601f168201915b5050505050905090565b600760009054906101000a900473ffffffffffffffffffffffffffffffffffffffff1673ffffffffffffffffffffffffffffffffffffffff163373ffffffffffffffffffffffffffffffffffffffff16146123f8576040517f08c379a00000000000000000000000000000000000000000000000000000000081526004016123ef90614801565b60405180910390fd5b6000601360009054906101000a900460ff16600381111561241c5761241b614f77565b5b81600381111561242f5761242e614f77565b5b1461246f576040517f08c379a0000000000000000000000000000000000000000000000000000000008152600401612466906147c1565b60405180910390fd5b60005b828110156124ae576000819050600061248d88888489611f81565b90506124998187611077565b505080806124a690614e95565b915050612472565b505050505050565b6124c86124c1612ea6565b83836132ca565b5050565b600f60009054906101000a900473ffffffffffffffffffffffffffffffffffffffff1673ffffffffffffffffffffffffffffffffffffffff1663c7ae7451306040518263ffffffff1660e01b815260040161252791906146c0565b600060405180830381600087803b15801561254157600080fd5b505af1158015612555573d6000803e3d6000fd5b50505050565b600760009054906101000a900473ffffffffffffffffffffffffffffffffffffffff1673ffffffffffffffffffffffffffffffffffffffff163373ffffffffffffffffffffffffffffffffffffffff16146125eb576040517f08c379a00000000000000000000000000000000000000000000000000000000081526004016125e290614801565b60405180910390fd5b6001601360009054906101000a900460ff16600381111561260f5761260e614f77565b5b81600381111561262257612621614f77565b5b14612662576040517f08c379a0000000000000000000000000000000000000000000000000000000008152600401612659906147c1565b60405180910390fd5b6002601360006101000a81548160ff0219169083600381111561268857612687614f77565b5b021790555050565b600760009054906101000a900473ffffffffffffffffffffffffffffffffffffffff1673ffffffffffffffffffffffffffffffffffffffff163373ffffffffffffffffffffffffffffffffffffffff1614612720576040517f08c379a000000000000000000000000000000000000000000000000000000000815260040161271790614801565b60405180910390fd5b8061272a81612e3a565b612769576040517f08c379a000000000000000000000000000000000000000000000000000000000815260040161276090614b01565b60405180910390fd5b6001601360009054906101000a900460ff16600381111561278d5761278c614f77565b5b8160038111156127a05761279f614f77565b5b146127e0576040517f08c379a00000000000000000000000000000000000000000000000000000000081526004016127d7906147c1565b60405180910390fd5b600115156011600085815260200190815260200160002060060160029054906101000a900460ff1615151461284a576040517f08c379a000000000000000000000000000000000000000000000000000000000815260040161284190614961565b60405180910390fd5b600015156011600085815260200190815260200160002060060160019054906101000a900460ff161515146128b4576040517f08c379a00000000000000000000000000000000000000000000000000000000081526004016128ab90614981565b60405180910390fd5b60016011600085815260200190815260200160002060060160016101000a81548160ff0219169083151502179055507f92e8347ed886b5648123f23a12ac29a793e202f1f3541e8daa528d98d281bae7836040516129129190614b43565b60405180910390a1505050565b61293061292a612ea6565b83612f67565b61296f576040517f08c379a000000000000000000000000000000000000000000000000000000000815260040161296690614aa1565b60405180910390fd5b61297b84848484613437565b50505050565b600760009054906101000a900473ffffffffffffffffffffffffffffffffffffffff1673ffffffffffffffffffffffffffffffffffffffff163373ffffffffffffffffffffffffffffffffffffffff1614612a11576040517f08c379a0000000000000000000000000000000000000000000000000000000008152600401612a0890614801565b60405180910390fd5b80612a1b81612e3a565b612a5a576040517f08c379a0000000000000000000000000000000000000000000000000000000008152600401612a5190614b01565b60405180910390fd5b600115156011600084815260200190815260200160002060060160029054906101000a900460ff16151514612ac4576040517f08c379a0000000000000000000000000000000000000000000000000000000008152600401612abb90614a21565b60405180910390fd5b60006011600084815260200190815260200160002060060160026101000a81548160ff0219169083151502179055507f32053cb7b3e5de5d14d71e2296b201d6f61d96c218f46a1bb6c3cb7e5108247882604051612b229190614b43565b60405180910390a15050565b6060612b3982612e3a565b612b78576040517f08c379a0000000000000000000000000000000000000000000000000000000008152600401612b6f90614a41565b60405180910390fd5b6000612b82613493565b90506000815111612ba25760405180602001604052806000815250612bcd565b80612bac846134aa565b604051602001612bbd929190614676565b6040516020818303038152906040525b915050919050565b6000600760009054906101000a900473ffffffffffffffffffffffffffffffffffffffff16905090565b600030905090565b6000600560008473ffffffffffffffffffffffffffffffffffffffff1673ffffffffffffffffffffffffffffffffffffffff16815260200190815260200160002060008373ffffffffffffffffffffffffffffffffffffffff1673ffffffffffffffffffffffffffffffffffffffff16815260200190815260200160002060009054906101000a900460ff16905092915050565b600760009054906101000a900473ffffffffffffffffffffffffffffffffffffffff1673ffffffffffffffffffffffffffffffffffffffff163373ffffffffffffffffffffffffffffffffffffffff1614612d2b576040517f08c379a0000000000000000000000000000000000000000000000000000000008152600401612d2290614801565b60405180910390fd5b6002601360009054906101000a900460ff166003811115612d4f57612d4e614f77565b5b816003811115612d6257612d61614f77565b5b14612da2576040517f08c379a0000000000000000000000000000000000000000000000000000000008152600401612d99906147c1565b60405180910390fd5b6003601360006101000a81548160ff02191690836003811115612dc857612dc7614f77565b5b021790555050565b60007f01ffc9a7000000000000000000000000000000000000000000000000000000007bffffffffffffffffffffffffffffffffffffffffffffffffffffffff1916827bffffffffffffffffffffffffffffffffffffffffffffffffffffffff1916149050919050565b60008073ffffffffffffffffffffffffffffffffffffffff166002600084815260200190815260200160002060009054906101000a900473ffffffffffffffffffffffffffffffffffffffff1673ffffffffffffffffffffffffffffffffffffffff1614159050919050565b600033905090565b816004600083815260200190815260200160002060006101000a81548173ffffffffffffffffffffffffffffffffffffffff021916908373ffffffffffffffffffffffffffffffffffffffff160217905550808273ffffffffffffffffffffffffffffffffffffffff16612f21836117fe565b73ffffffffffffffffffffffffffffffffffffffff167f8c5be1e5ebec7d5bd14f71427d1e84f3dd0314c0f7b2291e5b200ac8c7c3b92560405160405180910390a45050565b6000612f7282612e3a565b612fb1576040517f08c379a0000000000000000000000000000000000000000000000000000000008152600401612fa8906148c1565b60405180910390fd5b6000612fbc836117fe565b90508073ffffffffffffffffffffffffffffffffffffffff168473ffffffffffffffffffffffffffffffffffffffff16148061302b57508373ffffffffffffffffffffffffffffffffffffffff1661301384610e33565b73ffffffffffffffffffffffffffffffffffffffff16145b8061303c575061303b8185612c07565b5b91505092915050565b8273ffffffffffffffffffffffffffffffffffffffff16613065826117fe565b73ffffffffffffffffffffffffffffffffffffffff16146130bb576040517f08c379a00000000000000000000000000000000000000000000000000000000081526004016130b290614821565b60405180910390fd5b600073ffffffffffffffffffffffffffffffffffffffff168273ffffffffffffffffffffffffffffffffffffffff16141561312b576040517f08c379a000000000000000000000000000000000000000000000000000000000815260040161312290614861565b60405180910390fd5b61313683838361360b565b613141600082612eae565b6001600360008573ffffffffffffffffffffffffffffffffffffffff1673ffffffffffffffffffffffffffffffffffffffff16815260200190815260200160002060008282546131919190614cf9565b925050819055506001600360008473ffffffffffffffffffffffffffffffffffffffff1673ffffffffffffffffffffffffffffffffffffffff16815260200190815260200160002060008282546131e89190614c72565b92505081905550816002600083815260200190815260200160002060006101000a81548173ffffffffffffffffffffffffffffffffffffffff021916908373ffffffffffffffffffffffffffffffffffffffff160217905550808273ffffffffffffffffffffffffffffffffffffffff168473ffffffffffffffffffffffffffffffffffffffff167fddf252ad1be2c89b69c2b068fc378daa952ba7f163c4a11628f55a4df523b3ef60405160405180910390a46132a7838383613610565b505050565b6132c6828260405180602001604052806000815250613615565b5050565b8173ffffffffffffffffffffffffffffffffffffffff168373ffffffffffffffffffffffffffffffffffffffff161415613339576040517f08c379a000000000000000000000000000000000000000000000000000000000815260040161333090614881565b60405180910390fd5b80600560008573ffffffffffffffffffffffffffffffffffffffff1673ffffffffffffffffffffffffffffffffffffffff16815260200190815260200160002060008473ffffffffffffffffffffffffffffffffffffffff1673ffffffffffffffffffffffffffffffffffffffff16815260200190815260200160002060006101000a81548160ff0219169083151502179055508173ffffffffffffffffffffffffffffffffffffffff168373ffffffffffffffffffffffffffffffffffffffff167f17307eab39ab6107e8899845ad3d59bd9653f200f220920489ca2b5937696c318360405161342a9190614749565b60405180910390a3505050565b613442848484613045565b61344e84848484613670565b61348d576040517f08c379a0000000000000000000000000000000000000000000000000000000008152600401613484906147e1565b60405180910390fd5b50505050565b606060405180602001604052806000815250905090565b606060008214156134f2576040518060400160405280600181526020017f30000000000000000000000000000000000000000000000000000000000000008152509050613606565b600082905060005b6000821461352457808061350d90614e95565b915050600a8261351d9190614cc8565b91506134fa565b60008167ffffffffffffffff8111156135405761353f615004565b5b6040519080825280601f01601f1916602001820160405280156135725781602001600182028036833780820191505090505b5090505b600085146135ff5760018261358b9190614cf9565b9150600a8561359a9190614ee8565b60306135a69190614c72565b60f81b8183815181106135bc576135bb614fd5565b5b60200101907effffffffffffffffffffffffffffffffffffffffffffffffffffffffffffff1916908160001a905350600a856135f89190614cc8565b9450613576565b8093505050505b919050565b505050565b505050565b61361f8383613807565b61362c6000848484613670565b61366b576040517f08c379a0000000000000000000000000000000000000000000000000000000008152600401613662906147e1565b60405180910390fd5b505050565b60006136918473ffffffffffffffffffffffffffffffffffffffff166139e1565b156137fa578373ffffffffffffffffffffffffffffffffffffffff1663150b7a026136ba612ea6565b8786866040518563ffffffff1660e01b81526004016136dc94939291906146db565b602060405180830381600087803b1580156136f657600080fd5b505af192505050801561372757506040513d601f19601f820116820180604052508101906137249190613e48565b60015b6137aa573d8060008114613757576040519150601f19603f3d011682016040523d82523d6000602084013e61375c565b606091505b506000815114156137a2576040517f08c379a0000000000000000000000000000000000000000000000000000000008152600401613799906147e1565b60405180910390fd5b805181602001fd5b63150b7a0260e01b7bffffffffffffffffffffffffffffffffffffffffffffffffffffffff1916817bffffffffffffffffffffffffffffffffffffffffffffffffffffffff1916149150506137ff565b600190505b949350505050565b600073ffffffffffffffffffffffffffffffffffffffff168273ffffffffffffffffffffffffffffffffffffffff161415613877576040517f08c379a000000000000000000000000000000000000000000000000000000000815260040161386e906149c1565b60405180910390fd5b61388081612e3a565b156138c0576040517f08c379a00000000000000000000000000000000000000000000000000000000081526004016138b790614841565b60405180910390fd5b6138cc6000838361360b565b6001600360008473ffffffffffffffffffffffffffffffffffffffff1673ffffffffffffffffffffffffffffffffffffffff168152602001908152602001600020600082825461391c9190614c72565b92505081905550816002600083815260200190815260200160002060006101000a81548173ffffffffffffffffffffffffffffffffffffffff021916908373ffffffffffffffffffffffffffffffffffffffff160217905550808273ffffffffffffffffffffffffffffffffffffffff16600073ffffffffffffffffffffffffffffffffffffffff167fddf252ad1be2c89b69c2b068fc378daa952ba7f163c4a11628f55a4df523b3ef60405160405180910390a46139dd60008383613610565b5050565b6000808273ffffffffffffffffffffffffffffffffffffffff163b119050919050565b604051806101200160405280600073ffffffffffffffffffffffffffffffffffffffff16815260200160608152602001600081526020016060815260200160008152602001600081526020016000151581526020016000151581526020016000151581525090565b828054613a7890614e32565b90600052602060002090601f016020900481019282613a9a5760008555613ae1565b82601f10613ab357805160ff1916838001178555613ae1565b82800160010185558215613ae1579182015b82811115613ae0578251825591602001919060010190613ac5565b5b509050613aee9190613af2565b5090565b5b80821115613b0b576000816000905550600101613af3565b5090565b6000613b22613b1d84614b83565b614b5e565b905082815260208101848484011115613b3e57613b3d615038565b5b613b49848285614dc6565b509392505050565b6000613b64613b5f84614bb4565b614b5e565b905082815260208101848484011115613b8057613b7f615038565b5b613b8b848285614dc6565b509392505050565b600081359050613ba2816157bd565b92915050565b600081359050613bb7816157d4565b92915050565b600081359050613bcc816157eb565b92915050565b600081519050613be1816157eb565b92915050565b600082601f830112613bfc57613bfb615033565b5b8135613c0c848260208601613b0f565b91505092915050565b600082601f830112613c2a57613c29615033565b5b8135613c3a848260208601613b51565b91505092915050565b600081359050613c5281615802565b92915050565b600060208284031215613c6e57613c6d615042565b5b6000613c7c84828501613b93565b91505092915050565b60008060408385031215613c9c57613c9b615042565b5b6000613caa85828601613b93565b9250506020613cbb85828601613b93565b9150509250929050565b600080600060608486031215613cde57613cdd615042565b5b6000613cec86828701613b93565b9350506020613cfd86828701613b93565b9250506040613d0e86828701613c43565b9150509250925092565b60008060008060808587031215613d3257613d31615042565b5b6000613d4087828801613b93565b9450506020613d5187828801613b93565b9350506040613d6287828801613c43565b925050606085013567ffffffffffffffff811115613d8357613d8261503d565b5b613d8f87828801613be7565b91505092959194509250565b60008060408385031215613db257613db1615042565b5b6000613dc085828601613b93565b9250506020613dd185828601613ba8565b9150509250929050565b60008060408385031215613df257613df1615042565b5b6000613e0085828601613b93565b9250506020613e1185828601613c43565b9150509250929050565b600060208284031215613e3157613e30615042565b5b6000613e3f84828501613bbd565b91505092915050565b600060208284031215613e5e57613e5d615042565b5b6000613e6c84828501613bd2565b91505092915050565b600060208284031215613e8b57613e8a615042565b5b600082013567ffffffffffffffff811115613ea957613ea861503d565b5b613eb584828501613c15565b91505092915050565b60008060008060808587031215613ed857613ed7615042565b5b600085013567ffffffffffffffff811115613ef657613ef561503d565b5b613f0287828801613c15565b945050602085013567ffffffffffffffff811115613f2357613f2261503d565b5b613f2f87828801613c15565b9350506040613f4087828801613c43565b9250506060613f5187828801613c43565b91505092959194509250565b600060208284031215613f7357613f72615042565b5b6000613f8184828501613c43565b91505092915050565b60008060408385031215613fa157613fa0615042565b5b6000613faf85828601613c43565b9250506020613fc085828601613c43565b9150509250929050565b6000613fd6838361462a565b60208301905092915050565b613feb81614d2d565b82525050565b613ffa81614d2d565b82525050565b600061400b82614bf5565b6140158185614c23565b935061402083614be5565b8060005b838110156140515781516140388882613fca565b975061404383614c16565b925050600181019050614024565b5085935050505092915050565b61406781614d3f565b82525050565b61407681614d3f565b82525050565b600061408782614c00565b6140918185614c34565b93506140a1818560208601614dd5565b6140aa81615047565b840191505092915050565b6140be81614db4565b82525050565b60006140cf82614c0b565b6140d98185614c45565b93506140e9818560208601614dd5565b6140f281615047565b840191505092915050565b600061410882614c0b565b6141128185614c56565b9350614122818560208601614dd5565b61412b81615047565b840191505092915050565b600061414182614c0b565b61414b8185614c67565b935061415b818560208601614dd5565b80840191505092915050565b6000614174602483614c67565b915061417f82615058565b602482019050919050565b6000614197602383614c56565b91506141a2826150a7565b604082019050919050565b60006141ba602983614c56565b91506141c5826150f6565b604082019050919050565b60006141dd603283614c56565b91506141e882615145565b604082019050919050565b6000614200603083614c56565b915061420b82615194565b604082019050919050565b6000614223602583614c56565b915061422e826151e3565b604082019050919050565b6000614246601c83614c56565b915061425182615232565b602082019050919050565b6000614269602483614c56565b91506142748261525b565b604082019050919050565b600061428c601983614c56565b9150614297826152aa565b602082019050919050565b60006142af601c83614c56565b91506142ba826152d3565b602082019050919050565b60006142d2602c83614c56565b91506142dd826152fc565b604082019050919050565b60006142f5603883614c56565b91506143008261534b565b604082019050919050565b6000614318601b83614c56565b91506143238261539a565b602082019050919050565b600061433b602a83614c56565b9150614346826153c3565b604082019050919050565b600061435e602983614c56565b915061436982615412565b604082019050919050565b6000614381601f83614c56565b915061438c82615461565b602082019050919050565b60006143a4601c83614c56565b91506143af8261548a565b602082019050919050565b60006143c7602583614c56565b91506143d2826154b3565b604082019050919050565b60006143ea602083614c56565b91506143f582615502565b602082019050919050565b600061440d601c83614c56565b91506144188261552b565b602082019050919050565b6000614430602c83614c56565b915061443b82615554565b604082019050919050565b6000614453602783614c56565b915061445e826155a3565b604082019050919050565b6000614476602f83614c56565b9150614481826155f2565b604082019050919050565b6000614499601a83614c56565b91506144a482615641565b602082019050919050565b60006144bc602183614c56565b91506144c78261566a565b604082019050919050565b60006144df603183614c56565b91506144ea826156b9565b604082019050919050565b6000614502601183614c56565b915061450d82615708565b602082019050919050565b6000614525602c83614c56565b915061453082615731565b604082019050919050565b6000614548601e83614c56565b915061455382615780565b602082019050919050565b6000610120830160008301516145776000860182613fe2565b506020830151848203602086015261458f82826140c4565b91505060408301516145a4604086018261462a565b50606083015184820360608601526145bc82826140c4565b91505060808301516145d1608086018261462a565b5060a08301516145e460a086018261462a565b5060c08301516145f760c086018261405e565b5060e083015161460a60e086018261405e565b5061010083015161461f61010086018261405e565b508091505092915050565b61463381614daa565b82525050565b61464281614daa565b82525050565b61465961465482614daa565b614ede565b82525050565b600061466b8284614136565b915081905092915050565b60006146828285614136565b915061468e8284614136565b91508190509392505050565b60006146a582614167565b91506146b18284614648565b60208201915081905092915050565b60006020820190506146d56000830184613ff1565b92915050565b60006080820190506146f06000830187613ff1565b6146fd6020830186613ff1565b61470a6040830185614639565b818103606083015261471c818461407c565b905095945050505050565b600060208201905081810360008301526147418184614000565b905092915050565b600060208201905061475e600083018461406d565b92915050565b600060208201905061477960008301846140b5565b92915050565b6000602082019050818103600083015261479981846140fd565b905092915050565b600060208201905081810360008301526147ba8161418a565b9050919050565b600060208201905081810360008301526147da816141ad565b9050919050565b600060208201905081810360008301526147fa816141d0565b9050919050565b6000602082019050818103600083015261481a816141f3565b9050919050565b6000602082019050818103600083015261483a81614216565b9050919050565b6000602082019050818103600083015261485a81614239565b9050919050565b6000602082019050818103600083015261487a8161425c565b9050919050565b6000602082019050818103600083015261489a8161427f565b9050919050565b600060208201905081810360008301526148ba816142a2565b9050919050565b600060208201905081810360008301526148da816142c5565b9050919050565b600060208201905081810360008301526148fa816142e8565b9050919050565b6000602082019050818103600083015261491a8161430b565b9050919050565b6000602082019050818103600083015261493a8161432e565b9050919050565b6000602082019050818103600083015261495a81614351565b9050919050565b6000602082019050818103600083015261497a81614374565b9050919050565b6000602082019050818103600083015261499a81614397565b9050919050565b600060208201905081810360008301526149ba816143ba565b9050919050565b600060208201905081810360008301526149da816143dd565b9050919050565b600060208201905081810360008301526149fa81614400565b9050919050565b60006020820190508181036000830152614a1a81614423565b9050919050565b60006020820190508181036000830152614a3a81614446565b9050919050565b60006020820190508181036000830152614a5a81614469565b9050919050565b60006020820190508181036000830152614a7a8161448c565b9050919050565b60006020820190508181036000830152614a9a816144af565b9050919050565b60006020820190508181036000830152614aba816144d2565b9050919050565b60006020820190508181036000830152614ada816144f5565b9050919050565b60006020820190508181036000830152614afa81614518565b9050919050565b60006020820190508181036000830152614b1a8161453b565b9050919050565b60006020820190508181036000830152614b3b818461455e565b905092915050565b6000602082019050614b586000830184614639565b92915050565b6000614b68614b79565b9050614b748282614e64565b919050565b6000604051905090565b600067ffffffffffffffff821115614b9e57614b9d615004565b5b614ba782615047565b9050602081019050919050565b600067ffffffffffffffff821115614bcf57614bce615004565b5b614bd882615047565b9050602081019050919050565b6000819050602082019050919050565b600081519050919050565b600081519050919050565b600081519050919050565b6000602082019050919050565b600082825260208201905092915050565b600082825260208201905092915050565b600082825260208201905092915050565b600082825260208201905092915050565b600081905092915050565b6000614c7d82614daa565b9150614c8883614daa565b9250827fffffffffffffffffffffffffffffffffffffffffffffffffffffffffffffffff03821115614cbd57614cbc614f19565b5b828201905092915050565b6000614cd382614daa565b9150614cde83614daa565b925082614cee57614ced614f48565b5b828204905092915050565b6000614d0482614daa565b9150614d0f83614daa565b925082821015614d2257614d21614f19565b5b828203905092915050565b6000614d3882614d8a565b9050919050565b60008115159050919050565b60007fffffffff0000000000000000000000000000000000000000000000000000000082169050919050565b6000819050614d85826157a9565b919050565b600073ffffffffffffffffffffffffffffffffffffffff82169050919050565b6000819050919050565b6000614dbf82614d77565b9050919050565b82818337600083830152505050565b60005b83811015614df3578082015181840152602081019050614dd8565b83811115614e02576000848401525b50505050565b6000614e1382614daa565b91506000821415614e2757614e26614f19565b5b600182039050919050565b60006002820490506001821680614e4a57607f821691505b60208210811415614e5e57614e5d614fa6565b5b50919050565b614e6d82615047565b810181811067ffffffffffffffff82111715614e8c57614e8b615004565b5b80604052505050565b6000614ea082614daa565b91507fffffffffffffffffffffffffffffffffffffffffffffffffffffffffffffffff821415614ed357614ed2614f19565b5b600182019050919050565b6000819050919050565b6000614ef382614daa565b9150614efe83614daa565b925082614f0e57614f0d614f48565b5b828206905092915050565b7f4e487b7100000000000000000000000000000000000000000000000000000000600052601160045260246000fd5b7f4e487b7100000000000000000000000000000000000000000000000000000000600052601260045260246000fd5b7f4e487b7100000000000000000000000000000000000000000000000000000000600052602160045260246000fd5b7f4e487b7100000000000000000000000000000000000000000000000000000000600052602260045260246000fd5b7f4e487b7100000000000000000000000000000000000000000000000000000000600052603260045260246000fd5b7f4e487b7100000000000000000000000000000000000000000000000000000000600052604160045260246000fd5b600080fd5b600080fd5b600080fd5b600080fd5b6000601f19601f8301169050919050565b7f526573616c652070726963652063616e6e6f742062652067726561746572207460008201527f68616e2000000000000000000000000000000000000000000000000000000000602082015250565b7f427579657220616c7265616479207265616368656420746865206d6178206c6960008201527f6d69740000000000000000000000000000000000000000000000000000000000602082015250565b7f54686520616374696f6e206973206e6f7420617661696c61626c65206174207460008201527f6869732073746167650000000000000000000000000000000000000000000000602082015250565b7f4552433732313a207472616e7366657220746f206e6f6e20455243373231526560008201527f63656976657220696d706c656d656e7465720000000000000000000000000000602082015250565b7f4f6e6c7920746865206576656e74206f7267616e697a65722063616e2070657260008201527f666f726d207468697320616374696f6e00000000000000000000000000000000602082015250565b7f4552433732313a207472616e736665722066726f6d20696e636f72726563742060008201527f6f776e6572000000000000000000000000000000000000000000000000000000602082015250565b7f4552433732313a20746f6b656e20616c7265616479206d696e74656400000000600082015250565b7f4552433732313a207472616e7366657220746f20746865207a65726f2061646460008201527f7265737300000000000000000000000000000000000000000000000000000000602082015250565b7f4552433732313a20617070726f766520746f2063616c6c657200000000000000600082015250565b7f5469636b65742069732063757272656e746c7920756e6c697374656400000000600082015250565b7f4552433732313a206f70657261746f7220717565727920666f72206e6f6e657860008201527f697374656e7420746f6b656e0000000000000000000000000000000000000000602082015250565b7f4552433732313a20617070726f76652063616c6c6572206973206e6f74206f7760008201527f6e6572206e6f7220617070726f76656420666f7220616c6c0000000000000000602082015250565b7f546865207469636b657420697320616c72656164792076616c69640000000000600082015250565b7f4552433732313a2062616c616e636520717565727920666f7220746865207a6560008201527f726f206164647265737300000000000000000000000000000000000000000000602082015250565b7f4552433732313a206f776e657220717565727920666f72206e6f6e657869737460008201527f656e7420746f6b656e0000000000000000000000000000000000000000000000602082015250565b7f546865207469636b657420686173206265656e20696e76616c69646174656400600082015250565b7f5469636b657420697320616c726561647920636865636b656420696e00000000600082015250565b7f496e73756666696369656e742066756e647320746f207075726368617365207460008201527f69636b6574000000000000000000000000000000000000000000000000000000602082015250565b7f4552433732313a206d696e7420746f20746865207a65726f2061646472657373600082015250565b7f43616e6e6f74206275792c205469636b6574206e6f74206c6973656400000000600082015250565b7f4552433732313a20617070726f76656420717565727920666f72206e6f6e657860008201527f697374656e7420746f6b656e0000000000000000000000000000000000000000602082015250565b7f546865207469636b65742068617320616c7265616479206265656e20696e766160008201527f6c69646174656400000000000000000000000000000000000000000000000000602082015250565b7f4552433732314d657461646174613a2055524920717565727920666f72206e6f60008201527f6e6578697374656e7420746f6b656e0000000000000000000000000000000000602082015250565b7f5469636b65742069732063757272656e746c79206c6973746564000000000000600082015250565b7f4552433732313a20617070726f76616c20746f2063757272656e74206f776e6560008201527f7200000000000000000000000000000000000000000000000000000000000000602082015250565b7f4552433732313a207472616e736665722063616c6c6572206973206e6f74206f60008201527f776e6572206e6f7220617070726f766564000000000000000000000000000000602082015250565b7f5469636b6574206e6f74206c6973746564000000000000000000000000000000600082015250565b7f596f75277265206e6f7420617574686f72697a656420746f20706572666f726d60008201527f207468697320616374696f6e0000000000000000000000000000000000000000602082015250565b7f506c6561736520656e74657220612076616c6964207469636b65742069640000600082015250565b600481106157ba576157b9614f77565b5b50565b6157c681614d2d565b81146157d157600080fd5b50565b6157dd81614d3f565b81146157e857600080fd5b50565b6157f481614d4b565b81146157ff57600080fd5b50565b61580b81614daa565b811461581657600080fd5b5056fea2646970667358221220fd07ec11c86842503b2ca7d7fe62966cfe77197541ac9fda5951d49455afd49064736f6c63430008070033",
  "immutableReferences": {},
  "source": "// SPDX-License-Identifier: MIT\npragma solidity ^0.8.0;\nimport \"@openzeppelin/contracts/token/ERC721/ERC721.sol\";\nimport \"./MarketPlace.sol\";\n\ncontract Event is ERC721 {\n    string eventName;\n    address eventOrganizer;\n    string location;\n    string company;\n    uint256 numTickets = 0;\n    uint256 resaleCeiling;\n    uint256 maxTicketsPerAddress;\n    uint256 commissionFee;\n    uint256 eventDate;\n    // mapping(uint256 => uint256) listPrice;\n    MarketPlace marketPlace; // hardcoded address of the market place\n    string ticketImageUrl;\n    mapping(uint256 => Ticket) IDToTicket;\n    // mapping(ticketId => mapping(uint256 => address)) transactions;\n    mapping(address => uint256) ticketCountPerOwner;\n    eventStage currentStage;\n    mapping(string => uint256[]) typeToTicketIds;\n    // mapping(uint256 => uint256[]) typeIdToTicketIds;\n\n    enum eventStage {\n        PRESALES,\n        SALES,\n        DURINGEVENT,\n        POSTEVENT\n    }\n\n    event ticketCreated(uint256 tokenId);\n    event ticketBoughtDuringPostEvent(uint256 tokenId);\n    event ticketBoughtDuringSales(uint256 tokenId);\n    event ticketListed(uint256 tokenId);\n    event ticketUnlisted(uint256 tokenId);\n    event ticketCheckedIn(uint256 tokenId);\n    event ticketInvalidated(uint256 tokenId);\n    event ticketValidated(uint256 tokenId);\n\n    modifier requiredEventStage(eventStage stage) {\n        require(\n            stage == currentStage,\n            \"The action is not available at this stage\"\n        );\n        _;\n    }\n\n    modifier onlyTicketOwner(uint256 tokenId) {\n        require(_exists(tokenId), \"Please enter a valid ticket id\");\n        require(\n            IDToTicket[tokenId]._ticketOwner == msg.sender,\n            \"You're not authorized to perform this action\"\n        );\n        _;\n    }\n\n    modifier onlyEventOrganizer() {\n        require(\n            msg.sender == eventOrganizer,\n            \"Only the event organizer can perform this action\"\n        );\n        _;\n    }\n\n    modifier onlyMarketPlace() {\n        require(\n            msg.sender == address(marketPlace),\n            \"You're not authorized to perform this action\"\n        );\n        _;\n    }\n\n    modifier requireValidTicket(uint256 tokenId) {\n        require(_exists(tokenId), \"Please enter a valid ticket id\");\n        _;\n    }\n\n    modifier addressCanPurchaseMore(address buyer) {\n        require(\n            ticketCountPerOwner[buyer] < maxTicketsPerAddress,\n            \"Buyer already reached the max limit\"\n        );\n        _;\n    }\n\n    struct Ticket {\n        // address _marketPlaceAddress;\n        address _ticketOwner;\n        string _seat;\n        uint256 _seatID;\n        string _type;\n        uint256 creationPrice;\n        uint256 listingPrice;\n        bool isListed;\n        bool isCheckedIn;\n        bool isValid;\n    }\n\n    constructor(\n        string memory _eventName,\n        string memory _symbol,\n        string memory _location,\n        string memory _company,\n        uint256 _resaleCeiling,\n        uint256 _maxTicketsPerAddress,\n        uint256 _commissionFee,\n        //uint256 _eventDate,\n        MarketPlace _marketPlace\n    ) ERC721(_eventName, _symbol) {\n        eventName = _eventName;\n        eventOrganizer = msg.sender;\n        location = _location;\n        company = _company;\n        numTickets = 0;\n        resaleCeiling = _resaleCeiling;\n        maxTicketsPerAddress = _maxTicketsPerAddress;\n        commissionFee = _commissionFee;\n        //eventDate = _eventDate;\n        currentStage = eventStage.PRESALES;\n        marketPlace = _marketPlace;\n    }\n\n    function addEventToMarketplace() public {\n        marketPlace.addEvent(address(this));\n    }\n\n    function createTicket(\n        string memory _seat,\n        string memory _type,\n        uint256 _creationPrice,\n        uint256 _seatID\n    )\n        public\n        onlyEventOrganizer\n        requiredEventStage(eventStage.PRESALES)\n        returns (uint256)\n    {\n        Ticket memory newTicket = Ticket(\n            address(0),\n            _seat,\n            _seatID,\n            _type,\n            _creationPrice,\n            _creationPrice, // initial listing price is the creation price\n            false, //isListed set to false\n            false,\n            true\n        );\n        uint256 newTicketId = numTickets++;\n        _safeMint(address(marketPlace), newTicketId);\n        IDToTicket[newTicketId] = newTicket;\n        typeToTicketIds[_type].push(newTicketId);\n        emit ticketCreated(newTicketId);\n        return newTicketId;\n    }\n\n    function buyTicketsDuringPostEvent(uint256 tokenId)\n        public\n        payable\n        requireValidTicket(tokenId)\n        requiredEventStage(eventStage.POSTEVENT)\n    {\n        Ticket memory ticketToBuy = IDToTicket[tokenId];\n        require(ticketToBuy.isListed == true, \"Cannot buy, Ticket not lised\");\n        // ticket count does not matter any more after the event\n        safeTransferFrom(ticketToBuy._ticketOwner, msg.sender, tokenId);\n        ticketToBuy._ticketOwner = msg.sender;\n        ticketToBuy.isListed = false;\n        emit ticketBoughtDuringPostEvent(tokenId);\n    }\n\n    function createTicketInBulk(\n        string memory _seat,\n        string memory _type,\n        uint256 _creationPrice,\n        uint256 _numOfTickets\n    ) public onlyEventOrganizer requiredEventStage(eventStage.PRESALES) {\n        for (uint256 i = 0; i < _numOfTickets; i++) {\n             uint256 currentSeatID = i;\n\n            uint256 tokenId = createTicket(_seat, _type, currentSeatID, _creationPrice);\n\n            listTicket(tokenId, _creationPrice);\n        }\n    }\n\n    function buyTicketsDuringSales(uint256 tokenId)\n        public\n        payable\n        onlyMarketPlace\n        requiredEventStage(eventStage.SALES)\n        requireValidTicket(tokenId)\n        addressCanPurchaseMore(msg.sender)\n    {\n        uint256 payableAmount = IDToTicket[tokenId].listingPrice;\n        require(\n            msg.value >= payableAmount,\n            \"Insufficient funds to purchase ticket\"\n        );\n        require(IDToTicket[tokenId].isListed == true, \"Ticket not listed\");\n\n        uint256 amountPaid = msg.value;\n        // ticket was resold\n        if (IDToTicket[tokenId]._ticketOwner != address(0)) {\n            ticketCountPerOwner[IDToTicket[tokenId]._ticketOwner]--;\n            address payable reseller = payable(\n                address(uint160(IDToTicket[tokenId]._ticketOwner))\n            );\n            uint256 resaleValAfterCommission = amountPaid - commissionFee;\n            reseller.transfer(resaleValAfterCommission);\n        }\n\n        // tx.origin is used since the original buyer calls this function via market place contract\n        ticketCountPerOwner[tx.origin]++;\n\n        // can implement returning of balance if we want.\n        IDToTicket[tokenId]._ticketOwner = tx.origin;\n        IDToTicket[tokenId].isListed = false;\n        emit ticketBoughtDuringSales(tokenId);\n    }\n\n    // only need to list ticket during sales period\n    // after sales become post sales the ticket can be sold as an NFT\n    function listTicket(uint256 tokenId, uint256 _newListingPrice)\n        public\n        requireValidTicket(tokenId)\n        // requiredEventStage(eventStage.SALES)\n    {\n        require(\n            IDToTicket[tokenId].isListed == false,\n            \"Ticket is currently listed\"\n        );\n\n        require(\n            _newListingPrice <= resaleCeiling + commissionFee,\n            string(\n                abi.encodePacked(\n                    \"Resale price cannot be greater than \",\n                    resaleCeiling\n                )\n            )\n        );\n\n        IDToTicket[tokenId].isListed = true;\n        emit ticketListed(tokenId);\n    }\n\n    function unlistTicket(uint256 tokenId)\n        public\n        requireValidTicket(tokenId)\n        onlyTicketOwner(tokenId)\n        requiredEventStage(eventStage.SALES)\n    {\n        require(\n            IDToTicket[tokenId].isListed == true,\n            \"Ticket is currently unlisted\"\n        );\n        IDToTicket[tokenId].isListed = false;\n        emit ticketUnlisted(tokenId);\n    }\n\n    //////////////////////////////////////////////////////////\n    // Event Day Functions\n    function checkInTicket(uint256 tokenId)\n        public\n        onlyEventOrganizer\n        requireValidTicket(tokenId)\n        requiredEventStage(eventStage.SALES)\n    {\n        require(\n            IDToTicket[tokenId].isValid == true,\n            \"The ticket has been invalidated\"\n        );\n        require(\n            IDToTicket[tokenId].isCheckedIn == false,\n            \"Ticket is already checked in\"\n        );\n        IDToTicket[tokenId].isCheckedIn = true;\n        emit ticketCheckedIn(tokenId);\n    }\n\n    //////////////////////////////////////////////////////////\n    // Administration Functions\n    function invalidateTicket(uint256 tokenId)\n        public\n        onlyEventOrganizer\n        requireValidTicket(tokenId)\n    {\n        require(\n            IDToTicket[tokenId].isValid == true,\n            \"The ticket has already been invalidated\"\n        );\n\n        IDToTicket[tokenId].isValid = false;\n        emit ticketInvalidated(tokenId);\n    }\n\n    function validateTicket(uint256 tokenId)\n        public\n        onlyEventOrganizer\n        requireValidTicket(tokenId)\n    {\n        require(\n            IDToTicket[tokenId].isValid == false,\n            \"The ticket is already valid\"\n        );\n\n        IDToTicket[tokenId].isValid = true;\n        emit ticketValidated(tokenId);\n    }\n\n    //////////////////////////////////////////////////////\n    // state changing functions\n\n    // presalse --> sales\n    function changeStateToSales()\n        public\n        onlyEventOrganizer\n        requiredEventStage(eventStage.PRESALES)\n    {\n        currentStage = eventStage.SALES;\n    }\n\n    // sales --> during event\n    function changeStateToDuring()\n        public\n        onlyEventOrganizer\n        requiredEventStage(eventStage.SALES)\n    {\n        currentStage = eventStage.DURINGEVENT;\n    }\n\n    // during event --> post event\n    // called by the token owner\n    function changeStateToPostEvent()\n        public\n        onlyEventOrganizer\n        requiredEventStage(eventStage.DURINGEVENT)\n    {\n        currentStage = eventStage.POSTEVENT;\n    }\n\n    function getEventOrganizer() public view returns (address) {\n        return eventOrganizer;\n    }\n\n\n    function getTicketsListForEventType(string memory _type) public view returns (uint256[] memory) {\n        return typeToTicketIds[_type];\n    }\n\n\n\n    function getTicket(uint256 id)\n        public\n        view\n        requireValidTicket(id)\n        returns (Ticket memory)\n    {\n        return IDToTicket[id];\n    }\n\n      function getCurrentTicketCount() public view returns (uint256) {\n        return ticketCountPerOwner[msg.sender];\n    }\n\n       function getCurrentEventStage() public view returns (eventStage) {\n        return currentStage;\n    }\n\n    function getEventContractAddress() public view returns (address) {\n        return address(this);\n    }\n\n}\n",
  "sourcePath": "/Users/raymondhandoko/Documents/NUS/IS4302/group_project/IS4203_Group13/contracts/Event.sol",
  "compiler": {
    "name": "solc",
    "version": "0.8.7+commit.e28d00a7.Emscripten.clang"
  },
  "schemaVersion": "3.4.4",
  "updatedAt": "2022-04-08T06:35:11.550Z",
  "devdoc": {
    "kind": "dev",
    "methods": {
      "approve(address,uint256)": {
        "details": "See {IERC721-approve}."
      },
      "balanceOf(address)": {
        "details": "See {IERC721-balanceOf}."
      },
      "getApproved(uint256)": {
        "details": "See {IERC721-getApproved}."
      },
      "isApprovedForAll(address,address)": {
        "details": "See {IERC721-isApprovedForAll}."
      },
      "name()": {
        "details": "See {IERC721Metadata-name}."
      },
      "ownerOf(uint256)": {
        "details": "See {IERC721-ownerOf}."
      },
      "safeTransferFrom(address,address,uint256)": {
        "details": "See {IERC721-safeTransferFrom}."
      },
      "safeTransferFrom(address,address,uint256,bytes)": {
        "details": "See {IERC721-safeTransferFrom}."
      },
      "setApprovalForAll(address,bool)": {
        "details": "See {IERC721-setApprovalForAll}."
      },
      "supportsInterface(bytes4)": {
        "details": "See {IERC165-supportsInterface}."
      },
      "symbol()": {
        "details": "See {IERC721Metadata-symbol}."
      },
      "tokenURI(uint256)": {
        "details": "See {IERC721Metadata-tokenURI}."
      },
      "transferFrom(address,address,uint256)": {
        "details": "See {IERC721-transferFrom}."
      }
    },
    "version": 1
  },
  "userdoc": {
    "kind": "user",
    "methods": {},
    "version": 1
  }
}