{
  "contractName": "EventRevised",
  "abi": [
    {
      "inputs": [
        {
          "internalType": "uint256",
          "name": "",
          "type": "uint256"
        }
      ],
      "name": "events",
      "outputs": [
        {
          "internalType": "string",
          "name": "eventName",
          "type": "string"
        },
        {
          "internalType": "address",
          "name": "eventOrganizer",
          "type": "address"
        },
        {
          "internalType": "string",
          "name": "location",
          "type": "string"
        },
        {
          "internalType": "string",
          "name": "company",
          "type": "string"
        },
        {
          "internalType": "uint256",
          "name": "numTickets",
          "type": "uint256"
        },
        {
          "internalType": "uint256",
          "name": "resaleCeiling",
          "type": "uint256"
        },
        {
          "internalType": "uint256",
          "name": "maxTicketsPerAddress",
          "type": "uint256"
        },
        {
          "internalType": "uint256",
          "name": "commissionFee",
          "type": "uint256"
        },
        {
          "internalType": "uint256",
          "name": "eventDate",
          "type": "uint256"
        }
      ],
      "stateMutability": "view",
      "type": "function"
    },
    {
      "inputs": [],
      "name": "numEvents",
      "outputs": [
        {
          "internalType": "uint256",
          "name": "",
          "type": "uint256"
        }
      ],
      "stateMutability": "view",
      "type": "function"
    },
    {
      "inputs": [
        {
          "internalType": "string",
          "name": "eventName",
          "type": "string"
        },
        {
          "internalType": "address",
          "name": "eventOrganizer",
          "type": "address"
        },
        {
          "internalType": "string",
          "name": "location",
          "type": "string"
        },
        {
          "internalType": "string",
          "name": "company",
          "type": "string"
        },
        {
          "internalType": "uint256",
          "name": "numTickets",
          "type": "uint256"
        },
        {
          "internalType": "uint256",
          "name": "resaleCeiling",
          "type": "uint256"
        },
        {
          "internalType": "uint256",
          "name": "maxTicketsPerAddress",
          "type": "uint256"
        },
        {
          "internalType": "uint256",
          "name": "commissionFee",
          "type": "uint256"
        },
        {
          "internalType": "uint256",
          "name": "eventDate",
          "type": "uint256"
        }
      ],
      "name": "addEvent",
      "outputs": [
        {
          "internalType": "uint256",
          "name": "",
          "type": "uint256"
        }
      ],
      "stateMutability": "nonpayable",
      "type": "function"
    }
  ],
  "bytecode": "0x6080604052600060015534801561001557600080fd5b50610a95806100256000396000f3fe608060405234801561001057600080fd5b50600436106100415760003560e01c806303bf165e146100465780630b7914301461007657806334cf562b146100ae575b600080fd5b610060600480360381019061005b9190610584565b6100cc565b60405161006d91906107c8565b60405180910390f35b610090600480360381019061008b91906106a2565b61023b565b6040516100a599989796959493929190610726565b60405180910390f35b6100b6610441565b6040516100c391906107c8565b60405180910390f35b6000806040518061012001604052808c81526020018b73ffffffffffffffffffffffffffffffffffffffff1681526020018a815260200189815260200188815260200187815260200186815260200185815260200184815250905060006001600081548092919061013c90610936565b919050559050816000808381526020019081526020016000206000820151816000019080519060200190610171929190610447565b5060208201518160010160006101000a81548173ffffffffffffffffffffffffffffffffffffffff021916908373ffffffffffffffffffffffffffffffffffffffff16021790555060408201518160020190805190602001906101d5929190610447565b5060608201518160030190805190602001906101f2929190610447565b506080820151816004015560a0820151816005015560c0820151816006015560e08201518160070155610100820151816008015590505080925050509998505050505050505050565b600060205280600052604060002060009150905080600001805461025e906108d3565b80601f016020809104026020016040519081016040528092919081815260200182805461028a906108d3565b80156102d75780601f106102ac576101008083540402835291602001916102d7565b820191906000526020600020905b8154815290600101906020018083116102ba57829003601f168201915b5050505050908060010160009054906101000a900473ffffffffffffffffffffffffffffffffffffffff1690806002018054610312906108d3565b80601f016020809104026020016040519081016040528092919081815260200182805461033e906108d3565b801561038b5780601f106103605761010080835404028352916020019161038b565b820191906000526020600020905b81548152906001019060200180831161036e57829003601f168201915b5050505050908060030180546103a0906108d3565b80601f01602080910402602001604051908101604052809291908181526020018280546103cc906108d3565b80156104195780601f106103ee57610100808354040283529160200191610419565b820191906000526020600020905b8154815290600101906020018083116103fc57829003601f168201915b5050505050908060040154908060050154908060060154908060070154908060080154905089565b60015481565b828054610453906108d3565b90600052602060002090601f01602090048101928261047557600085556104bc565b82601f1061048e57805160ff19168380011785556104bc565b828001600101855582156104bc579182015b828111156104bb5782518255916020019190600101906104a0565b5b5090506104c991906104cd565b5090565b5b808211156104e65760008160009055506001016104ce565b5090565b60006104fd6104f884610808565b6107e3565b90508281526020810184848401111561051957610518610a11565b5b610524848285610891565b509392505050565b60008135905061053b81610a31565b92915050565b600082601f83011261055657610555610a0c565b5b81356105668482602086016104ea565b91505092915050565b60008135905061057e81610a48565b92915050565b60008060008060008060008060006101208a8c0312156105a7576105a6610a1b565b5b60008a013567ffffffffffffffff8111156105c5576105c4610a16565b5b6105d18c828d01610541565b99505060206105e28c828d0161052c565b98505060408a013567ffffffffffffffff81111561060357610602610a16565b5b61060f8c828d01610541565b97505060608a013567ffffffffffffffff8111156106305761062f610a16565b5b61063c8c828d01610541565b965050608061064d8c828d0161056f565b95505060a061065e8c828d0161056f565b94505060c061066f8c828d0161056f565b93505060e06106808c828d0161056f565b9250506101006106928c828d0161056f565b9150509295985092959850929598565b6000602082840312156106b8576106b7610a1b565b5b60006106c68482850161056f565b91505092915050565b6106d881610855565b82525050565b60006106e982610839565b6106f38185610844565b93506107038185602086016108a0565b61070c81610a20565b840191505092915050565b61072081610887565b82525050565b6000610120820190508181036000830152610741818c6106de565b9050610750602083018b6106cf565b8181036040830152610762818a6106de565b9050818103606083015261077681896106de565b90506107856080830188610717565b61079260a0830187610717565b61079f60c0830186610717565b6107ac60e0830185610717565b6107ba610100830184610717565b9a9950505050505050505050565b60006020820190506107dd6000830184610717565b92915050565b60006107ed6107fe565b90506107f98282610905565b919050565b6000604051905090565b600067ffffffffffffffff821115610823576108226109dd565b5b61082c82610a20565b9050602081019050919050565b600081519050919050565b600082825260208201905092915050565b600061086082610867565b9050919050565b600073ffffffffffffffffffffffffffffffffffffffff82169050919050565b6000819050919050565b82818337600083830152505050565b60005b838110156108be5780820151818401526020810190506108a3565b838111156108cd576000848401525b50505050565b600060028204905060018216806108eb57607f821691505b602082108114156108ff576108fe6109ae565b5b50919050565b61090e82610a20565b810181811067ffffffffffffffff8211171561092d5761092c6109dd565b5b80604052505050565b600061094182610887565b91507fffffffffffffffffffffffffffffffffffffffffffffffffffffffffffffffff8214156109745761097361097f565b5b600182019050919050565b7f4e487b7100000000000000000000000000000000000000000000000000000000600052601160045260246000fd5b7f4e487b7100000000000000000000000000000000000000000000000000000000600052602260045260246000fd5b7f4e487b7100000000000000000000000000000000000000000000000000000000600052604160045260246000fd5b600080fd5b600080fd5b600080fd5b600080fd5b6000601f19601f8301169050919050565b610a3a81610855565b8114610a4557600080fd5b50565b610a5181610887565b8114610a5c57600080fd5b5056fea2646970667358221220bd1ea2ac9790127cba43fee75560441838099fc6345316f1066c1887ab20b3a664736f6c63430008070033",
  "immutableReferences": {},
  "source": "pragma solidity ^0.8.0;\nimport \"@openzeppelin/contracts/token/ERC721/ERC721.sol\";\n\ncontract EventRevised  {\n    enum eventStage {\n        PRESALES,\n        SALES,\n        DURINGEVENT,\n        POSTEVENT\n    }\n    struct eventRevised {\n        string eventName;\n        address eventOrganizer;\n        string location;\n        string company;\n        uint256 numTickets;\n        uint256 resaleCeiling;\n        uint256 maxTicketsPerAddress;\n        uint256 commissionFee;\n        uint256 eventDate;\n    }\n\n    mapping(uint256 => eventRevised) public events ;\n    uint256 public numEvents = 0;\n\n    function addEvent(\n        string memory eventName, \n        address eventOrganizer,\n        string memory location,\n        string memory company,\n        uint256 numTickets,\n        uint256 resaleCeiling,\n        uint256 maxTicketsPerAddress,\n        uint256 commissionFee,\n        uint256 eventDate\n    ) public returns(uint256) {\n        eventRevised memory newEventRevised = eventRevised(\n            eventName,\n            eventOrganizer,\n            location,\n            company,\n            numTickets,\n            resaleCeiling,\n            maxTicketsPerAddress,\n            commissionFee,\n            eventDate\n        );\n\n        uint256 newEventId = numEvents++;\n        events[newEventId] = newEventRevised;\n        return newEventId;\n    }\n    \n\n}",
  "sourcePath": "/Users/raymondhandoko/Documents/NUS/IS4302/IS4203_Group13/contracts/EventRevised.sol",
  "compiler": {
    "name": "solc",
    "version": "0.8.7+commit.e28d00a7.Emscripten.clang"
  },
  "schemaVersion": "3.4.4",
  "updatedAt": "2022-04-03T10:54:05.027Z",
  "devdoc": {
    "kind": "dev",
    "methods": {},
    "version": 1
  },
  "userdoc": {
    "kind": "user",
    "methods": {},
    "version": 1
  }
}