{
  "contractName": "Event",
  "abi": [
    {
      "inputs": [
        {
          "internalType": "string",
          "name": "_eventName",
          "type": "string"
        },
        {
          "internalType": "string",
          "name": "_symbol",
          "type": "string"
        },
        {
          "internalType": "string",
          "name": "_location",
          "type": "string"
        },
        {
          "internalType": "string",
          "name": "_company",
          "type": "string"
        },
        {
          "internalType": "uint256",
          "name": "_resaleCeiling",
          "type": "uint256"
        },
        {
          "internalType": "uint256",
          "name": "_maxTicketsPerAddress",
          "type": "uint256"
        },
        {
          "internalType": "uint256",
          "name": "_commissionFee",
          "type": "uint256"
        },
        {
          "internalType": "contract MarketPlace",
          "name": "_marketPlace",
          "type": "address"
        }
      ],
      "stateMutability": "nonpayable",
      "type": "constructor"
    },
    {
      "anonymous": false,
      "inputs": [
        {
          "indexed": true,
          "internalType": "address",
          "name": "owner",
          "type": "address"
        },
        {
          "indexed": true,
          "internalType": "address",
          "name": "approved",
          "type": "address"
        },
        {
          "indexed": true,
          "internalType": "uint256",
          "name": "tokenId",
          "type": "uint256"
        }
      ],
      "name": "Approval",
      "type": "event"
    },
    {
      "anonymous": false,
      "inputs": [
        {
          "indexed": true,
          "internalType": "address",
          "name": "owner",
          "type": "address"
        },
        {
          "indexed": true,
          "internalType": "address",
          "name": "operator",
          "type": "address"
        },
        {
          "indexed": false,
          "internalType": "bool",
          "name": "approved",
          "type": "bool"
        }
      ],
      "name": "ApprovalForAll",
      "type": "event"
    },
    {
      "anonymous": false,
      "inputs": [
        {
          "indexed": true,
          "internalType": "address",
          "name": "from",
          "type": "address"
        },
        {
          "indexed": true,
          "internalType": "address",
          "name": "to",
          "type": "address"
        },
        {
          "indexed": true,
          "internalType": "uint256",
          "name": "tokenId",
          "type": "uint256"
        }
      ],
      "name": "Transfer",
      "type": "event"
    },
    {
      "anonymous": false,
      "inputs": [
        {
          "indexed": false,
          "internalType": "uint256",
          "name": "tokenId",
          "type": "uint256"
        }
      ],
      "name": "ticketBoughtDuringPostEvent",
      "type": "event"
    },
    {
      "anonymous": false,
      "inputs": [
        {
          "indexed": false,
          "internalType": "uint256",
          "name": "tokenId",
          "type": "uint256"
        },
        {
          "indexed": false,
          "internalType": "address",
          "name": "newOwner",
          "type": "address"
        }
      ],
      "name": "ticketBoughtDuringSales",
      "type": "event"
    },
    {
      "anonymous": false,
      "inputs": [
        {
          "indexed": false,
          "internalType": "uint256",
          "name": "tokenId",
          "type": "uint256"
        }
      ],
      "name": "ticketCheckedIn",
      "type": "event"
    },
    {
      "anonymous": false,
      "inputs": [
        {
          "indexed": false,
          "internalType": "uint256",
          "name": "tokenId",
          "type": "uint256"
        }
      ],
      "name": "ticketCreated",
      "type": "event"
    },
    {
      "anonymous": false,
      "inputs": [
        {
          "indexed": false,
          "internalType": "uint256",
          "name": "tokenId",
          "type": "uint256"
        }
      ],
      "name": "ticketInvalidated",
      "type": "event"
    },
    {
      "anonymous": false,
      "inputs": [
        {
          "indexed": false,
          "internalType": "uint256",
          "name": "tokenId",
          "type": "uint256"
        }
      ],
      "name": "ticketListed",
      "type": "event"
    },
    {
      "anonymous": false,
      "inputs": [
        {
          "indexed": false,
          "internalType": "uint256",
          "name": "tokenId",
          "type": "uint256"
        }
      ],
      "name": "ticketUnlisted",
      "type": "event"
    },
    {
      "anonymous": false,
      "inputs": [
        {
          "indexed": false,
          "internalType": "uint256",
          "name": "tokenId",
          "type": "uint256"
        }
      ],
      "name": "ticketValidated",
      "type": "event"
    },
    {
      "inputs": [
        {
          "internalType": "address",
          "name": "to",
          "type": "address"
        },
        {
          "internalType": "uint256",
          "name": "tokenId",
          "type": "uint256"
        }
      ],
      "name": "approve",
      "outputs": [],
      "stateMutability": "nonpayable",
      "type": "function"
    },
    {
      "inputs": [
        {
          "internalType": "address",
          "name": "owner",
          "type": "address"
        }
      ],
      "name": "balanceOf",
      "outputs": [
        {
          "internalType": "uint256",
          "name": "",
          "type": "uint256"
        }
      ],
      "stateMutability": "view",
      "type": "function",
      "constant": true
    },
    {
      "inputs": [
        {
          "internalType": "uint256",
          "name": "tokenId",
          "type": "uint256"
        }
      ],
      "name": "getApproved",
      "outputs": [
        {
          "internalType": "address",
          "name": "",
          "type": "address"
        }
      ],
      "stateMutability": "view",
      "type": "function",
      "constant": true
    },
    {
      "inputs": [
        {
          "internalType": "address",
          "name": "owner",
          "type": "address"
        },
        {
          "internalType": "address",
          "name": "operator",
          "type": "address"
        }
      ],
      "name": "isApprovedForAll",
      "outputs": [
        {
          "internalType": "bool",
          "name": "",
          "type": "bool"
        }
      ],
      "stateMutability": "view",
      "type": "function",
      "constant": true
    },
    {
      "inputs": [],
      "name": "name",
      "outputs": [
        {
          "internalType": "string",
          "name": "",
          "type": "string"
        }
      ],
      "stateMutability": "view",
      "type": "function",
      "constant": true
    },
    {
      "inputs": [
        {
          "internalType": "uint256",
          "name": "tokenId",
          "type": "uint256"
        }
      ],
      "name": "ownerOf",
      "outputs": [
        {
          "internalType": "address",
          "name": "",
          "type": "address"
        }
      ],
      "stateMutability": "view",
      "type": "function",
      "constant": true
    },
    {
      "inputs": [
        {
          "internalType": "address",
          "name": "from",
          "type": "address"
        },
        {
          "internalType": "address",
          "name": "to",
          "type": "address"
        },
        {
          "internalType": "uint256",
          "name": "tokenId",
          "type": "uint256"
        }
      ],
      "name": "safeTransferFrom",
      "outputs": [],
      "stateMutability": "nonpayable",
      "type": "function"
    },
    {
      "inputs": [
        {
          "internalType": "address",
          "name": "from",
          "type": "address"
        },
        {
          "internalType": "address",
          "name": "to",
          "type": "address"
        },
        {
          "internalType": "uint256",
          "name": "tokenId",
          "type": "uint256"
        },
        {
          "internalType": "bytes",
          "name": "_data",
          "type": "bytes"
        }
      ],
      "name": "safeTransferFrom",
      "outputs": [],
      "stateMutability": "nonpayable",
      "type": "function"
    },
    {
      "inputs": [
        {
          "internalType": "address",
          "name": "operator",
          "type": "address"
        },
        {
          "internalType": "bool",
          "name": "approved",
          "type": "bool"
        }
      ],
      "name": "setApprovalForAll",
      "outputs": [],
      "stateMutability": "nonpayable",
      "type": "function"
    },
    {
      "inputs": [
        {
          "internalType": "bytes4",
          "name": "interfaceId",
          "type": "bytes4"
        }
      ],
      "name": "supportsInterface",
      "outputs": [
        {
          "internalType": "bool",
          "name": "",
          "type": "bool"
        }
      ],
      "stateMutability": "view",
      "type": "function",
      "constant": true
    },
    {
      "inputs": [],
      "name": "symbol",
      "outputs": [
        {
          "internalType": "string",
          "name": "",
          "type": "string"
        }
      ],
      "stateMutability": "view",
      "type": "function",
      "constant": true
    },
    {
      "inputs": [
        {
          "internalType": "uint256",
          "name": "tokenId",
          "type": "uint256"
        }
      ],
      "name": "tokenURI",
      "outputs": [
        {
          "internalType": "string",
          "name": "",
          "type": "string"
        }
      ],
      "stateMutability": "view",
      "type": "function",
      "constant": true
    },
    {
      "inputs": [
        {
          "internalType": "address",
          "name": "from",
          "type": "address"
        },
        {
          "internalType": "address",
          "name": "to",
          "type": "address"
        },
        {
          "internalType": "uint256",
          "name": "tokenId",
          "type": "uint256"
        }
      ],
      "name": "transferFrom",
      "outputs": [],
      "stateMutability": "nonpayable",
      "type": "function"
    },
    {
      "inputs": [],
      "name": "addEventToMarketplace",
      "outputs": [],
      "stateMutability": "nonpayable",
      "type": "function"
    },
    {
      "inputs": [
        {
          "internalType": "string",
          "name": "_seat",
          "type": "string"
        },
        {
          "internalType": "string",
          "name": "_type",
          "type": "string"
        },
        {
          "internalType": "uint256",
          "name": "_creationPrice",
          "type": "uint256"
        },
        {
          "internalType": "uint256",
          "name": "_seatID",
          "type": "uint256"
        }
      ],
      "name": "createTicket",
      "outputs": [
        {
          "internalType": "uint256",
          "name": "",
          "type": "uint256"
        }
      ],
      "stateMutability": "nonpayable",
      "type": "function"
    },
    {
      "inputs": [
        {
          "internalType": "uint256",
          "name": "tokenId",
          "type": "uint256"
        }
      ],
      "name": "buyTicketsDuringPostEvent",
      "outputs": [],
      "stateMutability": "payable",
      "type": "function",
      "payable": true
    },
    {
      "inputs": [
        {
          "internalType": "string",
          "name": "_seat",
          "type": "string"
        },
        {
          "internalType": "string",
          "name": "_type",
          "type": "string"
        },
        {
          "internalType": "uint256",
          "name": "_creationPrice",
          "type": "uint256"
        },
        {
          "internalType": "uint256",
          "name": "_numOfTickets",
          "type": "uint256"
        }
      ],
      "name": "createTicketInBulk",
      "outputs": [],
      "stateMutability": "nonpayable",
      "type": "function"
    },
    {
      "inputs": [
        {
          "internalType": "uint256",
          "name": "tokenId",
          "type": "uint256"
        }
      ],
      "name": "buyTicketsDuringSales",
      "outputs": [],
      "stateMutability": "payable",
      "type": "function",
      "payable": true
    },
    {
      "inputs": [
        {
          "internalType": "uint256",
          "name": "tokenId",
          "type": "uint256"
        },
        {
          "internalType": "uint256",
          "name": "_newListingPrice",
          "type": "uint256"
        }
      ],
      "name": "listTicket",
      "outputs": [],
      "stateMutability": "nonpayable",
      "type": "function"
    },
    {
      "inputs": [
        {
          "internalType": "uint256",
          "name": "tokenId",
          "type": "uint256"
        }
      ],
      "name": "unlistTicket",
      "outputs": [],
      "stateMutability": "nonpayable",
      "type": "function"
    },
    {
      "inputs": [
        {
          "internalType": "uint256",
          "name": "tokenId",
          "type": "uint256"
        }
      ],
      "name": "checkInTicket",
      "outputs": [],
      "stateMutability": "nonpayable",
      "type": "function"
    },
    {
      "inputs": [
        {
          "internalType": "uint256",
          "name": "tokenId",
          "type": "uint256"
        }
      ],
      "name": "invalidateTicket",
      "outputs": [],
      "stateMutability": "nonpayable",
      "type": "function"
    },
    {
      "inputs": [
        {
          "internalType": "uint256",
          "name": "tokenId",
          "type": "uint256"
        }
      ],
      "name": "validateTicket",
      "outputs": [],
      "stateMutability": "nonpayable",
      "type": "function"
    },
    {
      "inputs": [],
      "name": "changeStateToSales",
      "outputs": [],
      "stateMutability": "nonpayable",
      "type": "function"
    },
    {
      "inputs": [],
      "name": "changeStateToDuring",
      "outputs": [],
      "stateMutability": "nonpayable",
      "type": "function"
    },
    {
      "inputs": [],
      "name": "changeStateToPostEvent",
      "outputs": [],
      "stateMutability": "nonpayable",
      "type": "function"
    },
    {
      "inputs": [
        {
          "internalType": "uint256",
          "name": "ticketId",
          "type": "uint256"
        }
      ],
      "name": "getTicket",
      "outputs": [
        {
          "components": [
            {
              "internalType": "address",
              "name": "_ticketOwner",
              "type": "address"
            },
            {
              "internalType": "string",
              "name": "_seat",
              "type": "string"
            },
            {
              "internalType": "uint256",
              "name": "_seatID",
              "type": "uint256"
            },
            {
              "internalType": "string",
              "name": "_type",
              "type": "string"
            },
            {
              "internalType": "uint256",
              "name": "creationPrice",
              "type": "uint256"
            },
            {
              "internalType": "uint256",
              "name": "listingPrice",
              "type": "uint256"
            },
            {
              "internalType": "bool",
              "name": "isListed",
              "type": "bool"
            },
            {
              "internalType": "bool",
              "name": "isCheckedIn",
              "type": "bool"
            },
            {
              "internalType": "bool",
              "name": "isValid",
              "type": "bool"
            }
          ],
          "internalType": "struct Event.Ticket",
          "name": "",
          "type": "tuple"
        }
      ],
      "stateMutability": "view",
      "type": "function",
      "constant": true
    },
    {
      "inputs": [],
      "name": "getEventName",
      "outputs": [
        {
          "internalType": "string",
          "name": "",
          "type": "string"
        }
      ],
      "stateMutability": "view",
      "type": "function",
      "constant": true
    },
    {
      "inputs": [],
      "name": "getEventOrganizer",
      "outputs": [
        {
          "internalType": "address",
          "name": "",
          "type": "address"
        }
      ],
      "stateMutability": "view",
      "type": "function",
      "constant": true
    },
    {
      "inputs": [],
      "name": "getLocation",
      "outputs": [
        {
          "internalType": "string",
          "name": "",
          "type": "string"
        }
      ],
      "stateMutability": "view",
      "type": "function",
      "constant": true
    },
    {
      "inputs": [],
      "name": "getCompany",
      "outputs": [
        {
          "internalType": "string",
          "name": "",
          "type": "string"
        }
      ],
      "stateMutability": "view",
      "type": "function",
      "constant": true
    },
    {
      "inputs": [],
      "name": "getTotalTickets",
      "outputs": [
        {
          "internalType": "uint256",
          "name": "",
          "type": "uint256"
        }
      ],
      "stateMutability": "view",
      "type": "function",
      "constant": true
    },
    {
      "inputs": [],
      "name": "getMaxTicksPerAddress",
      "outputs": [
        {
          "internalType": "uint256",
          "name": "",
          "type": "uint256"
        }
      ],
      "stateMutability": "view",
      "type": "function",
      "constant": true
    },
    {
      "inputs": [],
      "name": "getComissionFee",
      "outputs": [
        {
          "internalType": "uint256",
          "name": "",
          "type": "uint256"
        }
      ],
      "stateMutability": "view",
      "type": "function",
      "constant": true
    },
    {
      "inputs": [],
      "name": "getEventDate",
      "outputs": [
        {
          "internalType": "uint256",
          "name": "",
          "type": "uint256"
        }
      ],
      "stateMutability": "view",
      "type": "function",
      "constant": true
    },
    {
      "inputs": [],
      "name": "getTicketImageUrl",
      "outputs": [
        {
          "internalType": "string",
          "name": "",
          "type": "string"
        }
      ],
      "stateMutability": "view",
      "type": "function",
      "constant": true
    },
    {
      "inputs": [
        {
          "internalType": "string",
          "name": "_type",
          "type": "string"
        }
      ],
      "name": "getTicketsListForEventType",
      "outputs": [
        {
          "internalType": "uint256[]",
          "name": "",
          "type": "uint256[]"
        }
      ],
      "stateMutability": "view",
      "type": "function",
      "constant": true
    },
    {
      "inputs": [
        {
          "internalType": "address",
          "name": "countAddress",
          "type": "address"
        }
      ],
      "name": "getCurrentTicketCount",
      "outputs": [
        {
          "internalType": "uint256",
          "name": "",
          "type": "uint256"
        }
      ],
      "stateMutability": "view",
      "type": "function",
      "constant": true
    },
    {
      "inputs": [],
      "name": "getCurrentEventStage",
      "outputs": [
        {
          "internalType": "enum Event.EventStage",
          "name": "",
          "type": "uint8"
        }
      ],
      "stateMutability": "view",
      "type": "function",
      "constant": true
    },
    {
      "inputs": [],
      "name": "getEventContractAddress",
      "outputs": [
        {
          "internalType": "address",
          "name": "",
          "type": "address"
        }
      ],
      "stateMutability": "view",
      "type": "function",
      "constant": true
    }
  ],
  "bytecode": "0x60806040526000600a553480156200001657600080fd5b50604051620041ef380380620041ef833981016040819052620000399162000281565b8751889088906200005290600090602085019062000107565b5080516200006890600190602084019062000107565b5050885162000080915060069060208b019062000107565b50600780546001600160a01b031916331790558551620000a890600890602089019062000107565b508451620000be90600990602088019062000107565b506000600a55600b93909355600c91909155600d556013805460ff19169055600f80546001600160a01b0319166001600160a01b0390921691909117905550620003bd92505050565b82805462000115906200036a565b90600052602060002090601f01602090048101928262000139576000855562000184565b82601f106200015457805160ff191683800117855562000184565b8280016001018555821562000184579182015b828111156200018457825182559160200191906001019062000167565b506200019292915062000196565b5090565b5b8082111562000192576000815560010162000197565b80516001600160a01b0381168114620001c557600080fd5b919050565b600082601f830112620001dc57600080fd5b81516001600160401b0380821115620001f957620001f9620003a7565b604051601f8301601f19908116603f01168101908282118183101715620002245762000224620003a7565b816040528381526020925086838588010111156200024157600080fd5b600091505b8382101562000265578582018301518183018401529082019062000246565b83821115620002775760008385830101525b9695505050505050565b600080600080600080600080610100898b0312156200029f57600080fd5b88516001600160401b0380821115620002b757600080fd5b620002c58c838d01620001ca565b995060208b0151915080821115620002dc57600080fd5b620002ea8c838d01620001ca565b985060408b01519150808211156200030157600080fd5b6200030f8c838d01620001ca565b975060608b01519150808211156200032657600080fd5b50620003358b828c01620001ca565b9550506080890151935060a0890151925060c089015191506200035b60e08a01620001ad565b90509295985092959890939650565b600181811c908216806200037f57607f821691505b60208210811415620003a157634e487b7160e01b600052602260045260246000fd5b50919050565b634e487b7160e01b600052604160045260246000fd5b613e2280620003cd6000396000f3fe6080604052600436106102bb5760003560e01c8063869b556e1161016e578063b88d4fde116100cb578063dc905f021161007f578063e0776e4b11610064578063e0776e4b14610729578063e985e9c51461073e578063ee8d83f71461078757600080fd5b8063dc905f0214610701578063e0016aee1461071657600080fd5b8063c87b56dd116100b0578063c87b56dd146106ae578063ce2ce3fc146106ce578063d1fd229c146106e357600080fd5b8063b88d4fde1461066e578063c7ddab361461068e57600080fd5b8063a22cb46511610122578063a8358e2911610107578063a8358e2914610624578063aade5b7814610639578063b81e43fc1461065957600080fd5b8063a22cb465146105ef578063a636a30a1461060f57600080fd5b806395d89b411161015357806395d89b41146105a55780639bee1be2146105ba5780639e757aef146105cf57600080fd5b8063869b556e1461057057806393e9541d1461058557600080fd5b8063305a905a1161021c578063575836a3116101d057806370a08231116101b557806370a08231146105035780637dc379fa1461052357806383ece4c61461055057600080fd5b8063575836a3146104ce5780636352211e146104e357600080fd5b80633f34acb5116102015780633f34acb51461046e5780634140fb221461049b57806342842e0e146104ae57600080fd5b8063305a905a1461042e5780633dc0e1c91461044e57600080fd5b8063081812fc11610273578063127810bc11610258578063127810bc146103c357806314997a9a146103d857806323b872dd1461040e57600080fd5b8063081812fc1461036b578063095ea7b3146103a357600080fd5b8063054ae7df116102a4578063054ae7df1461030a57806306e8337f1461032a57806306fdde031461034957600080fd5b806301ffc9a7146102c05780630244032e146102f5575b600080fd5b3480156102cc57600080fd5b506102e06102db366004613955565b61079c565b60405190151581526020015b60405180910390f35b610308610303366004613a38565b610839565b005b34801561031657600080fd5b50610308610325366004613a38565b610d4e565b34801561033657600080fd5b50600a545b6040519081526020016102ec565b34801561035557600080fd5b5061035e610eed565b6040516102ec9190613b92565b34801561037757600080fd5b5061038b610386366004613a38565b610f7f565b6040516001600160a01b0390911681526020016102ec565b3480156103af57600080fd5b506103086103be36600461392b565b611014565b3480156103cf57600080fd5b5061035e611146565b3480156103e457600080fd5b5061033b6103f33660046137e9565b6001600160a01b031660009081526012602052604090205490565b34801561041a57600080fd5b50610308610429366004613837565b611155565b34801561043a57600080fd5b50610308610449366004613a51565b6111dc565b34801561045a57600080fd5b5060135460ff166040516102ec9190613b6a565b34801561047a57600080fd5b5061048e61048936600461398f565b611423565b6040516102ec9190613b26565b6103086104a9366004613a38565b611493565b3480156104ba57600080fd5b506103086104c9366004613837565b611993565b3480156104da57600080fd5b50600e5461033b565b3480156104ef57600080fd5b5061038b6104fe366004613a38565b6119ae565b34801561050f57600080fd5b5061033b61051e3660046137e9565b611a39565b34801561052f57600080fd5b5061054361053e366004613a38565b611ad3565b6040516102ec9190613ba5565b34801561055c57600080fd5b5061030861056b366004613a38565b611cd5565b34801561057c57600080fd5b50610308611fbc565b34801561059157600080fd5b5061033b6105a03660046139c4565b6120d1565b3480156105b157600080fd5b5061035e61239b565b3480156105c657600080fd5b5061035e6123aa565b3480156105db57600080fd5b506103086105ea3660046139c4565b6123b9565b3480156105fb57600080fd5b5061030861060a3660046138ef565b6124ec565b34801561061b57600080fd5b506103086124fb565b34801561063057600080fd5b50610308612573565b34801561064557600080fd5b50610308610654366004613a38565b6126c1565b34801561066557600080fd5b5061035e612955565b34801561067a57600080fd5b50610308610689366004613873565b612964565b34801561069a57600080fd5b506103086106a9366004613a38565b6129ec565b3480156106ba57600080fd5b5061035e6106c9366004613a38565b612ba4565b3480156106da57600080fd5b5061035e612c9a565b3480156106ef57600080fd5b506007546001600160a01b031661038b565b34801561070d57600080fd5b50600c5461033b565b34801561072257600080fd5b503061038b565b34801561073557600080fd5b50600d5461033b565b34801561074a57600080fd5b506102e0610759366004613804565b6001600160a01b03918216600090815260056020908152604080832093909416825291909152205460ff1690565b34801561079357600080fd5b50610308612ca9565b60006001600160e01b031982167f80ac58cd0000000000000000000000000000000000000000000000000000000014806107ff57506001600160e01b031982167f5b5e139f00000000000000000000000000000000000000000000000000000000145b8061083357507f01ffc9a7000000000000000000000000000000000000000000000000000000006001600160e01b03198316145b92915050565b60008181526002602052604090205481906001600160a01b03166108a45760405162461bcd60e51b815260206004820152601e60248201527f506c6561736520656e74657220612076616c6964207469636b6574206964000060448201526064015b60405180910390fd5b60135460039060ff16818111156108bd576108bd613d91565b8160038111156108cf576108cf613d91565b1461092e5760405162461bcd60e51b815260206004820152602960248201527f54686520616374696f6e206973206e6f7420617661696c61626c65206174207460448201526868697320737461676560b81b606482015260840161089b565b60008381526011602090815260408083208151610120810190925280546001600160a01b03168252600181018054929391929184019161096d90613cfb565b80601f016020809104026020016040519081016040528092919081815260200182805461099990613cfb565b80156109e65780601f106109bb576101008083540402835291602001916109e6565b820191906000526020600020905b8154815290600101906020018083116109c957829003601f168201915b5050505050815260200160028201548152602001600382018054610a0990613cfb565b80601f0160208091040260200160405190810160405280929190818152602001828054610a3590613cfb565b8015610a825780601f10610a5757610100808354040283529160200191610a82565b820191906000526020600020905b815481529060010190602001808311610a6557829003601f168201915b5050509183525050600482015460208201526005820154604082015260069091015460ff8082161515606084015261010082048116151560808401526201000090910416151560a09091015260c08101519091501515600114610b275760405162461bcd60e51b815260206004820152601c60248201527f43616e6e6f74206275792c205469636b6574206e6f74206c6973656400000000604482015260640161089b565b60a0810151600d543490606490610b3e9082613c56565b610b489084613c82565b610b529190613c6e565b1115610ba05760405162461bcd60e51b815260206004820152601160248201527f496e73756666696369656e742045544821000000000000000000000000000000604482015260640161089b565b8151610bad903387611993565b81516040516001600160a01b0382169083156108fc029084906000818181858888f19350505050158015610be5573d6000803e3d6000fd5b50600754600d546001600160a01b039091169081906108fc90606490610c0b9087613c82565b610c159190613c6e565b6040518115909202916000818181858888f19350505050158015610c3d573d6000803e3d6000fd5b50600d54329081906108fc90606490610c569088613c82565b610c609190613c6e565b610c6a8734613ca1565b610c749190613ca1565b6040518115909202916000818181858888f19350505050158015610c9c573d6000803e3d6000fd5b50338552600060c0860152600f54604051633311b40560e01b8152306004820152602481018a90526001600160a01b0390911690633311b40590604401600060405180830381600087803b158015610cf357600080fd5b505af1158015610d07573d6000803e3d6000fd5b505050507f327ab2f05b86d514a18f0e75b46e49ae77bb17fb9ff8fcdc9fe586fbedb967ab88604051610d3c91815260200190565b60405180910390a15050505050505050565b6007546001600160a01b03163314610dc15760405162461bcd60e51b815260206004820152603060248201527f4f6e6c7920746865206576656e74206f7267616e697a65722063616e2070657260448201526f3337b936903a3434b99030b1ba34b7b760811b606482015260840161089b565b60008181526002602052604090205481906001600160a01b0316610e275760405162461bcd60e51b815260206004820152601e60248201527f506c6561736520656e74657220612076616c6964207469636b65742069640000604482015260640161089b565b60008281526011602052604090206006015462010000900460ff1615610e8f5760405162461bcd60e51b815260206004820152601b60248201527f546865207469636b657420697320616c72656164792076616c69640000000000604482015260640161089b565b60008281526011602052604090819020600601805462ff0000191662010000179055517f7b2b39d4f224af697c345bb975acb5347691ad52a7e6d1782f6d4bc7cf5a5cee90610ee19084815260200190565b60405180910390a15050565b606060008054610efc90613cfb565b80601f0160208091040260200160405190810160405280929190818152602001828054610f2890613cfb565b8015610f755780601f10610f4a57610100808354040283529160200191610f75565b820191906000526020600020905b815481529060010190602001808311610f5857829003601f168201915b5050505050905090565b6000818152600260205260408120546001600160a01b0316610ff85760405162461bcd60e51b815260206004820152602c60248201527f4552433732313a20617070726f76656420717565727920666f72206e6f6e657860448201526b34b9ba32b73a103a37b5b2b760a11b606482015260840161089b565b506000908152600460205260409020546001600160a01b031690565b600061101f826119ae565b9050806001600160a01b0316836001600160a01b031614156110a95760405162461bcd60e51b815260206004820152602160248201527f4552433732313a20617070726f76616c20746f2063757272656e74206f776e6560448201527f7200000000000000000000000000000000000000000000000000000000000000606482015260840161089b565b336001600160a01b03821614806110c557506110c58133610759565b6111375760405162461bcd60e51b815260206004820152603860248201527f4552433732313a20617070726f76652063616c6c6572206973206e6f74206f7760448201527f6e6572206e6f7220617070726f76656420666f7220616c6c0000000000000000606482015260840161089b565b6111418383612dbb565b505050565b606060098054610efc90613cfb565b61115f3382612e29565b6111d15760405162461bcd60e51b815260206004820152603160248201527f4552433732313a207472616e736665722063616c6c6572206973206e6f74206f60448201527f776e6572206e6f7220617070726f766564000000000000000000000000000000606482015260840161089b565b611141838383612f20565b60008281526002602052604090205482906001600160a01b03166112425760405162461bcd60e51b815260206004820152601e60248201527f506c6561736520656e74657220612076616c6964207469636b65742069640000604482015260640161089b565b60008381526011602052604090206006015460ff16156112a45760405162461bcd60e51b815260206004820152601a60248201527f5469636b65742069732063757272656e746c79206c6973746564000000000000604482015260640161089b565b600083815260116020526040902060040154600b546112c4906001613c56565b6112ce9082613c82565b8311156113435760405162461bcd60e51b815260206004820152602b60248201527f526573616c652070726963652063616e6e6f742062652067726561746572207460448201527f68616e206365696c696e67000000000000000000000000000000000000000000606482015260840161089b565b60008481526011602052604090819020600601805460ff19166001179055600f5490517f1d66b15c00000000000000000000000000000000000000000000000000000000815230600482015260248101869052604481018590526001600160a01b0390911690631d66b15c90606401600060405180830381600087803b1580156113cc57600080fd5b505af11580156113e0573d6000803e3d6000fd5b505050507fa896dd68acb4fb999e2c3f9e897aeaf26e39f2606c9919bbbcf3f8f18a2957108460405161141591815260200190565b60405180910390a150505050565b60606014826040516114359190613a9f565b908152604080519182900360209081018320805480830285018301909352828452919083018282801561148757602002820191906000526020600020905b815481526020019060010190808311611473575b50505050509050919050565b600f546001600160a01b031633146115025760405162461bcd60e51b815260206004820152602c60248201527f596f75277265206e6f7420617574686f72697a656420746f20706572666f726d60448201526b103a3434b99030b1ba34b7b760a11b606482015260840161089b565b60135460019060ff16600381111561151c5761151c613d91565b81600381111561152e5761152e613d91565b1461158d5760405162461bcd60e51b815260206004820152602960248201527f54686520616374696f6e206973206e6f7420617661696c61626c65206174207460448201526868697320737461676560b81b606482015260840161089b565b60008281526002602052604090205482906001600160a01b03166115f35760405162461bcd60e51b815260206004820152601e60248201527f506c6561736520656e74657220612076616c6964207469636b65742069640000604482015260640161089b565b600c543260008181526012602052604090205490911161167b5760405162461bcd60e51b815260206004820152602360248201527f427579657220616c7265616479207265616368656420746865206d6178206c6960448201527f6d69740000000000000000000000000000000000000000000000000000000000606482015260840161089b565b60008481526011602052604090206005810154348111156117045760405162461bcd60e51b815260206004820152602560248201527f496e73756666696369656e742066756e647320746f207075726368617365207460448201527f69636b6574000000000000000000000000000000000000000000000000000000606482015260840161089b565b60008681526011602052604090206006015460ff16151560011461176a5760405162461bcd60e51b815260206004820152601160248201527f5469636b6574206e6f74206c6973746564000000000000000000000000000000604482015260640161089b565b81546007546001600160a01b039182169132911682146118a65783546001600160a01b031660009081526012602052604081208054916117a983613ce4565b90915550506007546040516001600160a01b039182169184169085156108fc029086906000818181858888f193505050501580156117eb573d6000803e3d6000fd5b50806001600160a01b03166108fc6064600d54876118099190613c82565b6118139190613c6e565b6040518115909202916000818181858888f1935050505015801561183b573d6000803e3d6000fd5b50816001600160a01b03166108fc6064600d54876118599190613c82565b6118639190613c6e565b61186d8734613ca1565b6118779190613ca1565b6040518115909202916000818181858888f1935050505015801561189f573d6000803e3d6000fd5b505061191e565b6040516001600160a01b0383169084156108fc029085906000818181858888f193505050501580156118dc573d6000803e3d6000fd5b506001600160a01b0381166108fc6118f48534613ca1565b6040518115909202916000818181858888f1935050505015801561191c573d6000803e3d6000fd5b505b32600090815260126020526040812080549161193983613d36565b909155505083546001600160a01b03191632908117855560068501805460ff19169055604080518a815260208101929092527f39015f100fdd4ccac11799dac563a5bc3c2362c8ae5e61832336015619ed26fd9101610d3c565b61114183838360405180602001604052806000815250612964565b6000818152600260205260408120546001600160a01b0316806108335760405162461bcd60e51b815260206004820152602960248201527f4552433732313a206f776e657220717565727920666f72206e6f6e657869737460448201527f656e7420746f6b656e0000000000000000000000000000000000000000000000606482015260840161089b565b60006001600160a01b038216611ab75760405162461bcd60e51b815260206004820152602a60248201527f4552433732313a2062616c616e636520717565727920666f7220746865207a6560448201527f726f206164647265737300000000000000000000000000000000000000000000606482015260840161089b565b506001600160a01b031660009081526003602052604090205490565b611b3160405180610120016040528060006001600160a01b0316815260200160608152602001600081526020016060815260200160008152602001600081526020016000151581526020016000151581526020016000151581525090565b6000828152601160209081526040918290208251610120810190935280546001600160a01b031683526001810180549192840191611b6e90613cfb565b80601f0160208091040260200160405190810160405280929190818152602001828054611b9a90613cfb565b8015611be75780601f10611bbc57610100808354040283529160200191611be7565b820191906000526020600020905b815481529060010190602001808311611bca57829003601f168201915b5050505050815260200160028201548152602001600382018054611c0a90613cfb565b80601f0160208091040260200160405190810160405280929190818152602001828054611c3690613cfb565b8015611c835780601f10611c5857610100808354040283529160200191611c83565b820191906000526020600020905b815481529060010190602001808311611c6657829003601f168201915b5050509183525050600482015460208201526005820154604082015260069091015460ff8082161515606084015261010082048116151560808401526201000090910416151560a09091015292915050565b60008181526002602052604090205481906001600160a01b0316611d3b5760405162461bcd60e51b815260206004820152601e60248201527f506c6561736520656e74657220612076616c6964207469636b65742069640000604482015260640161089b565b60008281526002602052604090205482906001600160a01b0316611da15760405162461bcd60e51b815260206004820152601e60248201527f506c6561736520656e74657220612076616c6964207469636b65742069640000604482015260640161089b565b6000818152601160205260409020546001600160a01b03163314611e1c5760405162461bcd60e51b815260206004820152602c60248201527f596f75277265206e6f7420617574686f72697a656420746f20706572666f726d60448201526b103a3434b99030b1ba34b7b760a11b606482015260840161089b565b60135460019060ff166003811115611e3657611e36613d91565b816003811115611e4857611e48613d91565b14611ea75760405162461bcd60e51b815260206004820152602960248201527f54686520616374696f6e206973206e6f7420617661696c61626c65206174207460448201526868697320737461676560b81b606482015260840161089b565b60008481526011602052604090206006015460ff161515600114611f0d5760405162461bcd60e51b815260206004820152601c60248201527f5469636b65742069732063757272656e746c7920756e6c697374656400000000604482015260640161089b565b60008481526011602052604090819020600601805460ff19169055600f549051633311b40560e01b8152306004820152602481018690526001600160a01b0390911690633311b40590604401600060405180830381600087803b158015611f7357600080fd5b505af1158015611f87573d6000803e3d6000fd5b505050507f510517eedc0f38cbd6c973c1853725b8219949b205d6769efdb072c94f8a8db18460405161141591815260200190565b6007546001600160a01b0316331461202f5760405162461bcd60e51b815260206004820152603060248201527f4f6e6c7920746865206576656e74206f7267616e697a65722063616e2070657260448201526f3337b936903a3434b99030b1ba34b7b760811b606482015260840161089b565b60135460009060ff16600381111561204957612049613d91565b81600381111561205b5761205b613d91565b146120ba5760405162461bcd60e51b815260206004820152602960248201527f54686520616374696f6e206973206e6f7420617661696c61626c65206174207460448201526868697320737461676560b81b606482015260840161089b565b601380546001919060ff191682805b021790555050565b6007546000906001600160a01b031633146121475760405162461bcd60e51b815260206004820152603060248201527f4f6e6c7920746865206576656e74206f7267616e697a65722063616e2070657260448201526f3337b936903a3434b99030b1ba34b7b760811b606482015260840161089b565b60135460009060ff16600381111561216157612161613d91565b81600381111561217357612173613d91565b146121d25760405162461bcd60e51b815260206004820152602960248201527f54686520616374696f6e206973206e6f7420617661696c61626c65206174207460448201526868697320737461676560b81b606482015260840161089b565b60408051610120810182526007546001600160a01b0316815260208101889052908101849052606081018690526080810185905260a08101859052600060c0820181905260e082018190526001610100830152600a8054908261223483613d36565b90915550600f54909150612251906001600160a01b0316826130ed565b6000818152601160209081526040909120835181546001600160a01b0319166001600160a01b03909116178155838201518051859361229792600185019291019061369e565b5060408201516002820155606082015180516122bd91600384019160209091019061369e565b506080820151600482015560a0820151600582015560c08201516006909101805460e08401516101009485015161ffff1990921693151561ff001916939093179215159093029190911762ff00001916620100009215159290920291909117905560405160149061232f908990613a9f565b90815260405160209181900382019020805460018101825560009182529190200181905561235d81876111dc565b6040518181527fdb0768e60aff03a7bcaff4bb349275ba861e576848c43c99418047adce10e8e59060200160405180910390a1979650505050505050565b606060018054610efc90613cfb565b606060108054610efc90613cfb565b6007546001600160a01b0316331461242c5760405162461bcd60e51b815260206004820152603060248201527f4f6e6c7920746865206576656e74206f7267616e697a65722063616e2070657260448201526f3337b936903a3434b99030b1ba34b7b760811b606482015260840161089b565b60135460009060ff16600381111561244657612446613d91565b81600381111561245857612458613d91565b146124b75760405162461bcd60e51b815260206004820152602960248201527f54686520616374696f6e206973206e6f7420617661696c61626c65206174207460448201526868697320737461676560b81b606482015260840161089b565b60005b828110156124e457806124cf878787846120d1565b505080806124dc90613d36565b9150506124ba565b505050505050565b6124f7338383613107565b5050565b600f546040517fc7ae74510000000000000000000000000000000000000000000000000000000081523060048201526001600160a01b039091169063c7ae745190602401600060405180830381600087803b15801561255957600080fd5b505af115801561256d573d6000803e3d6000fd5b50505050565b6007546001600160a01b031633146125e65760405162461bcd60e51b815260206004820152603060248201527f4f6e6c7920746865206576656e74206f7267616e697a65722063616e2070657260448201526f3337b936903a3434b99030b1ba34b7b760811b606482015260840161089b565b60135460019060ff16600381111561260057612600613d91565b81600381111561261257612612613d91565b146126715760405162461bcd60e51b815260206004820152602960248201527f54686520616374696f6e206973206e6f7420617661696c61626c65206174207460448201526868697320737461676560b81b606482015260840161089b565b6013805460ff1916600217905560005b600a548110156124f7576000818152601160205260409020546126af9030906001600160a01b031683611993565b806126b981613d36565b915050612681565b6007546001600160a01b031633146127345760405162461bcd60e51b815260206004820152603060248201527f4f6e6c7920746865206576656e74206f7267616e697a65722063616e2070657260448201526f3337b936903a3434b99030b1ba34b7b760811b606482015260840161089b565b60008181526002602052604090205481906001600160a01b031661279a5760405162461bcd60e51b815260206004820152601e60248201527f506c6561736520656e74657220612076616c6964207469636b65742069640000604482015260640161089b565b60135460019060ff1660038111156127b4576127b4613d91565b8160038111156127c6576127c6613d91565b146128255760405162461bcd60e51b815260206004820152602960248201527f54686520616374696f6e206973206e6f7420617661696c61626c65206174207460448201526868697320737461676560b81b606482015260840161089b565b60008381526011602052604090206006015462010000900460ff1615156001146128915760405162461bcd60e51b815260206004820152601f60248201527f546865207469636b657420686173206265656e20696e76616c69646174656400604482015260640161089b565b600083815260116020526040902060060154610100900460ff16156128f85760405162461bcd60e51b815260206004820152601c60248201527f5469636b657420697320616c726561647920636865636b656420696e00000000604482015260640161089b565b60008381526011602052604090819020600601805461ff001916610100179055517f92e8347ed886b5648123f23a12ac29a793e202f1f3541e8daa528d98d281bae7906129489085815260200190565b60405180910390a1505050565b606060068054610efc90613cfb565b61296e3383612e29565b6129e05760405162461bcd60e51b815260206004820152603160248201527f4552433732313a207472616e736665722063616c6c6572206973206e6f74206f60448201527f776e6572206e6f7220617070726f766564000000000000000000000000000000606482015260840161089b565b61256d848484846131d6565b6007546001600160a01b03163314612a5f5760405162461bcd60e51b815260206004820152603060248201527f4f6e6c7920746865206576656e74206f7267616e697a65722063616e2070657260448201526f3337b936903a3434b99030b1ba34b7b760811b606482015260840161089b565b60008181526002602052604090205481906001600160a01b0316612ac55760405162461bcd60e51b815260206004820152601e60248201527f506c6561736520656e74657220612076616c6964207469636b65742069640000604482015260640161089b565b60008281526011602052604090206006015462010000900460ff161515600114612b575760405162461bcd60e51b815260206004820152602760248201527f546865207469636b65742068617320616c7265616479206265656e20696e766160448201527f6c69646174656400000000000000000000000000000000000000000000000000606482015260840161089b565b60008281526011602052604090819020600601805462ff000019169055517f32053cb7b3e5de5d14d71e2296b201d6f61d96c218f46a1bb6c3cb7e5108247890610ee19084815260200190565b6000818152600260205260409020546060906001600160a01b0316612c315760405162461bcd60e51b815260206004820152602f60248201527f4552433732314d657461646174613a2055524920717565727920666f72206e6f60448201527f6e6578697374656e7420746f6b656e0000000000000000000000000000000000606482015260840161089b565b6000612c4860408051602081019091526000815290565b90506000815111612c685760405180602001604052806000815250612c93565b80612c7284613254565b604051602001612c83929190613abb565b6040516020818303038152906040525b9392505050565b606060088054610efc90613cfb565b6007546001600160a01b03163314612d1c5760405162461bcd60e51b815260206004820152603060248201527f4f6e6c7920746865206576656e74206f7267616e697a65722063616e2070657260448201526f3337b936903a3434b99030b1ba34b7b760811b606482015260840161089b565b60135460029060ff166003811115612d3657612d36613d91565b816003811115612d4857612d48613d91565b14612da75760405162461bcd60e51b815260206004820152602960248201527f54686520616374696f6e206973206e6f7420617661696c61626c65206174207460448201526868697320737461676560b81b606482015260840161089b565b601380546003919060ff19166001836120c9565b600081815260046020526040902080546001600160a01b0319166001600160a01b0384169081179091558190612df0826119ae565b6001600160a01b03167f8c5be1e5ebec7d5bd14f71427d1e84f3dd0314c0f7b2291e5b200ac8c7c3b92560405160405180910390a45050565b6000818152600260205260408120546001600160a01b0316612ea25760405162461bcd60e51b815260206004820152602c60248201527f4552433732313a206f70657261746f7220717565727920666f72206e6f6e657860448201526b34b9ba32b73a103a37b5b2b760a11b606482015260840161089b565b6000612ead836119ae565b9050806001600160a01b0316846001600160a01b03161480612ee85750836001600160a01b0316612edd84610f7f565b6001600160a01b0316145b80612f1857506001600160a01b0380821660009081526005602090815260408083209388168352929052205460ff165b949350505050565b826001600160a01b0316612f33826119ae565b6001600160a01b031614612faf5760405162461bcd60e51b815260206004820152602560248201527f4552433732313a207472616e736665722066726f6d20696e636f72726563742060448201527f6f776e6572000000000000000000000000000000000000000000000000000000606482015260840161089b565b6001600160a01b03821661302a5760405162461bcd60e51b8152602060048201526024808201527f4552433732313a207472616e7366657220746f20746865207a65726f2061646460448201527f7265737300000000000000000000000000000000000000000000000000000000606482015260840161089b565b613035600082612dbb565b6001600160a01b038316600090815260036020526040812080546001929061305e908490613ca1565b90915550506001600160a01b038216600090815260036020526040812080546001929061308c908490613c56565b909155505060008181526002602052604080822080546001600160a01b0319166001600160a01b0386811691821790925591518493918716917fddf252ad1be2c89b69c2b068fc378daa952ba7f163c4a11628f55a4df523b3ef91a4505050565b6124f7828260405180602001604052806000815250613386565b816001600160a01b0316836001600160a01b031614156131695760405162461bcd60e51b815260206004820152601960248201527f4552433732313a20617070726f766520746f2063616c6c657200000000000000604482015260640161089b565b6001600160a01b03838116600081815260056020908152604080832094871680845294825291829020805460ff191686151590811790915591519182527f17307eab39ab6107e8899845ad3d59bd9653f200f220920489ca2b5937696c31910160405180910390a3505050565b6131e1848484612f20565b6131ed84848484613404565b61256d5760405162461bcd60e51b815260206004820152603260248201527f4552433732313a207472616e7366657220746f206e6f6e20455243373231526560448201527131b2b4bb32b91034b6b83632b6b2b73a32b960711b606482015260840161089b565b60608161329457505060408051808201909152600181527f3000000000000000000000000000000000000000000000000000000000000000602082015290565b8160005b81156132be57806132a881613d36565b91506132b79050600a83613c6e565b9150613298565b60008167ffffffffffffffff8111156132d9576132d9613dbd565b6040519080825280601f01601f191660200182016040528015613303576020820181803683370190505b5090505b8415612f1857613318600183613ca1565b9150613325600a86613d51565b613330906030613c56565b60f81b81838151811061334557613345613da7565b60200101907effffffffffffffffffffffffffffffffffffffffffffffffffffffffffffff1916908160001a90535061337f600a86613c6e565b9450613307565b613390838361355c565b61339d6000848484613404565b6111415760405162461bcd60e51b815260206004820152603260248201527f4552433732313a207472616e7366657220746f206e6f6e20455243373231526560448201527131b2b4bb32b91034b6b83632b6b2b73a32b960711b606482015260840161089b565b60006001600160a01b0384163b1561355157604051630a85bd0160e11b81526001600160a01b0385169063150b7a0290613448903390899088908890600401613aea565b602060405180830381600087803b15801561346257600080fd5b505af1925050508015613492575060408051601f3d908101601f1916820190925261348f91810190613972565b60015b613537573d8080156134c0576040519150601f19603f3d011682016040523d82523d6000602084013e6134c5565b606091505b50805161352f5760405162461bcd60e51b815260206004820152603260248201527f4552433732313a207472616e7366657220746f206e6f6e20455243373231526560448201527131b2b4bb32b91034b6b83632b6b2b73a32b960711b606482015260840161089b565b805181602001fd5b6001600160e01b031916630a85bd0160e11b149050612f18565b506001949350505050565b6001600160a01b0382166135b25760405162461bcd60e51b815260206004820181905260248201527f4552433732313a206d696e7420746f20746865207a65726f2061646472657373604482015260640161089b565b6000818152600260205260409020546001600160a01b0316156136175760405162461bcd60e51b815260206004820152601c60248201527f4552433732313a20746f6b656e20616c7265616479206d696e74656400000000604482015260640161089b565b6001600160a01b0382166000908152600360205260408120805460019290613640908490613c56565b909155505060008181526002602052604080822080546001600160a01b0319166001600160a01b03861690811790915590518392907fddf252ad1be2c89b69c2b068fc378daa952ba7f163c4a11628f55a4df523b3ef908290a45050565b8280546136aa90613cfb565b90600052602060002090601f0160209004810192826136cc5760008555613712565b82601f106136e557805160ff1916838001178555613712565b82800160010185558215613712579182015b828111156137125782518255916020019190600101906136f7565b5061371e929150613722565b5090565b5b8082111561371e5760008155600101613723565b600067ffffffffffffffff8084111561375257613752613dbd565b604051601f8501601f19908116603f0116810190828211818310171561377a5761377a613dbd565b8160405280935085815286868601111561379357600080fd5b858560208301376000602087830101525050509392505050565b80356001600160a01b03811681146137c457600080fd5b919050565b600082601f8301126137da57600080fd5b612c9383833560208501613737565b6000602082840312156137fb57600080fd5b612c93826137ad565b6000806040838503121561381757600080fd5b613820836137ad565b915061382e602084016137ad565b90509250929050565b60008060006060848603121561384c57600080fd5b613855846137ad565b9250613863602085016137ad565b9150604084013590509250925092565b6000806000806080858703121561388957600080fd5b613892856137ad565b93506138a0602086016137ad565b925060408501359150606085013567ffffffffffffffff8111156138c357600080fd5b8501601f810187136138d457600080fd5b6138e387823560208401613737565b91505092959194509250565b6000806040838503121561390257600080fd5b61390b836137ad565b91506020830135801515811461392057600080fd5b809150509250929050565b6000806040838503121561393e57600080fd5b613947836137ad565b946020939093013593505050565b60006020828403121561396757600080fd5b8135612c9381613dd3565b60006020828403121561398457600080fd5b8151612c9381613dd3565b6000602082840312156139a157600080fd5b813567ffffffffffffffff8111156139b857600080fd5b612f18848285016137c9565b600080600080608085870312156139da57600080fd5b843567ffffffffffffffff808211156139f257600080fd5b6139fe888389016137c9565b95506020870135915080821115613a1457600080fd5b50613a21878288016137c9565b949794965050505060408301359260600135919050565b600060208284031215613a4a57600080fd5b5035919050565b60008060408385031215613a6457600080fd5b50508035926020909101359150565b60008151808452613a8b816020860160208601613cb8565b601f01601f19169290920160200192915050565b60008251613ab1818460208701613cb8565b9190910192915050565b60008351613acd818460208801613cb8565b835190830190613ae1818360208801613cb8565b01949350505050565b60006001600160a01b03808716835280861660208401525083604083015260806060830152613b1c6080830184613a73565b9695505050505050565b6020808252825182820181905260009190848201906040850190845b81811015613b5e57835183529284019291840191600101613b42565b50909695505050505050565b6020810160048310613b8c57634e487b7160e01b600052602160045260246000fd5b91905290565b602081526000612c936020830184613a73565b60208152613bbf6020820183516001600160a01b03169052565b60006020830151610120806040850152613bdd610140850183613a73565b9150604085015160608501526060850151601f19858403016080860152613c048382613a73565b925050608085015160a085015260a085015160c085015260c0850151613c2e60e086018215159052565b5060e0850151610100613c448187018315159052565b90950151151593019290925250919050565b60008219821115613c6957613c69613d65565b500190565b600082613c7d57613c7d613d7b565b500490565b6000816000190483118215151615613c9c57613c9c613d65565b500290565b600082821015613cb357613cb3613d65565b500390565b60005b83811015613cd3578181015183820152602001613cbb565b8381111561256d5750506000910152565b600081613cf357613cf3613d65565b506000190190565b600181811c90821680613d0f57607f821691505b60208210811415613d3057634e487b7160e01b600052602260045260246000fd5b50919050565b6000600019821415613d4a57613d4a613d65565b5060010190565b600082613d6057613d60613d7b565b500690565b634e487b7160e01b600052601160045260246000fd5b634e487b7160e01b600052601260045260246000fd5b634e487b7160e01b600052602160045260246000fd5b634e487b7160e01b600052603260045260246000fd5b634e487b7160e01b600052604160045260246000fd5b6001600160e01b031981168114613de957600080fd5b5056fea264697066735822122069fe2f4daff8f845a70710b5360390b7ca798e8b7d8869656f84339433ddc68464736f6c63430008070033",
  "immutableReferences": {},
  "source": "// SPDX-License-Identifier: MIT\r\npragma solidity ^0.8.0;\r\nimport \"@openzeppelin/contracts/token/ERC721/ERC721.sol\";\r\nimport \"./MarketPlace.sol\";\r\n\r\ncontract Event is ERC721 {\r\n    string eventName;\r\n    address eventOrganizer;\r\n    string location;\r\n    string company;\r\n    uint256 numTickets = 0;\r\n    uint256 resaleCeiling;\r\n    uint256 maxTicketsPerAddress;\r\n    uint256 commissionFee;\r\n    uint256 eventDate;\r\n    MarketPlace marketPlace;\r\n    string ticketImageUrl;\r\n    mapping(uint256 => Ticket) IDToTicket;\r\n    mapping(address => uint256) ticketCountPerOwner;\r\n    EventStage currentStage;\r\n    mapping(string => uint256[]) typeToTicketIds;\r\n\r\n    enum EventStage {\r\n        PRESALES,\r\n        SALES,\r\n        DURINGEVENT,\r\n        POSTEVENT\r\n    }\r\n\r\n    event ticketCreated(uint256 tokenId);\r\n    event ticketBoughtDuringPostEvent(uint256 tokenId);\r\n    event ticketBoughtDuringSales(uint256 tokenId, address newOwner);\r\n    event ticketListed(uint256 tokenId);\r\n    event ticketUnlisted(uint256 tokenId);\r\n    event ticketCheckedIn(uint256 tokenId);\r\n    event ticketInvalidated(uint256 tokenId);\r\n    event ticketValidated(uint256 tokenId);\r\n\r\n    modifier requiredEventStage(EventStage stage) {\r\n        require(\r\n            stage == currentStage,\r\n            \"The action is not available at this stage\"\r\n        );\r\n        _;\r\n    }\r\n\r\n    modifier onlyTicketOwner(uint256 tokenId) {\r\n        require(_exists(tokenId), \"Please enter a valid ticket id\");\r\n        require(\r\n            IDToTicket[tokenId]._ticketOwner == msg.sender,\r\n            \"You're not authorized to perform this action\"\r\n        );\r\n        _;\r\n    }\r\n\r\n    modifier onlyEventOrganizer() {\r\n        require(\r\n            msg.sender == eventOrganizer,\r\n            \"Only the event organizer can perform this action\"\r\n        );\r\n        _;\r\n    }\r\n\r\n    modifier onlyMarketPlace() {\r\n        require(\r\n            msg.sender == address(marketPlace),\r\n            \"You're not authorized to perform this action\"\r\n        );\r\n        _;\r\n    }\r\n\r\n    modifier requireValidTicket(uint256 tokenId) {\r\n        require(_exists(tokenId), \"Please enter a valid ticket id\");\r\n        _;\r\n    }\r\n\r\n    modifier addressCanPurchaseMore(address buyer) {\r\n        require(\r\n            ticketCountPerOwner[buyer] < maxTicketsPerAddress,\r\n            \"Buyer already reached the max limit\"\r\n        );\r\n        _;\r\n    }\r\n\r\n    struct Ticket {\r\n        address _ticketOwner;\r\n        string _seat;\r\n        uint256 _seatID;\r\n        string _type;\r\n        uint256 creationPrice;\r\n        uint256 listingPrice;\r\n        bool isListed;\r\n        bool isCheckedIn;\r\n        bool isValid;\r\n    }\r\n\r\n    constructor(\r\n        string memory _eventName,\r\n        string memory _symbol,\r\n        string memory _location,\r\n        string memory _company,\r\n        uint256 _resaleCeiling,\r\n        uint256 _maxTicketsPerAddress,\r\n        uint256 _commissionFee,\r\n        //uint256 _eventDate,\r\n        MarketPlace _marketPlace\r\n    ) ERC721(_eventName, _symbol) {\r\n        eventName = _eventName;\r\n        eventOrganizer = msg.sender;\r\n        location = _location;\r\n        company = _company;\r\n        numTickets = 0;\r\n        resaleCeiling = _resaleCeiling;\r\n        maxTicketsPerAddress = _maxTicketsPerAddress;\r\n        commissionFee = _commissionFee;\r\n        //eventDate = _eventDate;\r\n        currentStage = EventStage.PRESALES;\r\n        marketPlace = _marketPlace;\r\n    }\r\n\r\n    function addEventToMarketplace() public {\r\n        marketPlace.addEvent(address(this));\r\n    }\r\n\r\n    function createTicket(\r\n        string memory _seat,\r\n        string memory _type,\r\n        uint256 _creationPrice,\r\n        uint256 _seatID\r\n    )\r\n        public\r\n        onlyEventOrganizer\r\n        requiredEventStage(EventStage.PRESALES)\r\n        returns (uint256)\r\n    {\r\n        Ticket memory newTicket = Ticket(\r\n            eventOrganizer,\r\n            _seat,\r\n            _seatID,\r\n            _type,\r\n            _creationPrice,\r\n            _creationPrice, // initial listing price is the creation price\r\n            false, //isListed set to false\r\n            false,\r\n            true\r\n        );\r\n        uint256 newTicketId = numTickets++;\r\n        _safeMint(address(marketPlace), newTicketId);\r\n        IDToTicket[newTicketId] = newTicket;\r\n        typeToTicketIds[_type].push(newTicketId);\r\n        listTicket(newTicketId, _creationPrice);\r\n        emit ticketCreated(newTicketId);\r\n        return newTicketId;\r\n    }\r\n\r\n    function buyTicketsDuringPostEvent(uint256 tokenId)\r\n        public\r\n        payable\r\n        requireValidTicket(tokenId)\r\n        requiredEventStage(EventStage.POSTEVENT)\r\n    {\r\n        Ticket memory ticketToBuy = IDToTicket[tokenId];\r\n        require(ticketToBuy.isListed == true, \"Cannot buy, Ticket not lised\");\r\n        uint256 listedPrice = ticketToBuy.listingPrice;\r\n        require(\r\n            listedPrice * (100 + commissionFee) / 100 <= msg.value,\r\n            \"Insufficient ETH!\"\r\n        );\r\n        // ticket count does not matter any more after the event\r\n        // transfer ticket to buyer\r\n        safeTransferFrom(ticketToBuy._ticketOwner, msg.sender, tokenId);\r\n\r\n        // transfer money to seller\r\n        address payable originalOwner = payable(\r\n            address(uint160(ticketToBuy._ticketOwner))\r\n        );\r\n        originalOwner.transfer(listedPrice);\r\n\r\n        //transfer comission fee to event organiser\r\n        address payable organiser = payable(address(uint160(eventOrganizer)));\r\n\r\n        organiser.transfer((listedPrice * commissionFee) / 100);\r\n\r\n        address payable buyer = payable(address(uint160(tx.origin)));\r\n\r\n        buyer.transfer(\r\n            msg.value - listedPrice - ((listedPrice * commissionFee) / 100)\r\n        );\r\n\r\n        ticketToBuy._ticketOwner = msg.sender;\r\n        ticketToBuy.isListed = false;\r\n\r\n        marketPlace.unlistTicket(address(this), tokenId);\r\n        emit ticketBoughtDuringPostEvent(tokenId);\r\n    }\r\n\r\n    function createTicketInBulk(\r\n        string memory _seat,\r\n        string memory _type,\r\n        uint256 _creationPrice,\r\n        uint256 _numOfTickets\r\n    ) public onlyEventOrganizer requiredEventStage(EventStage.PRESALES) {\r\n        for (uint256 i = 0; i < _numOfTickets; i++) {\r\n            uint256 currentSeatID = i;\r\n\r\n            createTicket(_seat, _type, _creationPrice, currentSeatID);\r\n        }\r\n    }\r\n\r\n    function buyTicketsDuringSales(uint256 tokenId)\r\n        public\r\n        payable\r\n        onlyMarketPlace\r\n        requiredEventStage(EventStage.SALES)\r\n        requireValidTicket(tokenId)\r\n        addressCanPurchaseMore(tx.origin)\r\n    {\r\n        Ticket storage ticket = IDToTicket[tokenId];\r\n        uint256 payableAmount = ticket.listingPrice;\r\n        require(\r\n            msg.value >= payableAmount,\r\n            \"Insufficient funds to purchase ticket\"\r\n        );\r\n        require(IDToTicket[tokenId].isListed == true, \"Ticket not listed\");\r\n\r\n        address payable reseller = payable(\r\n            address(uint160(ticket._ticketOwner))\r\n        );\r\n        address payable buyer = payable(address(uint160(tx.origin)));\r\n        // ticket was resold\r\n        if (ticket._ticketOwner != eventOrganizer) {\r\n            ticketCountPerOwner[ticket._ticketOwner]--;\r\n            address payable eventOrganiser = payable(\r\n                address(uint160(eventOrganizer))\r\n            );\r\n            reseller.transfer(payableAmount);\r\n            eventOrganiser.transfer((payableAmount * commissionFee) / 100);\r\n            buyer.transfer(\r\n                msg.value -\r\n                    payableAmount -\r\n                    ((payableAmount * commissionFee) / 100)\r\n            );\r\n        } else {\r\n            // no commission\r\n            reseller.transfer(payableAmount);\r\n            buyer.transfer(msg.value - payableAmount);\r\n        }\r\n\r\n        // tx.origin is used since the original buyer calls this function via market place contract\r\n        ticketCountPerOwner[tx.origin]++;\r\n\r\n        // can implement returning of balance if we want.\r\n        ticket._ticketOwner = tx.origin;\r\n        ticket.isListed = false;\r\n        emit ticketBoughtDuringSales(tokenId, tx.origin);\r\n    }\r\n\r\n    // only need to list ticket during sales period\r\n    // after sales become post sales the ticket can be sold as an NFT\r\n    function listTicket(uint256 tokenId, uint256 _newListingPrice)\r\n        public\r\n        requireValidTicket(tokenId)\r\n    // requiredEventStage(EventStage.SALES)\r\n    {\r\n        require(\r\n            IDToTicket[tokenId].isListed == false,\r\n            \"Ticket is currently listed\"\r\n        );\r\n\r\n        uint256 creationPrice = IDToTicket[tokenId].creationPrice;\r\n\r\n        require(\r\n            _newListingPrice <= creationPrice * (resaleCeiling + 100 / 100),\r\n            \"Resale price cannot be greater than ceiling\"\r\n        );\r\n\r\n        IDToTicket[tokenId].isListed = true;\r\n        marketPlace.listTicket(address(this), tokenId, _newListingPrice);\r\n        emit ticketListed(tokenId);\r\n    }\r\n\r\n    function unlistTicket(uint256 tokenId)\r\n        public\r\n        requireValidTicket(tokenId)\r\n        onlyTicketOwner(tokenId)\r\n        requiredEventStage(EventStage.SALES)\r\n    {\r\n        require(\r\n            IDToTicket[tokenId].isListed == true,\r\n            \"Ticket is currently unlisted\"\r\n        );\r\n        IDToTicket[tokenId].isListed = false;\r\n        marketPlace.unlistTicket(address(this), tokenId);\r\n        emit ticketUnlisted(tokenId);\r\n    }\r\n\r\n    //////////////////////////////////////////////////////////\r\n    // Event Day Functions\r\n    function checkInTicket(uint256 tokenId)\r\n        public\r\n        onlyEventOrganizer\r\n        requireValidTicket(tokenId)\r\n        requiredEventStage(EventStage.SALES)\r\n    {\r\n        require(\r\n            IDToTicket[tokenId].isValid == true,\r\n            \"The ticket has been invalidated\"\r\n        );\r\n        require(\r\n            IDToTicket[tokenId].isCheckedIn == false,\r\n            \"Ticket is already checked in\"\r\n        );\r\n        IDToTicket[tokenId].isCheckedIn = true;\r\n        emit ticketCheckedIn(tokenId);\r\n    }\r\n\r\n    //////////////////////////////////////////////////////////\r\n    // Administration Functions\r\n    function invalidateTicket(uint256 tokenId)\r\n        public\r\n        onlyEventOrganizer\r\n        requireValidTicket(tokenId)\r\n    {\r\n        require(\r\n            IDToTicket[tokenId].isValid == true,\r\n            \"The ticket has already been invalidated\"\r\n        );\r\n\r\n        IDToTicket[tokenId].isValid = false;\r\n        emit ticketInvalidated(tokenId);\r\n    }\r\n\r\n    function validateTicket(uint256 tokenId)\r\n        public\r\n        onlyEventOrganizer\r\n        requireValidTicket(tokenId)\r\n    {\r\n        require(\r\n            IDToTicket[tokenId].isValid == false,\r\n            \"The ticket is already valid\"\r\n        );\r\n\r\n        IDToTicket[tokenId].isValid = true;\r\n        emit ticketValidated(tokenId);\r\n    }\r\n\r\n    //////////////////////////////////////////////////////\r\n    // state changing functions\r\n\r\n    // presalse --> sales\r\n    function changeStateToSales()\r\n        public\r\n        onlyEventOrganizer\r\n        requiredEventStage(EventStage.PRESALES)\r\n    {\r\n        currentStage = EventStage.SALES;\r\n    }\r\n\r\n    // sales --> during event\r\n    function changeStateToDuring()\r\n        public\r\n        onlyEventOrganizer\r\n        requiredEventStage(EventStage.SALES)\r\n    {\r\n        currentStage = EventStage.DURINGEVENT;\r\n        // transfer all tickets to their original owner\r\n        for (uint256 i = 0; i < numTickets; i++) {\r\n            safeTransferFrom(address(this), IDToTicket[i]._ticketOwner, i);\r\n        }\r\n    }\r\n\r\n    // during event --> post event\r\n    // called by the token owner\r\n    function changeStateToPostEvent()\r\n        public\r\n        onlyEventOrganizer\r\n        requiredEventStage(EventStage.DURINGEVENT)\r\n    {\r\n        currentStage = EventStage.POSTEVENT;\r\n    }\r\n\r\n    // getters\r\n    function getTicket(uint256 ticketId) public view returns (Ticket memory) {\r\n        return IDToTicket[ticketId];\r\n    }\r\n\r\n    function getEventName() public view returns (string memory) {\r\n        return eventName;\r\n    }\r\n\r\n    function getEventOrganizer() public view returns (address) {\r\n        return eventOrganizer;\r\n    }\r\n\r\n    function getLocation() public view returns (string memory) {\r\n        return location;\r\n    }\r\n\r\n    function getCompany() public view returns (string memory) {\r\n        return company;\r\n    }\r\n\r\n    function getTotalTickets() public view returns (uint256) {\r\n        return numTickets;\r\n    }\r\n\r\n    function getMaxTicksPerAddress() public view returns (uint256) {\r\n        return maxTicketsPerAddress;\r\n    }\r\n\r\n    function getComissionFee() public view returns (uint256) {\r\n        return commissionFee;\r\n    }\r\n\r\n    function getEventDate() public view returns (uint256) {\r\n        return eventDate;\r\n    }\r\n\r\n    function getTicketImageUrl() public view returns (string memory) {\r\n        return ticketImageUrl;\r\n    }\r\n\r\n    function getTicketsListForEventType(string memory _type)\r\n        public\r\n        view\r\n        returns (uint256[] memory)\r\n    {\r\n        return typeToTicketIds[_type];\r\n    }\r\n\r\n    function getCurrentTicketCount(address countAddress) public view returns (uint256) {\r\n        return ticketCountPerOwner[countAddress];\r\n    }\r\n\r\n    function getCurrentEventStage() public view returns (EventStage) {\r\n        return currentStage;\r\n    }\r\n\r\n    function getEventContractAddress() public view returns (address) {\r\n        return address(this);\r\n    }\r\n}\r\n",
  "sourcePath": "C:\\Users\\choow\\Desktop\\NUS\\NUS School of Computing\\AY2021-22 Semester 2\\IS4302 - Blockchain and Distributed ledger Technologies\\SmartTix\\contracts\\Event.sol",
  "compiler": {
    "name": "solc",
    "version": "0.8.7+commit.e28d00a7.Emscripten.clang"
  },
  "schemaVersion": "3.4.7",
  "updatedAt": "2022-04-11T05:01:13.831Z",
  "networkType": "ethereum",
  "devdoc": {
    "kind": "dev",
    "methods": {
      "approve(address,uint256)": {
        "details": "See {IERC721-approve}."
      },
      "balanceOf(address)": {
        "details": "See {IERC721-balanceOf}."
      },
      "getApproved(uint256)": {
        "details": "See {IERC721-getApproved}."
      },
      "isApprovedForAll(address,address)": {
        "details": "See {IERC721-isApprovedForAll}."
      },
      "name()": {
        "details": "See {IERC721Metadata-name}."
      },
      "ownerOf(uint256)": {
        "details": "See {IERC721-ownerOf}."
      },
      "safeTransferFrom(address,address,uint256)": {
        "details": "See {IERC721-safeTransferFrom}."
      },
      "safeTransferFrom(address,address,uint256,bytes)": {
        "details": "See {IERC721-safeTransferFrom}."
      },
      "setApprovalForAll(address,bool)": {
        "details": "See {IERC721-setApprovalForAll}."
      },
      "supportsInterface(bytes4)": {
        "details": "See {IERC165-supportsInterface}."
      },
      "symbol()": {
        "details": "See {IERC721Metadata-symbol}."
      },
      "tokenURI(uint256)": {
        "details": "See {IERC721Metadata-tokenURI}."
      },
      "transferFrom(address,address,uint256)": {
        "details": "See {IERC721-transferFrom}."
      }
    },
    "version": 1
  },
  "userdoc": {
    "kind": "user",
    "methods": {},
    "version": 1
  }
}