{
  "contractName": "Event",
  "abi": [
    {
      "inputs": [
        {
          "internalType": "string",
          "name": "_eventName",
          "type": "string"
        },
        {
          "internalType": "string",
          "name": "_symbol",
          "type": "string"
        },
        {
          "internalType": "string",
          "name": "_location",
          "type": "string"
        },
        {
          "internalType": "string",
          "name": "_company",
          "type": "string"
        },
        {
          "internalType": "uint256",
          "name": "_resaleCeiling",
          "type": "uint256"
        },
        {
          "internalType": "uint256",
          "name": "_maxTicketsPerAddress",
          "type": "uint256"
        },
        {
          "internalType": "uint256",
          "name": "_commissionFee",
          "type": "uint256"
        },
        {
          "internalType": "contract MarketPlace",
          "name": "_marketPlace",
          "type": "address"
        }
      ],
      "stateMutability": "nonpayable",
      "type": "constructor"
    },
    {
      "anonymous": false,
      "inputs": [
        {
          "indexed": true,
          "internalType": "address",
          "name": "owner",
          "type": "address"
        },
        {
          "indexed": true,
          "internalType": "address",
          "name": "approved",
          "type": "address"
        },
        {
          "indexed": true,
          "internalType": "uint256",
          "name": "tokenId",
          "type": "uint256"
        }
      ],
      "name": "Approval",
      "type": "event"
    },
    {
      "anonymous": false,
      "inputs": [
        {
          "indexed": true,
          "internalType": "address",
          "name": "owner",
          "type": "address"
        },
        {
          "indexed": true,
          "internalType": "address",
          "name": "operator",
          "type": "address"
        },
        {
          "indexed": false,
          "internalType": "bool",
          "name": "approved",
          "type": "bool"
        }
      ],
      "name": "ApprovalForAll",
      "type": "event"
    },
    {
      "anonymous": false,
      "inputs": [
        {
          "indexed": true,
          "internalType": "address",
          "name": "from",
          "type": "address"
        },
        {
          "indexed": true,
          "internalType": "address",
          "name": "to",
          "type": "address"
        },
        {
          "indexed": true,
          "internalType": "uint256",
          "name": "tokenId",
          "type": "uint256"
        }
      ],
      "name": "Transfer",
      "type": "event"
    },
    {
      "anonymous": false,
      "inputs": [
        {
          "indexed": false,
          "internalType": "uint256",
          "name": "tokenId",
          "type": "uint256"
        }
      ],
      "name": "ticketBoughtDuringPostEvent",
      "type": "event"
    },
    {
      "anonymous": false,
      "inputs": [
        {
          "indexed": false,
          "internalType": "uint256",
          "name": "tokenId",
          "type": "uint256"
        },
        {
          "indexed": false,
          "internalType": "address",
          "name": "newOwner",
          "type": "address"
        }
      ],
      "name": "ticketBoughtDuringSales",
      "type": "event"
    },
    {
      "anonymous": false,
      "inputs": [
        {
          "indexed": false,
          "internalType": "uint256",
          "name": "tokenId",
          "type": "uint256"
        }
      ],
      "name": "ticketCheckedIn",
      "type": "event"
    },
    {
      "anonymous": false,
      "inputs": [
        {
          "indexed": false,
          "internalType": "uint256",
          "name": "tokenId",
          "type": "uint256"
        },
        {
          "indexed": false,
          "internalType": "uint256",
          "name": "creationPrice",
          "type": "uint256"
        }
      ],
      "name": "ticketCreated",
      "type": "event"
    },
    {
      "anonymous": false,
      "inputs": [
        {
          "indexed": false,
          "internalType": "uint256",
          "name": "tokenId",
          "type": "uint256"
        }
      ],
      "name": "ticketInvalidated",
      "type": "event"
    },
    {
      "anonymous": false,
      "inputs": [
        {
          "indexed": false,
          "internalType": "uint256",
          "name": "tokenId",
          "type": "uint256"
        },
        {
          "indexed": false,
          "internalType": "uint256",
          "name": "_newListingPrice",
          "type": "uint256"
        }
      ],
      "name": "ticketListed",
      "type": "event"
    },
    {
      "anonymous": false,
      "inputs": [
        {
          "indexed": false,
          "internalType": "uint256",
          "name": "tokenId",
          "type": "uint256"
        }
      ],
      "name": "ticketUnlisted",
      "type": "event"
    },
    {
      "anonymous": false,
      "inputs": [
        {
          "indexed": false,
          "internalType": "uint256",
          "name": "tokenId",
          "type": "uint256"
        }
      ],
      "name": "ticketValidated",
      "type": "event"
    },
    {
      "inputs": [
        {
          "internalType": "address",
          "name": "to",
          "type": "address"
        },
        {
          "internalType": "uint256",
          "name": "tokenId",
          "type": "uint256"
        }
      ],
      "name": "approve",
      "outputs": [],
      "stateMutability": "nonpayable",
      "type": "function"
    },
    {
      "inputs": [
        {
          "internalType": "address",
          "name": "owner",
          "type": "address"
        }
      ],
      "name": "balanceOf",
      "outputs": [
        {
          "internalType": "uint256",
          "name": "",
          "type": "uint256"
        }
      ],
      "stateMutability": "view",
      "type": "function"
    },
    {
      "inputs": [
        {
          "internalType": "uint256",
          "name": "tokenId",
          "type": "uint256"
        }
      ],
      "name": "getApproved",
      "outputs": [
        {
          "internalType": "address",
          "name": "",
          "type": "address"
        }
      ],
      "stateMutability": "view",
      "type": "function"
    },
    {
      "inputs": [
        {
          "internalType": "address",
          "name": "owner",
          "type": "address"
        },
        {
          "internalType": "address",
          "name": "operator",
          "type": "address"
        }
      ],
      "name": "isApprovedForAll",
      "outputs": [
        {
          "internalType": "bool",
          "name": "",
          "type": "bool"
        }
      ],
      "stateMutability": "view",
      "type": "function"
    },
    {
      "inputs": [],
      "name": "name",
      "outputs": [
        {
          "internalType": "string",
          "name": "",
          "type": "string"
        }
      ],
      "stateMutability": "view",
      "type": "function"
    },
    {
      "inputs": [
        {
          "internalType": "uint256",
          "name": "tokenId",
          "type": "uint256"
        }
      ],
      "name": "ownerOf",
      "outputs": [
        {
          "internalType": "address",
          "name": "",
          "type": "address"
        }
      ],
      "stateMutability": "view",
      "type": "function"
    },
    {
      "inputs": [
        {
          "internalType": "address",
          "name": "from",
          "type": "address"
        },
        {
          "internalType": "address",
          "name": "to",
          "type": "address"
        },
        {
          "internalType": "uint256",
          "name": "tokenId",
          "type": "uint256"
        }
      ],
      "name": "safeTransferFrom",
      "outputs": [],
      "stateMutability": "nonpayable",
      "type": "function"
    },
    {
      "inputs": [
        {
          "internalType": "address",
          "name": "from",
          "type": "address"
        },
        {
          "internalType": "address",
          "name": "to",
          "type": "address"
        },
        {
          "internalType": "uint256",
          "name": "tokenId",
          "type": "uint256"
        },
        {
          "internalType": "bytes",
          "name": "_data",
          "type": "bytes"
        }
      ],
      "name": "safeTransferFrom",
      "outputs": [],
      "stateMutability": "nonpayable",
      "type": "function"
    },
    {
      "inputs": [
        {
          "internalType": "address",
          "name": "operator",
          "type": "address"
        },
        {
          "internalType": "bool",
          "name": "approved",
          "type": "bool"
        }
      ],
      "name": "setApprovalForAll",
      "outputs": [],
      "stateMutability": "nonpayable",
      "type": "function"
    },
    {
      "inputs": [
        {
          "internalType": "bytes4",
          "name": "interfaceId",
          "type": "bytes4"
        }
      ],
      "name": "supportsInterface",
      "outputs": [
        {
          "internalType": "bool",
          "name": "",
          "type": "bool"
        }
      ],
      "stateMutability": "view",
      "type": "function"
    },
    {
      "inputs": [],
      "name": "symbol",
      "outputs": [
        {
          "internalType": "string",
          "name": "",
          "type": "string"
        }
      ],
      "stateMutability": "view",
      "type": "function"
    },
    {
      "inputs": [
        {
          "internalType": "uint256",
          "name": "tokenId",
          "type": "uint256"
        }
      ],
      "name": "tokenURI",
      "outputs": [
        {
          "internalType": "string",
          "name": "",
          "type": "string"
        }
      ],
      "stateMutability": "view",
      "type": "function"
    },
    {
      "inputs": [
        {
          "internalType": "address",
          "name": "from",
          "type": "address"
        },
        {
          "internalType": "address",
          "name": "to",
          "type": "address"
        },
        {
          "internalType": "uint256",
          "name": "tokenId",
          "type": "uint256"
        }
      ],
      "name": "transferFrom",
      "outputs": [],
      "stateMutability": "nonpayable",
      "type": "function"
    },
    {
      "inputs": [],
      "name": "addEventToMarketplace",
      "outputs": [],
      "stateMutability": "nonpayable",
      "type": "function"
    },
    {
      "inputs": [
        {
          "internalType": "string",
          "name": "_seat",
          "type": "string"
        },
        {
          "internalType": "string",
          "name": "_type",
          "type": "string"
        },
        {
          "internalType": "uint256",
          "name": "_creationPrice",
          "type": "uint256"
        },
        {
          "internalType": "uint256",
          "name": "_seatID",
          "type": "uint256"
        }
      ],
      "name": "createTicket",
      "outputs": [
        {
          "internalType": "uint256",
          "name": "",
          "type": "uint256"
        }
      ],
      "stateMutability": "nonpayable",
      "type": "function"
    },
    {
      "inputs": [
        {
          "internalType": "uint256",
          "name": "tokenId",
          "type": "uint256"
        }
      ],
      "name": "buyTicketsDuringPostEvent",
      "outputs": [],
      "stateMutability": "payable",
      "type": "function"
    },
    {
      "inputs": [
        {
          "internalType": "string",
          "name": "_seat",
          "type": "string"
        },
        {
          "internalType": "string",
          "name": "_type",
          "type": "string"
        },
        {
          "internalType": "uint256",
          "name": "_creationPrice",
          "type": "uint256"
        },
        {
          "internalType": "uint256",
          "name": "_numOfTickets",
          "type": "uint256"
        }
      ],
      "name": "createTicketInBulk",
      "outputs": [],
      "stateMutability": "nonpayable",
      "type": "function"
    },
    {
      "inputs": [
        {
          "internalType": "uint256",
          "name": "tokenId",
          "type": "uint256"
        }
      ],
      "name": "buyTicketsDuringSales",
      "outputs": [],
      "stateMutability": "payable",
      "type": "function"
    },
    {
      "inputs": [
        {
          "internalType": "uint256",
          "name": "tokenId",
          "type": "uint256"
        },
        {
          "internalType": "uint256",
          "name": "_newListingPrice",
          "type": "uint256"
        }
      ],
      "name": "listTicket",
      "outputs": [],
      "stateMutability": "nonpayable",
      "type": "function"
    },
    {
      "inputs": [
        {
          "internalType": "uint256",
          "name": "tokenId",
          "type": "uint256"
        }
      ],
      "name": "unlistTicket",
      "outputs": [],
      "stateMutability": "nonpayable",
      "type": "function"
    },
    {
      "inputs": [
        {
          "internalType": "uint256",
          "name": "tokenId",
          "type": "uint256"
        }
      ],
      "name": "checkInTicket",
      "outputs": [],
      "stateMutability": "nonpayable",
      "type": "function"
    },
    {
      "inputs": [
        {
          "internalType": "uint256",
          "name": "tokenId",
          "type": "uint256"
        }
      ],
      "name": "invalidateTicket",
      "outputs": [],
      "stateMutability": "nonpayable",
      "type": "function"
    },
    {
      "inputs": [
        {
          "internalType": "uint256",
          "name": "tokenId",
          "type": "uint256"
        }
      ],
      "name": "validateTicket",
      "outputs": [],
      "stateMutability": "nonpayable",
      "type": "function"
    },
    {
      "inputs": [],
      "name": "changeStateToSales",
      "outputs": [],
      "stateMutability": "nonpayable",
      "type": "function"
    },
    {
      "inputs": [],
      "name": "changeStateToDuring",
      "outputs": [],
      "stateMutability": "nonpayable",
      "type": "function"
    },
    {
      "inputs": [],
      "name": "changeStateToPostEvent",
      "outputs": [],
      "stateMutability": "nonpayable",
      "type": "function"
    },
    {
      "inputs": [
        {
          "internalType": "uint256",
          "name": "ticketId",
          "type": "uint256"
        }
      ],
      "name": "getTicket",
      "outputs": [
        {
          "components": [
            {
              "internalType": "address",
              "name": "_ticketOwner",
              "type": "address"
            },
            {
              "internalType": "string",
              "name": "_seat",
              "type": "string"
            },
            {
              "internalType": "uint256",
              "name": "_seatID",
              "type": "uint256"
            },
            {
              "internalType": "string",
              "name": "_type",
              "type": "string"
            },
            {
              "internalType": "uint256",
              "name": "creationPrice",
              "type": "uint256"
            },
            {
              "internalType": "uint256",
              "name": "listingPrice",
              "type": "uint256"
            },
            {
              "internalType": "bool",
              "name": "isListed",
              "type": "bool"
            },
            {
              "internalType": "bool",
              "name": "isCheckedIn",
              "type": "bool"
            },
            {
              "internalType": "bool",
              "name": "isValid",
              "type": "bool"
            }
          ],
          "internalType": "struct Event.Ticket",
          "name": "",
          "type": "tuple"
        }
      ],
      "stateMutability": "view",
      "type": "function"
    },
    {
      "inputs": [],
      "name": "getEventName",
      "outputs": [
        {
          "internalType": "string",
          "name": "",
          "type": "string"
        }
      ],
      "stateMutability": "view",
      "type": "function"
    },
    {
      "inputs": [],
      "name": "getEventOrganizer",
      "outputs": [
        {
          "internalType": "address",
          "name": "",
          "type": "address"
        }
      ],
      "stateMutability": "view",
      "type": "function"
    },
    {
      "inputs": [],
      "name": "getLocation",
      "outputs": [
        {
          "internalType": "string",
          "name": "",
          "type": "string"
        }
      ],
      "stateMutability": "view",
      "type": "function"
    },
    {
      "inputs": [],
      "name": "getCompany",
      "outputs": [
        {
          "internalType": "string",
          "name": "",
          "type": "string"
        }
      ],
      "stateMutability": "view",
      "type": "function"
    },
    {
      "inputs": [],
      "name": "getTotalTickets",
      "outputs": [
        {
          "internalType": "uint256",
          "name": "",
          "type": "uint256"
        }
      ],
      "stateMutability": "view",
      "type": "function"
    },
    {
      "inputs": [],
      "name": "getMaxTicksPerAddress",
      "outputs": [
        {
          "internalType": "uint256",
          "name": "",
          "type": "uint256"
        }
      ],
      "stateMutability": "view",
      "type": "function"
    },
    {
      "inputs": [],
      "name": "getComissionFee",
      "outputs": [
        {
          "internalType": "uint256",
          "name": "",
          "type": "uint256"
        }
      ],
      "stateMutability": "view",
      "type": "function"
    },
    {
      "inputs": [],
      "name": "getEventDate",
      "outputs": [
        {
          "internalType": "uint256",
          "name": "",
          "type": "uint256"
        }
      ],
      "stateMutability": "view",
      "type": "function"
    },
    {
      "inputs": [],
      "name": "getTicketImageUrl",
      "outputs": [
        {
          "internalType": "string",
          "name": "",
          "type": "string"
        }
      ],
      "stateMutability": "view",
      "type": "function"
    },
    {
      "inputs": [
        {
          "internalType": "string",
          "name": "_type",
          "type": "string"
        }
      ],
      "name": "getTicketsListForEventType",
      "outputs": [
        {
          "internalType": "uint256[]",
          "name": "",
          "type": "uint256[]"
        }
      ],
      "stateMutability": "view",
      "type": "function"
    },
    {
      "inputs": [],
      "name": "getCurrentTicketCount",
      "outputs": [
        {
          "internalType": "uint256",
          "name": "",
          "type": "uint256"
        }
      ],
      "stateMutability": "view",
      "type": "function"
    },
    {
      "inputs": [],
      "name": "getCurrentEventStage",
      "outputs": [
        {
          "internalType": "enum Event.EventStage",
          "name": "",
          "type": "uint8"
        }
      ],
      "stateMutability": "view",
      "type": "function"
    },
    {
      "inputs": [],
      "name": "getEventContractAddress",
      "outputs": [
        {
          "internalType": "address",
          "name": "",
          "type": "address"
        }
      ],
      "stateMutability": "view",
      "type": "function"
    }
  ],
  "bytecode": "0x60806040526000600a553480156200001657600080fd5b506040516200445038038062004450833981016040819052620000399162000281565b8751889088906200005290600090602085019062000107565b5080516200006890600190602084019062000107565b5050885162000080915060069060208b019062000107565b50600780546001600160a01b031916331790558551620000a890600890602089019062000107565b508451620000be90600990602088019062000107565b506000600a55600b93909355600c91909155600d556013805460ff19169055600f80546001600160a01b0319166001600160a01b0390921691909117905550620003bd92505050565b82805462000115906200036a565b90600052602060002090601f01602090048101928262000139576000855562000184565b82601f106200015457805160ff191683800117855562000184565b8280016001018555821562000184579182015b828111156200018457825182559160200191906001019062000167565b506200019292915062000196565b5090565b5b8082111562000192576000815560010162000197565b80516001600160a01b0381168114620001c557600080fd5b919050565b600082601f830112620001dc57600080fd5b81516001600160401b0380821115620001f957620001f9620003a7565b604051601f8301601f19908116603f01168101908282118183101715620002245762000224620003a7565b816040528381526020925086838588010111156200024157600080fd5b600091505b8382101562000265578582018301518183018401529082019062000246565b83821115620002775760008385830101525b9695505050505050565b600080600080600080600080610100898b0312156200029f57600080fd5b88516001600160401b0380821115620002b757600080fd5b620002c58c838d01620001ca565b995060208b0151915080821115620002dc57600080fd5b620002ea8c838d01620001ca565b985060408b01519150808211156200030157600080fd5b6200030f8c838d01620001ca565b975060608b01519150808211156200032657600080fd5b50620003358b828c01620001ca565b9550506080890151935060a0890151925060c089015191506200035b60e08a01620001ad565b90509295985092959890939650565b600181811c908216806200037f57607f821691505b60208210811415620003a157634e487b7160e01b600052602260045260246000fd5b50919050565b634e487b7160e01b600052604160045260246000fd5b61408380620003cd6000396000f3fe6080604052600436106102bb5760003560e01c8063869b556e1161016e578063b88d4fde116100cb578063dc905f021161007f578063e0776e4b11610064578063e0776e4b14610715578063e985e9c51461072a578063ee8d83f71461077357600080fd5b8063dc905f02146106ed578063e0016aee1461070257600080fd5b8063c87b56dd116100b0578063c87b56dd1461069a578063ce2ce3fc146106ba578063d1fd229c146106cf57600080fd5b8063b88d4fde1461065a578063c7ddab361461067a57600080fd5b8063a22cb46511610122578063a8358e2911610107578063a8358e2914610610578063aade5b7814610625578063b81e43fc1461064557600080fd5b8063a22cb465146105db578063a636a30a146105fb57600080fd5b806395d89b411161015357806395d89b41146105915780639bee1be2146105a65780639e757aef146105bb57600080fd5b8063869b556e1461055c57806393e9541d1461057157600080fd5b8063305a905a1161021c578063575836a3116101d057806370a08231116101b557806370a08231146104ef5780637dc379fa1461050f57806383ece4c61461053c57600080fd5b8063575836a3146104ba5780636352211e146104cf57600080fd5b80633f34acb5116102015780633f34acb51461045a5780634140fb221461048757806342842e0e1461049a57600080fd5b8063305a905a1461041a5780633dc0e1c91461043a57600080fd5b8063081812fc11610273578063127810bc11610258578063127810bc146103c357806323b872dd146103d857806328ce3083146103f857600080fd5b8063081812fc1461036b578063095ea7b3146103a357600080fd5b8063054ae7df116102a4578063054ae7df1461030a57806306e8337f1461032a57806306fdde031461034957600080fd5b806301ffc9a7146102c05780630244032e146102f5575b600080fd5b3480156102cc57600080fd5b506102e06102db366004613bb6565b610788565b60405190151581526020015b60405180910390f35b610308610303366004613c99565b610825565b005b34801561031657600080fd5b50610308610325366004613c99565b610d3a565b34801561033657600080fd5b50600a545b6040519081526020016102ec565b34801561035557600080fd5b5061035e610ed9565b6040516102ec9190613df3565b34801561037757600080fd5b5061038b610386366004613c99565b610f6b565b6040516001600160a01b0390911681526020016102ec565b3480156103af57600080fd5b506103086103be366004613b8c565b611000565b3480156103cf57600080fd5b5061035e611132565b3480156103e457600080fd5b506103086103f3366004613a98565b611141565b34801561040457600080fd5b503360009081526012602052604090205461033b565b34801561042657600080fd5b50610308610435366004613cb2565b6111c8565b34801561044657600080fd5b5060135460ff166040516102ec9190613dcb565b34801561046657600080fd5b5061047a610475366004613bf0565b6114bd565b6040516102ec9190613d87565b610308610495366004613c99565b61152d565b3480156104a657600080fd5b506103086104b5366004613a98565b611bac565b3480156104c657600080fd5b50600e5461033b565b3480156104db57600080fd5b5061038b6104ea366004613c99565b611bc7565b3480156104fb57600080fd5b5061033b61050a366004613a4a565b611c52565b34801561051b57600080fd5b5061052f61052a366004613c99565b611cec565b6040516102ec9190613e06565b34801561054857600080fd5b50610308610557366004613c99565b611eee565b34801561056857600080fd5b506103086121e3565b34801561057d57600080fd5b5061033b61058c366004613c25565b6122f8565b34801561059d57600080fd5b5061035e6125d5565b3480156105b257600080fd5b5061035e6125e4565b3480156105c757600080fd5b506103086105d6366004613c25565b6125f3565b3480156105e757600080fd5b506103086105f6366004613b50565b612726565b34801561060757600080fd5b50610308612735565b34801561061c57600080fd5b506103086127ad565b34801561063157600080fd5b50610308610640366004613c99565b6128fb565b34801561065157600080fd5b5061035e612b8f565b34801561066657600080fd5b50610308610675366004613ad4565b612b9e565b34801561068657600080fd5b50610308610695366004613c99565b612c26565b3480156106a657600080fd5b5061035e6106b5366004613c99565b612dde565b3480156106c657600080fd5b5061035e612ed4565b3480156106db57600080fd5b506007546001600160a01b031661038b565b3480156106f957600080fd5b50600c5461033b565b34801561070e57600080fd5b503061038b565b34801561072157600080fd5b50600d5461033b565b34801561073657600080fd5b506102e0610745366004613a65565b6001600160a01b03918216600090815260056020908152604080832093909416825291909152205460ff1690565b34801561077f57600080fd5b50610308612ee3565b60006001600160e01b031982167f80ac58cd0000000000000000000000000000000000000000000000000000000014806107eb57506001600160e01b031982167f5b5e139f00000000000000000000000000000000000000000000000000000000145b8061081f57507f01ffc9a7000000000000000000000000000000000000000000000000000000006001600160e01b03198316145b92915050565b60008181526002602052604090205481906001600160a01b03166108905760405162461bcd60e51b815260206004820152601e60248201527f506c6561736520656e74657220612076616c6964207469636b6574206964000060448201526064015b60405180910390fd5b60135460039060ff16818111156108a9576108a9613ff2565b8160038111156108bb576108bb613ff2565b1461091a5760405162461bcd60e51b815260206004820152602960248201527f54686520616374696f6e206973206e6f7420617661696c61626c65206174207460448201526868697320737461676560b81b6064820152608401610887565b60008381526011602090815260408083208151610120810190925280546001600160a01b03168252600181018054929391929184019161095990613f5c565b80601f016020809104026020016040519081016040528092919081815260200182805461098590613f5c565b80156109d25780601f106109a7576101008083540402835291602001916109d2565b820191906000526020600020905b8154815290600101906020018083116109b557829003601f168201915b50505050508152602001600282015481526020016003820180546109f590613f5c565b80601f0160208091040260200160405190810160405280929190818152602001828054610a2190613f5c565b8015610a6e5780601f10610a4357610100808354040283529160200191610a6e565b820191906000526020600020905b815481529060010190602001808311610a5157829003601f168201915b5050509183525050600482015460208201526005820154604082015260069091015460ff8082161515606084015261010082048116151560808401526201000090910416151560a09091015260c08101519091501515600114610b135760405162461bcd60e51b815260206004820152601c60248201527f43616e6e6f74206275792c205469636b6574206e6f74206c69736564000000006044820152606401610887565b60a0810151600d543490606490610b2a9082613eb7565b610b349190613ecf565b610b3e9083613eb7565b1115610b8c5760405162461bcd60e51b815260206004820152601160248201527f496e73756666696369656e7420455448210000000000000000000000000000006044820152606401610887565b8151610b99903387611bac565b81516040516001600160a01b0382169083156108fc029084906000818181858888f19350505050158015610bd1573d6000803e3d6000fd5b50600754600d546001600160a01b039091169081906108fc90606490610bf79087613ee3565b610c019190613ecf565b6040518115909202916000818181858888f19350505050158015610c29573d6000803e3d6000fd5b50600d54329081906108fc90606490610c429088613ee3565b610c4c9190613ecf565b610c568734613f02565b610c609190613f02565b6040518115909202916000818181858888f19350505050158015610c88573d6000803e3d6000fd5b50338552600060c0860152600f54604051633311b40560e01b8152306004820152602481018a90526001600160a01b0390911690633311b40590604401600060405180830381600087803b158015610cdf57600080fd5b505af1158015610cf3573d6000803e3d6000fd5b505050507f327ab2f05b86d514a18f0e75b46e49ae77bb17fb9ff8fcdc9fe586fbedb967ab88604051610d2891815260200190565b60405180910390a15050505050505050565b6007546001600160a01b03163314610dad5760405162461bcd60e51b815260206004820152603060248201527f4f6e6c7920746865206576656e74206f7267616e697a65722063616e2070657260448201526f3337b936903a3434b99030b1ba34b7b760811b6064820152608401610887565b60008181526002602052604090205481906001600160a01b0316610e135760405162461bcd60e51b815260206004820152601e60248201527f506c6561736520656e74657220612076616c6964207469636b657420696400006044820152606401610887565b60008281526011602052604090206006015462010000900460ff1615610e7b5760405162461bcd60e51b815260206004820152601b60248201527f546865207469636b657420697320616c72656164792076616c696400000000006044820152606401610887565b60008281526011602052604090819020600601805462ff0000191662010000179055517f7b2b39d4f224af697c345bb975acb5347691ad52a7e6d1782f6d4bc7cf5a5cee90610ecd9084815260200190565b60405180910390a15050565b606060008054610ee890613f5c565b80601f0160208091040260200160405190810160405280929190818152602001828054610f1490613f5c565b8015610f615780601f10610f3657610100808354040283529160200191610f61565b820191906000526020600020905b815481529060010190602001808311610f4457829003601f168201915b5050505050905090565b6000818152600260205260408120546001600160a01b0316610fe45760405162461bcd60e51b815260206004820152602c60248201527f4552433732313a20617070726f76656420717565727920666f72206e6f6e657860448201526b34b9ba32b73a103a37b5b2b760a11b6064820152608401610887565b506000908152600460205260409020546001600160a01b031690565b600061100b82611bc7565b9050806001600160a01b0316836001600160a01b031614156110955760405162461bcd60e51b815260206004820152602160248201527f4552433732313a20617070726f76616c20746f2063757272656e74206f776e6560448201527f72000000000000000000000000000000000000000000000000000000000000006064820152608401610887565b336001600160a01b03821614806110b157506110b18133610745565b6111235760405162461bcd60e51b815260206004820152603860248201527f4552433732313a20617070726f76652063616c6c6572206973206e6f74206f7760448201527f6e6572206e6f7220617070726f76656420666f7220616c6c00000000000000006064820152608401610887565b61112d8383612ff5565b505050565b606060098054610ee890613f5c565b61114b3382613070565b6111bd5760405162461bcd60e51b815260206004820152603160248201527f4552433732313a207472616e736665722063616c6c6572206973206e6f74206f60448201527f776e6572206e6f7220617070726f7665640000000000000000000000000000006064820152608401610887565b61112d838383613167565b60008281526002602052604090205482906001600160a01b031661122e5760405162461bcd60e51b815260206004820152601e60248201527f506c6561736520656e74657220612076616c6964207469636b657420696400006044820152606401610887565b60135460019060ff16600381111561124857611248613ff2565b81600381111561125a5761125a613ff2565b146112b95760405162461bcd60e51b815260206004820152602960248201527f54686520616374696f6e206973206e6f7420617661696c61626c65206174207460448201526868697320737461676560b81b6064820152608401610887565b60008481526011602052604090206006015460ff161561131b5760405162461bcd60e51b815260206004820152601a60248201527f5469636b65742069732063757272656e746c79206c69737465640000000000006044820152606401610887565b600084815260116020526040902060040154600b5461133b906001613eb7565b6113459082613ee3565b841115600b546040516020016113ad91907f526573616c652070726963652063616e6e6f742062652067726561746572207481527f68616e20000000000000000000000000000000000000000000000000000000006020820152602481019190915260440190565b604051602081830303815290604052906113da5760405162461bcd60e51b81526004016108879190613df3565b5060008581526011602052604090819020600601805460ff19166001179055600f5490517f1d66b15c00000000000000000000000000000000000000000000000000000000815230600482015260248101879052604481018690526001600160a01b0390911690631d66b15c90606401600060405180830381600087803b15801561146457600080fd5b505af1158015611478573d6000803e3d6000fd5b505060408051888152602081018890527fd09e1c83c06af7c26a91040608bdf8486d5be8d62f8d0b2d3a8da88ec502bcd5935001905060405180910390a15050505050565b60606014826040516114cf9190613d00565b908152604080519182900360209081018320805480830285018301909352828452919083018282801561152157602002820191906000526020600020905b81548152602001906001019080831161150d575b50505050509050919050565b600f546001600160a01b0316331461159c5760405162461bcd60e51b815260206004820152602c60248201527f596f75277265206e6f7420617574686f72697a656420746f20706572666f726d60448201526b103a3434b99030b1ba34b7b760a11b6064820152608401610887565b60135460019060ff1660038111156115b6576115b6613ff2565b8160038111156115c8576115c8613ff2565b146116275760405162461bcd60e51b815260206004820152602960248201527f54686520616374696f6e206973206e6f7420617661696c61626c65206174207460448201526868697320737461676560b81b6064820152608401610887565b60008281526002602052604090205482906001600160a01b031661168d5760405162461bcd60e51b815260206004820152601e60248201527f506c6561736520656e74657220612076616c6964207469636b657420696400006044820152606401610887565b600c54326000818152601260205260409020549091116117155760405162461bcd60e51b815260206004820152602360248201527f427579657220616c7265616479207265616368656420746865206d6178206c6960448201527f6d697400000000000000000000000000000000000000000000000000000000006064820152608401610887565b60008481526011602090815260408083208151610120810190925280546001600160a01b03168252600181018054929391929184019161175490613f5c565b80601f016020809104026020016040519081016040528092919081815260200182805461178090613f5c565b80156117cd5780601f106117a2576101008083540402835291602001916117cd565b820191906000526020600020905b8154815290600101906020018083116117b057829003601f168201915b50505050508152602001600282015481526020016003820180546117f090613f5c565b80601f016020809104026020016040519081016040528092919081815260200182805461181c90613f5c565b80156118695780601f1061183e57610100808354040283529160200191611869565b820191906000526020600020905b81548152906001019060200180831161184c57829003601f168201915b5050509183525050600482015460208201526005820154604082015260069091015460ff8082161515606084015261010082048116151560808401526201000090910416151560a091820152810151909150348111156119315760405162461bcd60e51b815260206004820152602560248201527f496e73756666696369656e742066756e647320746f207075726368617365207460448201527f69636b65740000000000000000000000000000000000000000000000000000006064820152608401610887565b60008681526011602052604090206006015460ff1615156001146119975760405162461bcd60e51b815260206004820152601160248201527f5469636b6574206e6f74206c69737465640000000000000000000000000000006044820152606401610887565b815160075432906001600160a01b03808416911614611ad25783516001600160a01b031660009081526012602052604081208054916119d583613f45565b90915550506007546040516001600160a01b039182169184169085156108fc029086906000818181858888f19350505050158015611a17573d6000803e3d6000fd5b50806001600160a01b03166108fc6064600d5487611a359190613ee3565b611a3f9190613ecf565b6040518115909202916000818181858888f19350505050158015611a67573d6000803e3d6000fd5b50816001600160a01b03166108fc6064600d5487611a859190613ee3565b611a8f9190613ecf565b611a998734613f02565b611aa39190613f02565b6040518115909202916000818181858888f19350505050158015611acb573d6000803e3d6000fd5b5050611b4a565b6040516001600160a01b0383169084156108fc029085906000818181858888f19350505050158015611b08573d6000803e3d6000fd5b506001600160a01b0381166108fc611b208534613f02565b6040518115909202916000818181858888f19350505050158015611b48573d6000803e3d6000fd5b505b326000908152601260205260408120805491611b6583613f97565b909155505032808552600060c0860152604080518a815260208101929092527f39015f100fdd4ccac11799dac563a5bc3c2362c8ae5e61832336015619ed26fd9101610d28565b61112d83838360405180602001604052806000815250612b9e565b6000818152600260205260408120546001600160a01b03168061081f5760405162461bcd60e51b815260206004820152602960248201527f4552433732313a206f776e657220717565727920666f72206e6f6e657869737460448201527f656e7420746f6b656e00000000000000000000000000000000000000000000006064820152608401610887565b60006001600160a01b038216611cd05760405162461bcd60e51b815260206004820152602a60248201527f4552433732313a2062616c616e636520717565727920666f7220746865207a6560448201527f726f2061646472657373000000000000000000000000000000000000000000006064820152608401610887565b506001600160a01b031660009081526003602052604090205490565b611d4a60405180610120016040528060006001600160a01b0316815260200160608152602001600081526020016060815260200160008152602001600081526020016000151581526020016000151581526020016000151581525090565b6000828152601160209081526040918290208251610120810190935280546001600160a01b031683526001810180549192840191611d8790613f5c565b80601f0160208091040260200160405190810160405280929190818152602001828054611db390613f5c565b8015611e005780601f10611dd557610100808354040283529160200191611e00565b820191906000526020600020905b815481529060010190602001808311611de357829003601f168201915b5050505050815260200160028201548152602001600382018054611e2390613f5c565b80601f0160208091040260200160405190810160405280929190818152602001828054611e4f90613f5c565b8015611e9c5780601f10611e7157610100808354040283529160200191611e9c565b820191906000526020600020905b815481529060010190602001808311611e7f57829003601f168201915b5050509183525050600482015460208201526005820154604082015260069091015460ff8082161515606084015261010082048116151560808401526201000090910416151560a09091015292915050565b60008181526002602052604090205481906001600160a01b0316611f545760405162461bcd60e51b815260206004820152601e60248201527f506c6561736520656e74657220612076616c6964207469636b657420696400006044820152606401610887565b60008281526002602052604090205482906001600160a01b0316611fba5760405162461bcd60e51b815260206004820152601e60248201527f506c6561736520656e74657220612076616c6964207469636b657420696400006044820152606401610887565b6000818152601160205260409020546001600160a01b031633146120355760405162461bcd60e51b815260206004820152602c60248201527f596f75277265206e6f7420617574686f72697a656420746f20706572666f726d60448201526b103a3434b99030b1ba34b7b760a11b6064820152608401610887565b60135460019060ff16600381111561204f5761204f613ff2565b81600381111561206157612061613ff2565b146120c05760405162461bcd60e51b815260206004820152602960248201527f54686520616374696f6e206973206e6f7420617661696c61626c65206174207460448201526868697320737461676560b81b6064820152608401610887565b60008481526011602052604090206006015460ff1615156001146121265760405162461bcd60e51b815260206004820152601c60248201527f5469636b65742069732063757272656e746c7920756e6c6973746564000000006044820152606401610887565b60008481526011602052604090819020600601805460ff19169055600f549051633311b40560e01b8152306004820152602481018690526001600160a01b0390911690633311b40590604401600060405180830381600087803b15801561218c57600080fd5b505af11580156121a0573d6000803e3d6000fd5b505050507f510517eedc0f38cbd6c973c1853725b8219949b205d6769efdb072c94f8a8db1846040516121d591815260200190565b60405180910390a150505050565b6007546001600160a01b031633146122565760405162461bcd60e51b815260206004820152603060248201527f4f6e6c7920746865206576656e74206f7267616e697a65722063616e2070657260448201526f3337b936903a3434b99030b1ba34b7b760811b6064820152608401610887565b60135460009060ff16600381111561227057612270613ff2565b81600381111561228257612282613ff2565b146122e15760405162461bcd60e51b815260206004820152602960248201527f54686520616374696f6e206973206e6f7420617661696c61626c65206174207460448201526868697320737461676560b81b6064820152608401610887565b601380546001919060ff191682805b021790555050565b6007546000906001600160a01b0316331461236e5760405162461bcd60e51b815260206004820152603060248201527f4f6e6c7920746865206576656e74206f7267616e697a65722063616e2070657260448201526f3337b936903a3434b99030b1ba34b7b760811b6064820152608401610887565b60135460009060ff16600381111561238857612388613ff2565b81600381111561239a5761239a613ff2565b146123f95760405162461bcd60e51b815260206004820152602960248201527f54686520616374696f6e206973206e6f7420617661696c61626c65206174207460448201526868697320737461676560b81b6064820152608401610887565b60408051610120810182526007546001600160a01b0316815260208101889052908101849052606081018690526080810185905260a08101859052600060c0820181905260e082018190526001610100830152600a8054908261245b83613f97565b90915550600f54909150612478906001600160a01b031682613341565b60008181526011602090815260409091208351815473ffffffffffffffffffffffffffffffffffffffff19166001600160a01b0390911617815583820151805185936124cb9260018501929101906138ff565b5060408201516002820155606082015180516124f19160038401916020909101906138ff565b506080820151600482015560a0820151600582015560c08201516006909101805460e08401516101009485015161ffff1990921693151561ff001916939093179215159093029190911762ff000019166201000092151592909202919091179055604051601490612563908990613d00565b90815260405160209181900382019020805460018101825560009182529190200181905561259181876111c8565b60408051828152602081018890527fd3aee6a113345dc2d1e25a18006c98ad8ae7b2a4c73350c856dd401e56ea0417910160405180910390a1979650505050505050565b606060018054610ee890613f5c565b606060108054610ee890613f5c565b6007546001600160a01b031633146126665760405162461bcd60e51b815260206004820152603060248201527f4f6e6c7920746865206576656e74206f7267616e697a65722063616e2070657260448201526f3337b936903a3434b99030b1ba34b7b760811b6064820152608401610887565b60135460009060ff16600381111561268057612680613ff2565b81600381111561269257612692613ff2565b146126f15760405162461bcd60e51b815260206004820152602960248201527f54686520616374696f6e206973206e6f7420617661696c61626c65206174207460448201526868697320737461676560b81b6064820152608401610887565b60005b8281101561271e5780612709878783886122f8565b5050808061271690613f97565b9150506126f4565b505050505050565b61273133838361335b565b5050565b600f546040517fc7ae74510000000000000000000000000000000000000000000000000000000081523060048201526001600160a01b039091169063c7ae745190602401600060405180830381600087803b15801561279357600080fd5b505af11580156127a7573d6000803e3d6000fd5b50505050565b6007546001600160a01b031633146128205760405162461bcd60e51b815260206004820152603060248201527f4f6e6c7920746865206576656e74206f7267616e697a65722063616e2070657260448201526f3337b936903a3434b99030b1ba34b7b760811b6064820152608401610887565b60135460019060ff16600381111561283a5761283a613ff2565b81600381111561284c5761284c613ff2565b146128ab5760405162461bcd60e51b815260206004820152602960248201527f54686520616374696f6e206973206e6f7420617661696c61626c65206174207460448201526868697320737461676560b81b6064820152608401610887565b6013805460ff1916600217905560005b600a54811015612731576000818152601160205260409020546128e99030906001600160a01b031683611bac565b806128f381613f97565b9150506128bb565b6007546001600160a01b0316331461296e5760405162461bcd60e51b815260206004820152603060248201527f4f6e6c7920746865206576656e74206f7267616e697a65722063616e2070657260448201526f3337b936903a3434b99030b1ba34b7b760811b6064820152608401610887565b60008181526002602052604090205481906001600160a01b03166129d45760405162461bcd60e51b815260206004820152601e60248201527f506c6561736520656e74657220612076616c6964207469636b657420696400006044820152606401610887565b60135460019060ff1660038111156129ee576129ee613ff2565b816003811115612a0057612a00613ff2565b14612a5f5760405162461bcd60e51b815260206004820152602960248201527f54686520616374696f6e206973206e6f7420617661696c61626c65206174207460448201526868697320737461676560b81b6064820152608401610887565b60008381526011602052604090206006015462010000900460ff161515600114612acb5760405162461bcd60e51b815260206004820152601f60248201527f546865207469636b657420686173206265656e20696e76616c696461746564006044820152606401610887565b600083815260116020526040902060060154610100900460ff1615612b325760405162461bcd60e51b815260206004820152601c60248201527f5469636b657420697320616c726561647920636865636b656420696e000000006044820152606401610887565b60008381526011602052604090819020600601805461ff001916610100179055517f92e8347ed886b5648123f23a12ac29a793e202f1f3541e8daa528d98d281bae790612b829085815260200190565b60405180910390a1505050565b606060068054610ee890613f5c565b612ba83383613070565b612c1a5760405162461bcd60e51b815260206004820152603160248201527f4552433732313a207472616e736665722063616c6c6572206973206e6f74206f60448201527f776e6572206e6f7220617070726f7665640000000000000000000000000000006064820152608401610887565b6127a78484848461342a565b6007546001600160a01b03163314612c995760405162461bcd60e51b815260206004820152603060248201527f4f6e6c7920746865206576656e74206f7267616e697a65722063616e2070657260448201526f3337b936903a3434b99030b1ba34b7b760811b6064820152608401610887565b60008181526002602052604090205481906001600160a01b0316612cff5760405162461bcd60e51b815260206004820152601e60248201527f506c6561736520656e74657220612076616c6964207469636b657420696400006044820152606401610887565b60008281526011602052604090206006015462010000900460ff161515600114612d915760405162461bcd60e51b815260206004820152602760248201527f546865207469636b65742068617320616c7265616479206265656e20696e766160448201527f6c696461746564000000000000000000000000000000000000000000000000006064820152608401610887565b60008281526011602052604090819020600601805462ff000019169055517f32053cb7b3e5de5d14d71e2296b201d6f61d96c218f46a1bb6c3cb7e5108247890610ecd9084815260200190565b6000818152600260205260409020546060906001600160a01b0316612e6b5760405162461bcd60e51b815260206004820152602f60248201527f4552433732314d657461646174613a2055524920717565727920666f72206e6f60448201527f6e6578697374656e7420746f6b656e00000000000000000000000000000000006064820152608401610887565b6000612e8260408051602081019091526000815290565b90506000815111612ea25760405180602001604052806000815250612ecd565b80612eac846134a8565b604051602001612ebd929190613d1c565b6040516020818303038152906040525b9392505050565b606060088054610ee890613f5c565b6007546001600160a01b03163314612f565760405162461bcd60e51b815260206004820152603060248201527f4f6e6c7920746865206576656e74206f7267616e697a65722063616e2070657260448201526f3337b936903a3434b99030b1ba34b7b760811b6064820152608401610887565b60135460029060ff166003811115612f7057612f70613ff2565b816003811115612f8257612f82613ff2565b14612fe15760405162461bcd60e51b815260206004820152602960248201527f54686520616374696f6e206973206e6f7420617661696c61626c65206174207460448201526868697320737461676560b81b6064820152608401610887565b601380546003919060ff19166001836122f0565b6000818152600460205260409020805473ffffffffffffffffffffffffffffffffffffffff19166001600160a01b038416908117909155819061303782611bc7565b6001600160a01b03167f8c5be1e5ebec7d5bd14f71427d1e84f3dd0314c0f7b2291e5b200ac8c7c3b92560405160405180910390a45050565b6000818152600260205260408120546001600160a01b03166130e95760405162461bcd60e51b815260206004820152602c60248201527f4552433732313a206f70657261746f7220717565727920666f72206e6f6e657860448201526b34b9ba32b73a103a37b5b2b760a11b6064820152608401610887565b60006130f483611bc7565b9050806001600160a01b0316846001600160a01b0316148061312f5750836001600160a01b031661312484610f6b565b6001600160a01b0316145b8061315f57506001600160a01b0380821660009081526005602090815260408083209388168352929052205460ff165b949350505050565b826001600160a01b031661317a82611bc7565b6001600160a01b0316146131f65760405162461bcd60e51b815260206004820152602560248201527f4552433732313a207472616e736665722066726f6d20696e636f72726563742060448201527f6f776e65720000000000000000000000000000000000000000000000000000006064820152608401610887565b6001600160a01b0382166132715760405162461bcd60e51b8152602060048201526024808201527f4552433732313a207472616e7366657220746f20746865207a65726f2061646460448201527f72657373000000000000000000000000000000000000000000000000000000006064820152608401610887565b61327c600082612ff5565b6001600160a01b03831660009081526003602052604081208054600192906132a5908490613f02565b90915550506001600160a01b03821660009081526003602052604081208054600192906132d3908490613eb7565b9091555050600081815260026020526040808220805473ffffffffffffffffffffffffffffffffffffffff19166001600160a01b0386811691821790925591518493918716917fddf252ad1be2c89b69c2b068fc378daa952ba7f163c4a11628f55a4df523b3ef91a4505050565b6127318282604051806020016040528060008152506135da565b816001600160a01b0316836001600160a01b031614156133bd5760405162461bcd60e51b815260206004820152601960248201527f4552433732313a20617070726f766520746f2063616c6c6572000000000000006044820152606401610887565b6001600160a01b03838116600081815260056020908152604080832094871680845294825291829020805460ff191686151590811790915591519182527f17307eab39ab6107e8899845ad3d59bd9653f200f220920489ca2b5937696c31910160405180910390a3505050565b613435848484613167565b61344184848484613658565b6127a75760405162461bcd60e51b815260206004820152603260248201527f4552433732313a207472616e7366657220746f206e6f6e20455243373231526560448201527131b2b4bb32b91034b6b83632b6b2b73a32b960711b6064820152608401610887565b6060816134e857505060408051808201909152600181527f3000000000000000000000000000000000000000000000000000000000000000602082015290565b8160005b811561351257806134fc81613f97565b915061350b9050600a83613ecf565b91506134ec565b60008167ffffffffffffffff81111561352d5761352d61401e565b6040519080825280601f01601f191660200182016040528015613557576020820181803683370190505b5090505b841561315f5761356c600183613f02565b9150613579600a86613fb2565b613584906030613eb7565b60f81b81838151811061359957613599614008565b60200101907effffffffffffffffffffffffffffffffffffffffffffffffffffffffffffff1916908160001a9053506135d3600a86613ecf565b945061355b565b6135e483836137b0565b6135f16000848484613658565b61112d5760405162461bcd60e51b815260206004820152603260248201527f4552433732313a207472616e7366657220746f206e6f6e20455243373231526560448201527131b2b4bb32b91034b6b83632b6b2b73a32b960711b6064820152608401610887565b60006001600160a01b0384163b156137a557604051630a85bd0160e11b81526001600160a01b0385169063150b7a029061369c903390899088908890600401613d4b565b602060405180830381600087803b1580156136b657600080fd5b505af19250505080156136e6575060408051601f3d908101601f191682019092526136e391810190613bd3565b60015b61378b573d808015613714576040519150601f19603f3d011682016040523d82523d6000602084013e613719565b606091505b5080516137835760405162461bcd60e51b815260206004820152603260248201527f4552433732313a207472616e7366657220746f206e6f6e20455243373231526560448201527131b2b4bb32b91034b6b83632b6b2b73a32b960711b6064820152608401610887565b805181602001fd5b6001600160e01b031916630a85bd0160e11b14905061315f565b506001949350505050565b6001600160a01b0382166138065760405162461bcd60e51b815260206004820181905260248201527f4552433732313a206d696e7420746f20746865207a65726f20616464726573736044820152606401610887565b6000818152600260205260409020546001600160a01b03161561386b5760405162461bcd60e51b815260206004820152601c60248201527f4552433732313a20746f6b656e20616c7265616479206d696e746564000000006044820152606401610887565b6001600160a01b0382166000908152600360205260408120805460019290613894908490613eb7565b9091555050600081815260026020526040808220805473ffffffffffffffffffffffffffffffffffffffff19166001600160a01b03861690811790915590518392907fddf252ad1be2c89b69c2b068fc378daa952ba7f163c4a11628f55a4df523b3ef908290a45050565b82805461390b90613f5c565b90600052602060002090601f01602090048101928261392d5760008555613973565b82601f1061394657805160ff1916838001178555613973565b82800160010185558215613973579182015b82811115613973578251825591602001919060010190613958565b5061397f929150613983565b5090565b5b8082111561397f5760008155600101613984565b600067ffffffffffffffff808411156139b3576139b361401e565b604051601f8501601f19908116603f011681019082821181831017156139db576139db61401e565b816040528093508581528686860111156139f457600080fd5b858560208301376000602087830101525050509392505050565b80356001600160a01b0381168114613a2557600080fd5b919050565b600082601f830112613a3b57600080fd5b612ecd83833560208501613998565b600060208284031215613a5c57600080fd5b612ecd82613a0e565b60008060408385031215613a7857600080fd5b613a8183613a0e565b9150613a8f60208401613a0e565b90509250929050565b600080600060608486031215613aad57600080fd5b613ab684613a0e565b9250613ac460208501613a0e565b9150604084013590509250925092565b60008060008060808587031215613aea57600080fd5b613af385613a0e565b9350613b0160208601613a0e565b925060408501359150606085013567ffffffffffffffff811115613b2457600080fd5b8501601f81018713613b3557600080fd5b613b4487823560208401613998565b91505092959194509250565b60008060408385031215613b6357600080fd5b613b6c83613a0e565b915060208301358015158114613b8157600080fd5b809150509250929050565b60008060408385031215613b9f57600080fd5b613ba883613a0e565b946020939093013593505050565b600060208284031215613bc857600080fd5b8135612ecd81614034565b600060208284031215613be557600080fd5b8151612ecd81614034565b600060208284031215613c0257600080fd5b813567ffffffffffffffff811115613c1957600080fd5b61315f84828501613a2a565b60008060008060808587031215613c3b57600080fd5b843567ffffffffffffffff80821115613c5357600080fd5b613c5f88838901613a2a565b95506020870135915080821115613c7557600080fd5b50613c8287828801613a2a565b949794965050505060408301359260600135919050565b600060208284031215613cab57600080fd5b5035919050565b60008060408385031215613cc557600080fd5b50508035926020909101359150565b60008151808452613cec816020860160208601613f19565b601f01601f19169290920160200192915050565b60008251613d12818460208701613f19565b9190910192915050565b60008351613d2e818460208801613f19565b835190830190613d42818360208801613f19565b01949350505050565b60006001600160a01b03808716835280861660208401525083604083015260806060830152613d7d6080830184613cd4565b9695505050505050565b6020808252825182820181905260009190848201906040850190845b81811015613dbf57835183529284019291840191600101613da3565b50909695505050505050565b6020810160048310613ded57634e487b7160e01b600052602160045260246000fd5b91905290565b602081526000612ecd6020830184613cd4565b60208152613e206020820183516001600160a01b03169052565b60006020830151610120806040850152613e3e610140850183613cd4565b9150604085015160608501526060850151601f19858403016080860152613e658382613cd4565b925050608085015160a085015260a085015160c085015260c0850151613e8f60e086018215159052565b5060e0850151610100613ea58187018315159052565b90950151151593019290925250919050565b60008219821115613eca57613eca613fc6565b500190565b600082613ede57613ede613fdc565b500490565b6000816000190483118215151615613efd57613efd613fc6565b500290565b600082821015613f1457613f14613fc6565b500390565b60005b83811015613f34578181015183820152602001613f1c565b838111156127a75750506000910152565b600081613f5457613f54613fc6565b506000190190565b600181811c90821680613f7057607f821691505b60208210811415613f9157634e487b7160e01b600052602260045260246000fd5b50919050565b6000600019821415613fab57613fab613fc6565b5060010190565b600082613fc157613fc1613fdc565b500690565b634e487b7160e01b600052601160045260246000fd5b634e487b7160e01b600052601260045260246000fd5b634e487b7160e01b600052602160045260246000fd5b634e487b7160e01b600052603260045260246000fd5b634e487b7160e01b600052604160045260246000fd5b6001600160e01b03198116811461404a57600080fd5b5056fea2646970667358221220b6d9b1d506a00edeff2b4cd27775c4cf90abd905fde7fcb7caeb5adc838f3c9664736f6c63430008070033",
  "immutableReferences": {},
  "source": "// SPDX-License-Identifier: MIT\r\npragma solidity ^0.8.0;\r\nimport \"@openzeppelin/contracts/token/ERC721/ERC721.sol\";\r\nimport \"./MarketPlace.sol\";\r\n\r\ncontract Event is ERC721 {\r\n    string eventName;\r\n    address eventOrganizer;\r\n    string location;\r\n    string company;\r\n    uint256 numTickets = 0;\r\n    uint256 resaleCeiling;\r\n    uint256 maxTicketsPerAddress;\r\n    uint256 commissionFee;\r\n    uint256 eventDate;\r\n    MarketPlace marketPlace;\r\n    string ticketImageUrl;\r\n    mapping(uint256 => Ticket) IDToTicket;\r\n    mapping(address => uint256) ticketCountPerOwner;\r\n    EventStage currentStage;\r\n    mapping(string => uint256[]) typeToTicketIds;\r\n\r\n    enum EventStage {\r\n        PRESALES,\r\n        SALES,\r\n        DURINGEVENT,\r\n        POSTEVENT\r\n    }\r\n\r\n    event ticketCreated(uint256 tokenId, uint256 creationPrice);\r\n    event ticketBoughtDuringPostEvent(uint256 tokenId);\r\n    event ticketBoughtDuringSales(uint256 tokenId, address newOwner);\r\n    event ticketListed(uint256 tokenId, uint256 _newListingPrice);\r\n    event ticketUnlisted(uint256 tokenId);\r\n    event ticketCheckedIn(uint256 tokenId);\r\n    event ticketInvalidated(uint256 tokenId);\r\n    event ticketValidated(uint256 tokenId);\r\n\r\n    modifier requiredEventStage(EventStage stage) {\r\n        require(\r\n            stage == currentStage,\r\n            \"The action is not available at this stage\"\r\n        );\r\n        _;\r\n    }\r\n\r\n    modifier onlyTicketOwner(uint256 tokenId) {\r\n        require(_exists(tokenId), \"Please enter a valid ticket id\");\r\n        require(\r\n            IDToTicket[tokenId]._ticketOwner == msg.sender,\r\n            \"You're not authorized to perform this action\"\r\n        );\r\n        _;\r\n    }\r\n\r\n    modifier onlyEventOrganizer() {\r\n        require(\r\n            msg.sender == eventOrganizer,\r\n            \"Only the event organizer can perform this action\"\r\n        );\r\n        _;\r\n    }\r\n\r\n    modifier onlyMarketPlace() {\r\n        require(\r\n            msg.sender == address(marketPlace),\r\n            \"You're not authorized to perform this action\"\r\n        );\r\n        _;\r\n    }\r\n\r\n    modifier requireValidTicket(uint256 tokenId) {\r\n        require(_exists(tokenId), \"Please enter a valid ticket id\");\r\n        _;\r\n    }\r\n\r\n    modifier addressCanPurchaseMore(address buyer) {\r\n        require(\r\n            ticketCountPerOwner[buyer] < maxTicketsPerAddress,\r\n            \"Buyer already reached the max limit\"\r\n        );\r\n        _;\r\n    }\r\n\r\n    struct Ticket {\r\n        address _ticketOwner;\r\n        string _seat;\r\n        uint256 _seatID;\r\n        string _type;\r\n        uint256 creationPrice;\r\n        uint256 listingPrice;\r\n        bool isListed;\r\n        bool isCheckedIn;\r\n        bool isValid;\r\n    }\r\n\r\n    constructor(\r\n        string memory _eventName,\r\n        string memory _symbol,\r\n        string memory _location,\r\n        string memory _company,\r\n        uint256 _resaleCeiling,\r\n        uint256 _maxTicketsPerAddress,\r\n        uint256 _commissionFee,\r\n        //uint256 _eventDate,\r\n        MarketPlace _marketPlace\r\n    ) ERC721(_eventName, _symbol) {\r\n        eventName = _eventName;\r\n        eventOrganizer = msg.sender;\r\n        location = _location;\r\n        company = _company;\r\n        numTickets = 0;\r\n        resaleCeiling = _resaleCeiling;\r\n        maxTicketsPerAddress = _maxTicketsPerAddress;\r\n        commissionFee = _commissionFee;\r\n        //eventDate = _eventDate;\r\n        currentStage = EventStage.PRESALES;\r\n        marketPlace = _marketPlace;\r\n    }\r\n\r\n    function addEventToMarketplace() public {\r\n        marketPlace.addEvent(address(this));\r\n    }\r\n\r\n    function createTicket(\r\n        string memory _seat,\r\n        string memory _type,\r\n        uint256 _creationPrice,\r\n        uint256 _seatID\r\n    )\r\n        public\r\n        onlyEventOrganizer\r\n        requiredEventStage(EventStage.PRESALES)\r\n        returns (uint256)\r\n    {\r\n        Ticket memory newTicket = Ticket(\r\n            eventOrganizer,\r\n            _seat,\r\n            _seatID,\r\n            _type,\r\n            _creationPrice,\r\n            _creationPrice, // initial listing price is the creation price\r\n            false, //isListed set to false\r\n            false,\r\n            true\r\n        );\r\n        uint256 newTicketId = numTickets++;\r\n        _safeMint(address(marketPlace), newTicketId);\r\n        IDToTicket[newTicketId] = newTicket;\r\n        typeToTicketIds[_type].push(newTicketId);\r\n        listTicket(newTicketId, _creationPrice);\r\n        emit ticketCreated(newTicketId, _creationPrice);\r\n        return newTicketId;\r\n    }\r\n\r\n    function buyTicketsDuringPostEvent(uint256 tokenId)\r\n        public\r\n        payable\r\n        requireValidTicket(tokenId)\r\n        requiredEventStage(EventStage.POSTEVENT)\r\n    {\r\n        Ticket memory ticketToBuy = IDToTicket[tokenId];\r\n        require(ticketToBuy.isListed == true, \"Cannot buy, Ticket not lised\");\r\n        uint256 listedPrice = ticketToBuy.listingPrice;\r\n        require(\r\n            listedPrice + (100 + commissionFee) / 100 <= msg.value,\r\n            \"Insufficient ETH!\"\r\n        );\r\n        // ticket count does not matter any more after the event\r\n        // transfer ticket to buyer\r\n        safeTransferFrom(ticketToBuy._ticketOwner, msg.sender, tokenId);\r\n\r\n        // transfer money to seller\r\n        address payable originalOwner = payable(\r\n            address(uint160(ticketToBuy._ticketOwner))\r\n        );\r\n        originalOwner.transfer(listedPrice);\r\n\r\n        //transfer comission fee to event organiser\r\n        address payable organiser = payable(address(uint160(eventOrganizer)));\r\n\r\n        organiser.transfer((listedPrice * commissionFee) / 100);\r\n\r\n        address payable buyer = payable(address(uint160(tx.origin)));\r\n\r\n        buyer.transfer(\r\n            msg.value - listedPrice - ((listedPrice * commissionFee) / 100)\r\n        );\r\n\r\n        ticketToBuy._ticketOwner = msg.sender;\r\n        ticketToBuy.isListed = false;\r\n\r\n        marketPlace.unlistTicket(address(this), tokenId);\r\n        emit ticketBoughtDuringPostEvent(tokenId);\r\n    }\r\n\r\n    function createTicketInBulk(\r\n        string memory _seat,\r\n        string memory _type,\r\n        uint256 _creationPrice,\r\n        uint256 _numOfTickets\r\n    ) public onlyEventOrganizer requiredEventStage(EventStage.PRESALES) {\r\n        for (uint256 i = 0; i < _numOfTickets; i++) {\r\n            uint256 currentSeatID = i;\r\n\r\n            createTicket(_seat, _type, currentSeatID, _creationPrice);\r\n        }\r\n    }\r\n\r\n    function buyTicketsDuringSales(uint256 tokenId)\r\n        public\r\n        payable\r\n        onlyMarketPlace\r\n        requiredEventStage(EventStage.SALES)\r\n        requireValidTicket(tokenId)\r\n        addressCanPurchaseMore(tx.origin)\r\n    {\r\n        Ticket memory ticket = IDToTicket[tokenId];\r\n        uint256 payableAmount = ticket.listingPrice;\r\n        require(\r\n            msg.value >= payableAmount,\r\n            \"Insufficient funds to purchase ticket\"\r\n        );\r\n        require(IDToTicket[tokenId].isListed == true, \"Ticket not listed\");\r\n\r\n        address payable reseller = payable(\r\n            address(uint160(ticket._ticketOwner))\r\n        );\r\n        address payable buyer = payable(address(uint160(tx.origin)));\r\n        // ticket was resold\r\n        if (ticket._ticketOwner != eventOrganizer) {\r\n            ticketCountPerOwner[ticket._ticketOwner]--;\r\n            address payable eventOrganiser = payable(\r\n                address(uint160(eventOrganizer))\r\n            );\r\n            reseller.transfer(payableAmount);\r\n            eventOrganiser.transfer((payableAmount * commissionFee) / 100);\r\n            buyer.transfer(\r\n                msg.value -\r\n                    payableAmount -\r\n                    ((payableAmount * commissionFee) / 100)\r\n            );\r\n        } else {\r\n            // no commission\r\n            reseller.transfer(payableAmount);\r\n            buyer.transfer(msg.value - payableAmount);\r\n        }\r\n\r\n        // tx.origin is used since the original buyer calls this function via market place contract\r\n        ticketCountPerOwner[tx.origin]++;\r\n\r\n        // can implement returning of balance if we want.\r\n        ticket._ticketOwner = tx.origin;\r\n        ticket.isListed = false;\r\n        emit ticketBoughtDuringSales(tokenId, tx.origin);\r\n    }\r\n\r\n    // only need to list ticket during sales period\r\n    // after sales become post sales the ticket can be sold as an NFT\r\n    function listTicket(uint256 tokenId, uint256 _newListingPrice)\r\n        public\r\n        requireValidTicket(tokenId)\r\n        requiredEventStage(EventStage.SALES)\r\n    {\r\n        require(\r\n            IDToTicket[tokenId].isListed == false,\r\n            \"Ticket is currently listed\"\r\n        );\r\n\r\n        uint256 creationPrice = IDToTicket[tokenId].creationPrice;\r\n\r\n        require(\r\n            _newListingPrice <= creationPrice * (resaleCeiling + 100 / 100),\r\n            string(\r\n                abi.encodePacked(\r\n                    \"Resale price cannot be greater than \",\r\n                    resaleCeiling\r\n                )\r\n            )\r\n        );\r\n\r\n        IDToTicket[tokenId].isListed = true;\r\n        marketPlace.listTicket(address(this), tokenId, _newListingPrice);\r\n        emit ticketListed(tokenId, _newListingPrice);\r\n    }\r\n\r\n    function unlistTicket(uint256 tokenId)\r\n        public\r\n        requireValidTicket(tokenId)\r\n        onlyTicketOwner(tokenId)\r\n        requiredEventStage(EventStage.SALES)\r\n    {\r\n        require(\r\n            IDToTicket[tokenId].isListed == true,\r\n            \"Ticket is currently unlisted\"\r\n        );\r\n        IDToTicket[tokenId].isListed = false;\r\n        marketPlace.unlistTicket(address(this), tokenId);\r\n        emit ticketUnlisted(tokenId);\r\n    }\r\n\r\n    //////////////////////////////////////////////////////////\r\n    // Event Day Functions\r\n    function checkInTicket(uint256 tokenId)\r\n        public\r\n        onlyEventOrganizer\r\n        requireValidTicket(tokenId)\r\n        requiredEventStage(EventStage.SALES)\r\n    {\r\n        require(\r\n            IDToTicket[tokenId].isValid == true,\r\n            \"The ticket has been invalidated\"\r\n        );\r\n        require(\r\n            IDToTicket[tokenId].isCheckedIn == false,\r\n            \"Ticket is already checked in\"\r\n        );\r\n        IDToTicket[tokenId].isCheckedIn = true;\r\n        emit ticketCheckedIn(tokenId);\r\n    }\r\n\r\n    //////////////////////////////////////////////////////////\r\n    // Administration Functions\r\n    function invalidateTicket(uint256 tokenId)\r\n        public\r\n        onlyEventOrganizer\r\n        requireValidTicket(tokenId)\r\n    {\r\n        require(\r\n            IDToTicket[tokenId].isValid == true,\r\n            \"The ticket has already been invalidated\"\r\n        );\r\n\r\n        IDToTicket[tokenId].isValid = false;\r\n        emit ticketInvalidated(tokenId);\r\n    }\r\n\r\n    function validateTicket(uint256 tokenId)\r\n        public\r\n        onlyEventOrganizer\r\n        requireValidTicket(tokenId)\r\n    {\r\n        require(\r\n            IDToTicket[tokenId].isValid == false,\r\n            \"The ticket is already valid\"\r\n        );\r\n\r\n        IDToTicket[tokenId].isValid = true;\r\n        emit ticketValidated(tokenId);\r\n    }\r\n\r\n    //////////////////////////////////////////////////////\r\n    // state changing functions\r\n\r\n    // presalse --> sales\r\n    function changeStateToSales()\r\n        public\r\n        onlyEventOrganizer\r\n        requiredEventStage(EventStage.PRESALES)\r\n    {\r\n        currentStage = EventStage.SALES;\r\n    }\r\n\r\n    // sales --> during event\r\n    function changeStateToDuring()\r\n        public\r\n        onlyEventOrganizer\r\n        requiredEventStage(EventStage.SALES)\r\n    {\r\n        currentStage = EventStage.DURINGEVENT;\r\n        // transfer all tickets to their original owner\r\n        for (uint256 i = 0; i < numTickets; i++) {\r\n            safeTransferFrom(address(this), IDToTicket[i]._ticketOwner, i);\r\n        }\r\n    }\r\n\r\n    // during event --> post event\r\n    // called by the token owner\r\n    function changeStateToPostEvent()\r\n        public\r\n        onlyEventOrganizer\r\n        requiredEventStage(EventStage.DURINGEVENT)\r\n    {\r\n        currentStage = EventStage.POSTEVENT;\r\n    }\r\n\r\n    // getters\r\n    function getTicket(uint256 ticketId) public view returns (Ticket memory) {\r\n        return IDToTicket[ticketId];\r\n    }\r\n\r\n    function getEventName() public view returns (string memory) {\r\n        return eventName;\r\n    }\r\n\r\n    function getEventOrganizer() public view returns (address) {\r\n        return eventOrganizer;\r\n    }\r\n\r\n    function getLocation() public view returns (string memory) {\r\n        return location;\r\n    }\r\n\r\n    function getCompany() public view returns (string memory) {\r\n        return company;\r\n    }\r\n\r\n    function getTotalTickets() public view returns (uint256) {\r\n        return numTickets;\r\n    }\r\n\r\n    function getMaxTicksPerAddress() public view returns (uint256) {\r\n        return maxTicketsPerAddress;\r\n    }\r\n\r\n    function getComissionFee() public view returns (uint256) {\r\n        return commissionFee;\r\n    }\r\n\r\n    function getEventDate() public view returns (uint256) {\r\n        return eventDate;\r\n    }\r\n\r\n    function getTicketImageUrl() public view returns (string memory) {\r\n        return ticketImageUrl;\r\n    }\r\n\r\n    function getTicketsListForEventType(string memory _type)\r\n        public\r\n        view\r\n        returns (uint256[] memory)\r\n    {\r\n        return typeToTicketIds[_type];\r\n    }\r\n\r\n    function getCurrentTicketCount() public view returns (uint256) {\r\n        return ticketCountPerOwner[msg.sender];\r\n    }\r\n\r\n    function getCurrentEventStage() public view returns (EventStage) {\r\n        return currentStage;\r\n    }\r\n\r\n    function getEventContractAddress() public view returns (address) {\r\n        return address(this);\r\n    }\r\n}\r\n",
  "sourcePath": "C:\\Users\\Weilin\\OneDrive\\Documents\\School\\Y3S2\\IS4302\\IS4203_Group13\\contracts\\Event.sol",
  "compiler": {
    "name": "solc",
    "version": "0.8.7+commit.e28d00a7.Emscripten.clang"
  },
  "schemaVersion": "3.4.4",
  "updatedAt": "2022-04-09T10:55:26.069Z",
  "devdoc": {
    "kind": "dev",
    "methods": {
      "approve(address,uint256)": {
        "details": "See {IERC721-approve}."
      },
      "balanceOf(address)": {
        "details": "See {IERC721-balanceOf}."
      },
      "getApproved(uint256)": {
        "details": "See {IERC721-getApproved}."
      },
      "isApprovedForAll(address,address)": {
        "details": "See {IERC721-isApprovedForAll}."
      },
      "name()": {
        "details": "See {IERC721Metadata-name}."
      },
      "ownerOf(uint256)": {
        "details": "See {IERC721-ownerOf}."
      },
      "safeTransferFrom(address,address,uint256)": {
        "details": "See {IERC721-safeTransferFrom}."
      },
      "safeTransferFrom(address,address,uint256,bytes)": {
        "details": "See {IERC721-safeTransferFrom}."
      },
      "setApprovalForAll(address,bool)": {
        "details": "See {IERC721-setApprovalForAll}."
      },
      "supportsInterface(bytes4)": {
        "details": "See {IERC165-supportsInterface}."
      },
      "symbol()": {
        "details": "See {IERC721Metadata-symbol}."
      },
      "tokenURI(uint256)": {
        "details": "See {IERC721Metadata-tokenURI}."
      },
      "transferFrom(address,address,uint256)": {
        "details": "See {IERC721-transferFrom}."
      }
    },
    "version": 1
  },
  "userdoc": {
    "kind": "user",
    "methods": {},
    "version": 1
  }
}