{
  "contractName": "Event",
  "abi": [
    {
      "inputs": [
        {
          "internalType": "contract MarketPlace",
          "name": "marketplaceAddress",
          "type": "address"
        }
      ],
      "stateMutability": "nonpayable",
      "type": "constructor"
    },
    {
      "anonymous": false,
      "inputs": [
        {
          "indexed": true,
          "internalType": "address",
          "name": "previousOwner",
          "type": "address"
        },
        {
          "indexed": true,
          "internalType": "address",
          "name": "newOwner",
          "type": "address"
        }
      ],
      "name": "OwnershipTransferred",
      "type": "event"
    },
    {
      "anonymous": false,
      "inputs": [
        {
          "indexed": false,
          "internalType": "uint256",
          "name": "ticketId",
          "type": "uint256"
        }
      ],
      "name": "ticketCreated",
      "type": "event"
    },
    {
      "anonymous": false,
      "inputs": [
        {
          "indexed": false,
          "internalType": "uint256",
          "name": "ticketId",
          "type": "uint256"
        }
      ],
      "name": "ticketUnlisted",
      "type": "event"
    },
    {
      "inputs": [],
      "name": "numEvents",
      "outputs": [
        {
          "internalType": "uint256",
          "name": "",
          "type": "uint256"
        }
      ],
      "stateMutability": "view",
      "type": "function"
    },
    {
      "inputs": [],
      "name": "owner",
      "outputs": [
        {
          "internalType": "address",
          "name": "",
          "type": "address"
        }
      ],
      "stateMutability": "view",
      "type": "function"
    },
    {
      "inputs": [],
      "name": "renounceOwnership",
      "outputs": [],
      "stateMutability": "nonpayable",
      "type": "function"
    },
    {
      "inputs": [
        {
          "internalType": "uint256",
          "name": "",
          "type": "uint256"
        }
      ],
      "name": "ticketEvents",
      "outputs": [
        {
          "internalType": "string",
          "name": "_eventName",
          "type": "string"
        },
        {
          "internalType": "string",
          "name": "_symbol",
          "type": "string"
        },
        {
          "internalType": "string",
          "name": "_location",
          "type": "string"
        },
        {
          "internalType": "string",
          "name": "_company",
          "type": "string"
        },
        {
          "internalType": "uint256",
          "name": "_resaleCeiling",
          "type": "uint256"
        },
        {
          "internalType": "uint256",
          "name": "_maxTicketsPerAddress",
          "type": "uint256"
        },
        {
          "internalType": "uint256",
          "name": "_commissionFee",
          "type": "uint256"
        },
        {
          "internalType": "uint256",
          "name": "_eventDate",
          "type": "uint256"
        },
        {
          "internalType": "address",
          "name": "_eventOrganizer",
          "type": "address"
        },
        {
          "internalType": "enum Event.eventStage",
          "name": "stage",
          "type": "uint8"
        }
      ],
      "stateMutability": "view",
      "type": "function"
    },
    {
      "inputs": [
        {
          "internalType": "address",
          "name": "newOwner",
          "type": "address"
        }
      ],
      "name": "transferOwnership",
      "outputs": [],
      "stateMutability": "nonpayable",
      "type": "function"
    },
    {
      "inputs": [
        {
          "internalType": "string",
          "name": "_eventName",
          "type": "string"
        },
        {
          "internalType": "string",
          "name": "_symbol",
          "type": "string"
        },
        {
          "internalType": "string",
          "name": "_location",
          "type": "string"
        },
        {
          "internalType": "string",
          "name": "_company",
          "type": "string"
        },
        {
          "internalType": "uint256",
          "name": "_resaleCeiling",
          "type": "uint256"
        },
        {
          "internalType": "uint256",
          "name": "_maxTicketsPerAddress",
          "type": "uint256"
        },
        {
          "internalType": "uint256",
          "name": "_commissionFee",
          "type": "uint256"
        },
        {
          "internalType": "uint256",
          "name": "_eventDate",
          "type": "uint256"
        }
      ],
      "name": "createEvent",
      "outputs": [
        {
          "internalType": "uint256",
          "name": "",
          "type": "uint256"
        }
      ],
      "stateMutability": "nonpayable",
      "type": "function"
    },
    {
      "inputs": [
        {
          "internalType": "uint256",
          "name": "eventId",
          "type": "uint256"
        }
      ],
      "name": "getEventName",
      "outputs": [
        {
          "internalType": "string",
          "name": "",
          "type": "string"
        }
      ],
      "stateMutability": "view",
      "type": "function"
    },
    {
      "inputs": [
        {
          "internalType": "uint256",
          "name": "eventId",
          "type": "uint256"
        }
      ],
      "name": "getEventOrganizer",
      "outputs": [
        {
          "internalType": "address",
          "name": "",
          "type": "address"
        }
      ],
      "stateMutability": "view",
      "type": "function"
    },
    {
      "inputs": [
        {
          "internalType": "uint256",
          "name": "eventId",
          "type": "uint256"
        }
      ],
      "name": "getCompany",
      "outputs": [
        {
          "internalType": "string",
          "name": "",
          "type": "string"
        }
      ],
      "stateMutability": "view",
      "type": "function"
    },
    {
      "inputs": [
        {
          "internalType": "uint256",
          "name": "eventId",
          "type": "uint256"
        }
      ],
      "name": "getResaleCeiling",
      "outputs": [
        {
          "internalType": "uint256",
          "name": "",
          "type": "uint256"
        }
      ],
      "stateMutability": "view",
      "type": "function"
    },
    {
      "inputs": [
        {
          "internalType": "uint256",
          "name": "eventId",
          "type": "uint256"
        }
      ],
      "name": "getEventDate",
      "outputs": [
        {
          "internalType": "uint256",
          "name": "",
          "type": "uint256"
        }
      ],
      "stateMutability": "view",
      "type": "function"
    }
  ],
  "bytecode": "0x6080604052600060025534801561001557600080fd5b50604051610e3d380380610e3d833981016040819052610034916100cf565b61005661004864010000000061007b810204565b64010000000061007f810204565b60018054600160a060020a031916600160a060020a03929092169190911790556100ff565b3390565b60008054600160a060020a03838116600160a060020a0319831681178455604051919092169283917f8be0079c531659141344cd1fd0a4f28419497f9722a3daafe3b4186f6b6457e09190a35050565b6000602082840312156100e157600080fd5b8151600160a060020a03811681146100f857600080fd5b9392505050565b610d2f8061010e6000396000f3fe608060405234801561001057600080fd5b50600436106100c6576000357c010000000000000000000000000000000000000000000000000000000090048063715018a61161008e578063715018a6146101815780638da5cb5b1461018b578063978a07b81461019c578063b1f5a894146101af578063e9e59a6a146101d2578063f2fde38b146101fb57600080fd5b80632a4ecbd3146100cb57806334cf562b146101015780634945fcc71461010a57806355c734851461012a57806357d139171461016e575b600080fd5b6100ee6100d9366004610b32565b60009081526003602052604090206007015490565b6040519081526020015b60405180910390f35b6100ee60025481565b61011d610118366004610b32565b61020e565b6040516100f89190610b98565b610156610138366004610b32565b600090815260036020526040902060080154600160a060020a031690565b604051600160a060020a0390911681526020016100f8565b61011d61017c366004610b32565b6102b0565b6101896102d3565b005b600054600160a060020a0316610156565b6100ee6101aa366004610a61565b610358565b6100ee6101bd366004610b32565b60009081526003602052604090206004015490565b6101e56101e0366004610b32565b61050a565b6040516100f89a99989796959493929190610bab565b610189610209366004610a31565b610798565b600081815260036020526040902080546060919061022b90610c5d565b80601f016020809104026020016040519081016040528092919081815260200182805461025790610c5d565b80156102a45780601f10610279576101008083540402835291602001916102a4565b820191906000526020600020905b81548152906001019060200180831161028757829003601f168201915b50505050509050919050565b606060036000838152602001908152602001600020600301805461022b90610c5d565b600054600160a060020a0316331461034c576040517f08c379a000000000000000000000000000000000000000000000000000000000815260206004820181905260248201527f4f776e61626c653a2063616c6c6572206973206e6f7420746865206f776e657260448201526064015b60405180910390fd5b61035660006108ae565b565b6000806040518061014001604052808b81526020018a815260200189815260200188815260200187815260200186815260200185815260200184815260200133600160a060020a03168152602001600060038111156103b9576103b9610cc7565b90526002805491925060009190826103d083610c9b565b90915550600081815260036020908152604090912084518051939450859391926103ff9284929091019061090b565b506020828101518051610418926001850192019061090b565b506040820151805161043491600284019160209091019061090b565b506060820151805161045091600384019160209091019061090b565b506080820151600482015560a0820151600582015560c0820151600682015560e08201516007820155610100820151600882018054600160a060020a0390921673ffffffffffffffffffffffffffffffffffffffff198316811782556101208501519274ffffffffffffffffffffffffffffffffffffffffff191617740100000000000000000000000000000000000000008360038111156104f4576104f4610cc7565b0217905550919c9b505050505050505050505050565b60036020526000908152604090208054819061052590610c5d565b80601f016020809104026020016040519081016040528092919081815260200182805461055190610c5d565b801561059e5780601f106105735761010080835404028352916020019161059e565b820191906000526020600020905b81548152906001019060200180831161058157829003601f168201915b5050505050908060010180546105b390610c5d565b80601f01602080910402602001604051908101604052809291908181526020018280546105df90610c5d565b801561062c5780601f106106015761010080835404028352916020019161062c565b820191906000526020600020905b81548152906001019060200180831161060f57829003601f168201915b50505050509080600201805461064190610c5d565b80601f016020809104026020016040519081016040528092919081815260200182805461066d90610c5d565b80156106ba5780601f1061068f576101008083540402835291602001916106ba565b820191906000526020600020905b81548152906001019060200180831161069d57829003601f168201915b5050505050908060030180546106cf90610c5d565b80601f01602080910402602001604051908101604052809291908181526020018280546106fb90610c5d565b80156107485780601f1061071d57610100808354040283529160200191610748565b820191906000526020600020905b81548152906001019060200180831161072b57829003601f168201915b5050506004840154600585015460068601546007870154600890970154959692959194509250600160a060020a0381169060ff74010000000000000000000000000000000000000000909104168a565b600054600160a060020a0316331461080c576040517f08c379a000000000000000000000000000000000000000000000000000000000815260206004820181905260248201527f4f776e61626c653a2063616c6c6572206973206e6f7420746865206f776e65726044820152606401610343565b600160a060020a0381166108a2576040517f08c379a000000000000000000000000000000000000000000000000000000000815260206004820152602660248201527f4f776e61626c653a206e6577206f776e657220697320746865207a65726f206160448201527f64647265737300000000000000000000000000000000000000000000000000006064820152608401610343565b6108ab816108ae565b50565b60008054600160a060020a0383811673ffffffffffffffffffffffffffffffffffffffff19831681178455604051919092169283917f8be0079c531659141344cd1fd0a4f28419497f9722a3daafe3b4186f6b6457e09190a35050565b82805461091790610c5d565b90600052602060002090601f016020900481019282610939576000855561097f565b82601f1061095257805160ff191683800117855561097f565b8280016001018555821561097f579182015b8281111561097f578251825591602001919060010190610964565b5061098b92915061098f565b5090565b5b8082111561098b5760008155600101610990565b600082601f8301126109b557600080fd5b813567ffffffffffffffff808211156109d0576109d0610ce0565b604051601f8301601f19908116603f011681019082821181831017156109f8576109f8610ce0565b81604052838152866020858801011115610a1157600080fd5b836020870160208301376000602085830101528094505050505092915050565b600060208284031215610a4357600080fd5b8135600160a060020a0381168114610a5a57600080fd5b9392505050565b600080600080600080600080610100898b031215610a7e57600080fd5b883567ffffffffffffffff80821115610a9657600080fd5b610aa28c838d016109a4565b995060208b0135915080821115610ab857600080fd5b610ac48c838d016109a4565b985060408b0135915080821115610ada57600080fd5b610ae68c838d016109a4565b975060608b0135915080821115610afc57600080fd5b50610b098b828c016109a4565b989b979a50959860808101359760a0820135975060c0820135965060e090910135945092505050565b600060208284031215610b4457600080fd5b5035919050565b6000815180845260005b81811015610b7157602081850181015186830182015201610b55565b81811115610b83576000602083870101525b50601f01601f19169290920160200192915050565b602081526000610a5a6020830184610b4b565b6000610140808352610bbf8184018e610b4b565b90508281036020840152610bd3818d610b4b565b90508281036040840152610be7818c610b4b565b90508281036060840152610bfb818b610b4b565b9150508760808301528660a08301528560c08301528460e0830152600160a060020a03841661010083015260048310610c475760e060020a634e487b7102600052602160045260246000fd5b826101208301529b9a5050505050505050505050565b600281046001821680610c7157607f821691505b60208210811415610c955760e060020a634e487b7102600052602260045260246000fd5b50919050565b6000600019821415610cc05760e060020a634e487b7102600052601160045260246000fd5b5060010190565b60e060020a634e487b7102600052602160045260246000fd5b60e060020a634e487b7102600052604160045260246000fdfea2646970667358221220c87df176cdfac532f73c97b36c927d4ea1e99ef5b4205bae35c2120d314ed4e164736f6c63430008070033",
  "immutableReferences": {},
  "source": "// SPDX-License-Identifier: MIT\npragma solidity ^0.8.0;\nimport \"@openzeppelin/contracts/token/ERC721/ERC721.sol\";\nimport \"@openzeppelin/contracts/access/Ownable.sol\";\nimport \"./MarketPlace.sol\";\n\ncontract Event is Ownable {\n    MarketPlace marketplaceContract;\n    eventStage currentStage;\n    uint256 public numEvents = 0;\n    mapping(uint256 => ticketEvent) public ticketEvents;\n\n    enum eventStage {\n        PRESALES,\n        SALES,\n        DURINGEVENT,\n        POSTEVENT\n    }\n\n    event ticketCreated(uint256 ticketId);\n    event ticketUnlisted(uint256 ticketId);\n\n    modifier requiredEventStage(eventStage stage) {\n        require(\n            stage == currentStage,\n            \"The action is not available at this stage\"\n        );\n        _;\n    }\n\n    // modifier onlyTicketOwner(uint256 tokenId) {\n    //     require(_exists(tokenId), \"Please enter a valid ticket id\");\n    //     require(\n    //         IDToTicket[tokenId]._ticketOwner == msg.sender,\n    //         \"You're not authorized to perform this action\"\n    //     );\n    //     _;\n    // }\n\n    // modifier onlyEventOrganizer() {\n    //     require(\n    //         msg.sender == eventOrganizer,\n    //         \"Only the event organizer can perform this action\"\n    //     );\n    //     _;\n    // }\n\n    // modifier onlyMarketPlace() {\n    //     require(\n    //         msg.sender == marketPlaceAddress,\n    //         \"You're not authorized to perform this action\"\n    //     );\n    //     _;\n    // }\n\n    // modifier requireValidTicket(uint256 tokenId) {\n    //     require(_exists(tokenId), \"Please enter a valid ticket id\");\n    //     _;\n    // }\n\n    // modifier addressCanPurchaseMore(address buyer) {\n    //     require(\n    //         ticketCountPerOwner[buyer] < maxTicketsPerAddress,\n    //         \"Buyer already reached the max limit\"\n    //     );\n    //     _;\n    // }\n\n    struct ticketEvent {\n        // address _marketPlaceAddress;\n        string  _eventName;\n        string  _symbol;\n        string  _location;\n        string  _company;\n        uint256 _resaleCeiling;\n        uint256 _maxTicketsPerAddress;\n        uint256 _commissionFee;\n        uint256 _eventDate;\n        address _eventOrganizer;\n        eventStage stage;\n    }\n\n    constructor(MarketPlace marketplaceAddress)  {\n        marketplaceContract = marketplaceAddress;\n    }\n\n     function createEvent(\n        string memory _eventName,\n        string memory _symbol,\n        string memory _location,\n        string memory _company,\n        uint256 _resaleCeiling,\n        uint256 _maxTicketsPerAddress,\n        uint256 _commissionFee,\n        uint256 _eventDate\n    ) public returns(uint256) {\n        ticketEvent memory eventInstance = ticketEvent(\n            _eventName,\n            _symbol,\n            _location,\n            _company,\n            _resaleCeiling,\n            _maxTicketsPerAddress,\n            _commissionFee,\n            _eventDate,\n            msg.sender,\n            eventStage.PRESALES\n        );\n        uint256 newEventId = numEvents++;\n        ticketEvents[newEventId] = eventInstance;\n        return newEventId;\n    }\n\n\n    // function buyTicketsDuringPostEvent(uint256 tokenId)\n    //     public\n    //     payable\n    //     requireValidTicket(tokenId)\n    //     requiredEventStage(eventStage.POSTEVENT)\n    // {\n    //     Ticket memory ticketToBuy = IDToTicket[tokenId];\n    //     require(ticketToBuy.isListed == true, \"Cannot buy, Ticket not lised\");\n    //     // ticket count does not matter any more after the event\n    //     safeTransferFrom(ticketToBuy._ticketOwner, msg.sender, tokenId);\n    //     ticketToBuy._ticketOwner = msg.sender;\n    //     ticketToBuy.isListed = false;\n\n    //     // is tokenId == ticketId?\n    //     emit ticketBought(tokenId);\n    // }\n\n    // function buyTicketsDuringSales(uint256 tokenId)\n    //     public\n    //     payable\n    //     onlyOwner\n    //     requiredEventStage(eventStage.SALES)\n    //     requireValidTicket(tokenId)\n    //     addressCanPurchaseMore(msg.sender)\n    // {\n    //     uint256 payableAmount = IDToTicket[tokenId].listingPrice;\n    //     require(\n    //         msg.value >= payableAmount,\n    //         \"Insufficient funds to purchase ticket\"\n    //     );\n    //     require(IDToTicket[tokenId].isListed == true, \"Ticket not listed\");\n\n    //     uint256 amountPaid = msg.value;\n    //     // ticket was resold\n    //     if (IDToTicket[tokenId]._ticketOwner != address(0)) {\n    //         ticketCountPerOwner[IDToTicket[tokenId]._ticketOwner]--;\n    //         address payable reseller = payable(\n    //             address(uint160(IDToTicket[tokenId]._ticketOwner))\n    //         );\n    //         uint256 resaleValAfterCommission = amountPaid - commissionFee;\n    //         reseller.transfer(resaleValAfterCommission);\n    //     }\n\n    //     // tx.origin is used since the original buyer calls this function via market place contract\n    //     ticketCountPerOwner[tx.origin]++;\n\n    //     // can implement returning of balance if we want.\n    //     IDToTicket[tokenId]._ticketOwner = tx.origin;\n    //     IDToTicket[tokenId].isListed = false;\n    //     emit ticketBought(tokenId);\n    // }\n\n    // only need to list ticket during sales period\n    // after sales become post sales the ticket can be sold as an NFT\n    // function listTicket(uint256 tokenId, uint256 _newListingPrice)\n    //     public\n    //     requireValidTicket(tokenId)\n    //     onlyTicketOwner(tokenId)\n    //     requiredEventStage(eventStage.SALES)\n    // {\n    //     require(\n    //         IDToTicket[tokenId].isListed == false,\n    //         \"Ticket is currently listed\"\n    //     );\n\n    //     require(\n    //         _newListingPrice <= resaleCeiling + commissionFee,\n    //         string(\n    //             abi.encodePacked(\n    //                 \"Resale price cannot be greater than \",\n    //                 resaleCeiling\n    //             )\n    //         )\n    //     );\n\n    //     IDToTicket[tokenId].isListed = true;\n    //     emit ticketListed(tokenId);\n    // }\n\n    // function unlistTicket(uint256 tokenId)\n    //     public\n    //     requireValidTicket(tokenId)\n    //     onlyTicketOwner(tokenId)\n    //     requiredEventStage(eventStage.SALES)\n    // {\n    //     require(\n    //         IDToTicket[tokenId].isListed == true,\n    //         \"Ticket is currently unlisted\"\n    //     );\n    //     IDToTicket[tokenId].isListed = false;\n    //     emit ticketUnlisted(tokenId);\n    // }\n\n    //////////////////////////////////////////////////////////\n    // Event Day Functions\n    // function checkInTicket(uint256 tokenId)\n    //     public\n    //     onlyEventOrganizer\n    //     requireValidTicket(tokenId)\n    //     requiredEventStage(eventStage.SALES)\n    // {\n    //     require(\n    //         IDToTicket[tokenId].isValid == true,\n    //         \"The ticket has been invalidated\"\n    //     );\n    //     require(\n    //         IDToTicket[tokenId].isCheckedIn == false,\n    //         \"Ticket is already checked in\"\n    //     );\n    //     IDToTicket[tokenId].isCheckedIn = true;\n    //     emit ticketCheckedIn(tokenId);\n    // }\n\n    //////////////////////////////////////////////////////////\n    // Administration Functions\n    // function invalidateTicket(uint256 tokenId)\n    //     public\n    //     onlyEventOrganizer\n    //     requireValidTicket(tokenId)\n    // {\n    //     require(\n    //         IDToTicket[tokenId].isValid == true,\n    //         \"The ticket has already been invalidated\"\n    //     );\n\n    //     IDToTicket[tokenId].isValid = false;\n    //     emit ticketInvalidated(tokenId);\n    // }\n\n    // function validateTicket(uint256 tokenId)\n    //     public\n    //     onlyEventOrganizer\n    //     requireValidTicket(tokenId)\n    // {\n    //     require(\n    //         IDToTicket[tokenId].isValid == false,\n    //         \"The ticket is already valid\"\n    //     );\n\n    //     IDToTicket[tokenId].isValid = true;\n\n    //     emit ticketValidated(tokenId);\n    // }\n\n    //////////////////////////////////////////////////////\n    // state changing functions\n\n    // presalse --> sales\n    // function changeStateToSales()\n    //     public\n    //     onlyEventOrganizer\n    //     requiredEventStage(eventStage.PRESALES)\n    // {\n    //     currentStage = eventStage.SALES;\n    // }\n\n    // // sales --> during event\n    // function changeStateToDuring()\n    //     public\n    //     onlyEventOrganizer\n    //     requiredEventStage(eventStage.SALES)\n    // {\n    //     currentStage = eventStage.DURINGEVENT;\n    // }\n\n    // // during event --> post event\n    // // called by the token owner\n    // function changeStateToPostEvent()\n    //     public\n    //     onlyEventOrganizer\n    //     requiredEventStage(eventStage.DURINGEVENT)\n    // {\n    //     currentStage = eventStage.POSTEVENT;\n    // }\n\n    ////////////////////////////////////////////////////////////\n    //getters\n\n    // function getEventId() public view returns (uint256) {\n    //     return eventId;\n    // }\n\n    function getEventName(uint256 eventId) public view returns (string memory) {\n        return ticketEvents[eventId]._eventName;\n    }\n\n    function getEventOrganizer(uint256 eventId) public view returns (address) {\n        return ticketEvents[eventId]._eventOrganizer;\n    }\n\n    function getCompany(uint256 eventId) public view returns (string memory) {\n        return ticketEvents[eventId]._company;\n    }\n\n    function getResaleCeiling(uint256 eventId) public view returns (uint256) {\n        return ticketEvents[eventId]._resaleCeiling;\n    }\n\n    function getEventDate(uint256 eventId) public view returns (uint256) {\n        return ticketEvents[eventId]._eventDate;\n    }\n    \n\n\n\n    // function getMarketPlaceInstance() public view returns (MarketPlace) {\n    //     return marketPlace;\n    // }\n}\n",
  "sourcePath": "/Users/raymondhandoko/Documents/NUS/IS4302/IS4203_Group13/contracts/Event.sol",
  "compiler": {
    "name": "solc",
    "version": "0.8.7+commit.e28d00a7.Emscripten.clang"
  },
  "schemaVersion": "3.4.4",
  "updatedAt": "2022-04-06T08:59:40.225Z",
  "devdoc": {
    "kind": "dev",
    "methods": {
      "owner()": {
        "details": "Returns the address of the current owner."
      },
      "renounceOwnership()": {
        "details": "Leaves the contract without owner. It will not be possible to call `onlyOwner` functions anymore. Can only be called by the current owner. NOTE: Renouncing ownership will leave the contract without an owner, thereby removing any functionality that is only available to the owner."
      },
      "transferOwnership(address)": {
        "details": "Transfers ownership of the contract to a new account (`newOwner`). Can only be called by the current owner."
      }
    },
    "version": 1
  },
  "userdoc": {
    "kind": "user",
    "methods": {},
    "version": 1
  }
}