{
  "contractName": "MarketPlace",
  "abi": [
    {
      "inputs": [
        {
          "internalType": "uint256",
          "name": "_commissonFee",
          "type": "uint256"
        }
      ],
      "stateMutability": "nonpayable",
      "type": "constructor"
    },
    {
      "anonymous": false,
      "inputs": [
        {
          "indexed": false,
          "internalType": "uint256",
          "name": "eventId",
          "type": "uint256"
        },
        {
          "indexed": false,
          "internalType": "uint256",
          "name": "ticketId",
          "type": "uint256"
        }
      ],
      "name": "buyTicket",
      "type": "event"
    },
    {
      "anonymous": false,
      "inputs": [
        {
          "indexed": false,
          "internalType": "uint256",
          "name": "eventId",
          "type": "uint256"
        },
        {
          "indexed": false,
          "internalType": "string",
          "name": "eventName",
          "type": "string"
        }
      ],
      "name": "eventAdded",
      "type": "event"
    },
    {
      "inputs": [
        {
          "internalType": "address",
          "name": "operator",
          "type": "address"
        },
        {
          "internalType": "address",
          "name": "from",
          "type": "address"
        },
        {
          "internalType": "uint256",
          "name": "tokenId",
          "type": "uint256"
        },
        {
          "internalType": "bytes",
          "name": "data",
          "type": "bytes"
        }
      ],
      "name": "onERC721Received",
      "outputs": [
        {
          "internalType": "bytes4",
          "name": "",
          "type": "bytes4"
        }
      ],
      "stateMutability": "nonpayable",
      "type": "function"
    },
    {
      "inputs": [],
      "name": "getMarketPlaceAddress",
      "outputs": [
        {
          "internalType": "address",
          "name": "",
          "type": "address"
        }
      ],
      "stateMutability": "view",
      "type": "function"
    },
    {
      "inputs": [
        {
          "internalType": "uint256",
          "name": "eventId",
          "type": "uint256"
        }
      ],
      "name": "getEvent",
      "outputs": [
        {
          "internalType": "address",
          "name": "",
          "type": "address"
        }
      ],
      "stateMutability": "view",
      "type": "function"
    },
    {
      "inputs": [],
      "name": "getTotalEvents",
      "outputs": [
        {
          "internalType": "uint256",
          "name": "",
          "type": "uint256"
        }
      ],
      "stateMutability": "view",
      "type": "function"
    }
  ],
  "bytecode": "0x608060405260048054600160a060020a03191633179055600060055534801561002757600080fd5b506040516102eb3803806102eb83398101604081905261004691610053565b600160008190555561006c565b60006020828403121561006557600080fd5b5051919050565b6102708061007b6000396000f3fe608060405234801561001057600080fd5b5060043610610068577c01000000000000000000000000000000000000000000000000000000006000350463150b7a02811461006d57806361606940146100db578063694eaa40146100ec5780636d1884e014610113575b600080fd5b6100a561007b366004610186565b7f150b7a020000000000000000000000000000000000000000000000000000000095945050505050565b6040517fffffffff0000000000000000000000000000000000000000000000000000000090911681526020015b60405180910390f35b6005546040519081526020016100d2565b305b60405173ffffffffffffffffffffffffffffffffffffffff90911681526020016100d2565b6100ee610121366004610221565b60008160055481111561013357600080fd5b505060009081526002602052604090205473ffffffffffffffffffffffffffffffffffffffff1690565b803573ffffffffffffffffffffffffffffffffffffffff8116811461018157600080fd5b919050565b60008060008060006080868803121561019e57600080fd5b6101a78661015d565b94506101b56020870161015d565b935060408601359250606086013567ffffffffffffffff808211156101d957600080fd5b818801915088601f8301126101ed57600080fd5b8135818111156101fc57600080fd5b89602082850101111561020e57600080fd5b9699959850939650602001949392505050565b60006020828403121561023357600080fd5b503591905056fea2646970667358221220a57b64c0c302fa580aacf1c2ac6592ec1ca0ae0ab408d20c41c46d767d26225164736f6c63430008070033",
  "immutableReferences": {},
  "source": "// SPDX-License-Identifier: MIT\npragma solidity ^0.8.0;\nimport \"./Event.sol\";\nimport \"@openzeppelin/contracts/security/ReentrancyGuard.sol\";\nimport \"@openzeppelin/contracts/token/ERC721/IERC721Receiver.sol\";\n\ncontract MarketPlace is ReentrancyGuard, IERC721Receiver {\n    uint256 commissonFee;\n    //Event eventContract;\n    mapping(uint256 => address) events;\n    mapping(string => mapping(uint256 => uint256)) prices;\n    address _owner = msg.sender;\n    uint256 totalEvents = 0;\n\n    /*\n  constructor(uint256 _commissonFee, Event _eventContract) {\n    commissonFee = _commissonFee;\n    eventContract = _eventContract;\n  }\n  */\n\n    //mapping method\n    constructor(uint256 _commissonFee) {\n        commissonFee = _commissonFee;\n    }\n\n    modifier validEvent(uint256 eventId) {\n        require(eventId <= totalEvents);\n        _;\n    }\n\n    event eventAdded(uint256 eventId, string eventName);\n    event buyTicket(uint256 eventId, uint256 ticketId);\n\n     function onERC721Received( address operator, address from, uint256 tokenId, bytes calldata data ) public override returns (bytes4) {\n            return this.onERC721Received.selector;\n    }\n\n    // function onERC721Received(address _from, uint256 _tokenId, bytes _data) public returns(bytes4);\n    //   return this.onERC721Received.selector;\n    // }\n    // function addEvent(Event _event) public {\n    //     require(\n    //         address(events[_event.getEventId()]) == address(0),\n    //         \"There is an existing event with the same name\"\n    //     );\n    //     events[_event.getEventId()] = address(_event);\n    //     emit eventAdded(_event.getEventId(), _event.getEventName());\n    // }\n\n    // // list and unlist functions\n    // function list(\n    //     string memory eventName,\n    //     uint256 tokenId,\n    //     uint256 price\n    // ) public {\n    //     Event listedEvent = events[eventName];\n    //     /*\n    // require(\n    //   events[eventName] != null,\n    //   \"event does not exits\"\n    // );\n    // */\n    //     prices[eventName][tokenId] = price;\n    //     listedEvent.listTicket(tokenId);\n    // }\n\n    // function unlist(string memory eventName, uint256 tokenId) public {\n    //     Event listedEvent = events[eventName];\n    //     /*\n    // require(\n    //   events[eventName] != null,\n    //   \"event does not exits\"\n    // );\n    // */\n    //     prices[eventName][tokenId] = 0;\n    //     listedEvent.unlistTicket(tokenId);\n    // }\n\n    // // check price\n    // function checkPrice(string memory eventName, uint256 tokenId)\n    //     public\n    //     view\n    //     returns (uint256)\n    // {\n    //     // same require event exists\n    //     return prices[eventName][tokenId];\n    // }\n\n    // function buy(uint256 eventId, uint256 tokenId) public nonReentrant {\n    //     // same require event exists\n    //     Event listedEvent = Event(events[eventId]);\n    //     listedEvent.buyTicketsDuringSales(tokenId);\n    //     emit buyTicket(eventId, tokenId);\n    // }\n\n    // function createEvent(\n    //     string memory _eventName,\n    //     string memory _symbol,\n    //     string memory _location,\n    //     string memory _company,\n    //     uint256 _resaleCeiling,\n    //     uint256 _maxTicketsPerAddress,\n    //     uint256 _commissionFee,\n    //     uint256 _eventDate\n    // ) public {\n    //     totalEvents++;\n    //     Event eventInstance = new Event(\n    //         totalEvents,\n    //         _eventName,\n    //         _symbol,\n    //         _location,\n    //         _company,\n    //         _resaleCeiling,\n    //         _maxTicketsPerAddress,\n    //         _commissionFee,\n    //         _eventDate,\n    //         this\n    //     );\n\n    //     addEvent(eventInstance);\n    // }\n\n    ///////////////////////////////////////////////////////\n    //getters\n    function getMarketPlaceAddress() public view returns (address) {\n        return address(this);\n    }\n\n    function getEvent(uint256 eventId)\n        public\n        view\n        validEvent(eventId)\n        returns (address)\n    {\n        return events[eventId];\n    }\n\n    function getTotalEvents() public view returns (uint256) {\n        return totalEvents;\n    }\n}\n",
  "sourcePath": "/Users/raymondhandoko/Documents/NUS/IS4302/IS4203_Group13/contracts/MarketPlace.sol",
  "compiler": {
    "name": "solc",
    "version": "0.8.7+commit.e28d00a7.Emscripten.clang"
  },
  "schemaVersion": "3.4.4",
  "updatedAt": "2022-04-06T08:59:40.229Z",
  "devdoc": {
    "kind": "dev",
    "methods": {
      "onERC721Received(address,address,uint256,bytes)": {
        "details": "Whenever an {IERC721} `tokenId` token is transferred to this contract via {IERC721-safeTransferFrom} by `operator` from `from`, this function is called. It must return its Solidity selector to confirm the token transfer. If any other value is returned or the interface is not implemented by the recipient, the transfer will be reverted. The selector can be obtained in Solidity with `IERC721.onERC721Received.selector`."
      }
    },
    "version": 1
  },
  "userdoc": {
    "kind": "user",
    "methods": {},
    "version": 1
  }
}