{
  "contractName": "MarketPlace",
  "abi": [
    {
      "inputs": [],
      "stateMutability": "nonpayable",
      "type": "constructor"
    },
    {
      "anonymous": false,
      "inputs": [
        {
          "indexed": false,
          "internalType": "address",
          "name": "eventContractAddress",
          "type": "address"
        }
      ],
      "name": "eventAdded",
      "type": "event"
    },
    {
      "anonymous": false,
      "inputs": [
        {
          "indexed": false,
          "internalType": "uint256",
          "name": "tokenId",
          "type": "uint256"
        },
        {
          "indexed": false,
          "internalType": "uint256",
          "name": "price",
          "type": "uint256"
        }
      ],
      "name": "newTicketListed",
      "type": "event"
    },
    {
      "inputs": [
        {
          "internalType": "address",
          "name": "eventContractAddress",
          "type": "address"
        }
      ],
      "name": "addEvent",
      "outputs": [],
      "stateMutability": "nonpayable",
      "type": "function"
    },
    {
      "inputs": [
        {
          "internalType": "address",
          "name": "eventAddress",
          "type": "address"
        },
        {
          "internalType": "uint256",
          "name": "tokenId",
          "type": "uint256"
        }
      ],
      "name": "buy",
      "outputs": [],
      "stateMutability": "payable",
      "type": "function",
      "payable": true
    },
    {
      "inputs": [
        {
          "internalType": "address",
          "name": "eventAddress",
          "type": "address"
        },
        {
          "internalType": "uint256",
          "name": "tokenId",
          "type": "uint256"
        },
        {
          "internalType": "uint256",
          "name": "listedPrice",
          "type": "uint256"
        }
      ],
      "name": "listTicket",
      "outputs": [],
      "stateMutability": "nonpayable",
      "type": "function"
    },
    {
      "inputs": [
        {
          "internalType": "address",
          "name": "eventAddress",
          "type": "address"
        },
        {
          "internalType": "uint256",
          "name": "tokenId",
          "type": "uint256"
        }
      ],
      "name": "unlistTicket",
      "outputs": [],
      "stateMutability": "nonpayable",
      "type": "function"
    },
    {
      "inputs": [
        {
          "internalType": "address",
          "name": "eventAddress",
          "type": "address"
        }
      ],
      "name": "getEvent",
      "outputs": [
        {
          "internalType": "contract Event",
          "name": "",
          "type": "address"
        }
      ],
      "stateMutability": "view",
      "type": "function",
      "constant": true
    },
    {
      "inputs": [
        {
          "internalType": "address",
          "name": "eventAddress",
          "type": "address"
        },
        {
          "internalType": "uint256",
          "name": "tokenId",
          "type": "uint256"
        }
      ],
      "name": "getTicketPrice",
      "outputs": [
        {
          "internalType": "uint256",
          "name": "",
          "type": "uint256"
        }
      ],
      "stateMutability": "view",
      "type": "function",
      "constant": true
    },
    {
      "inputs": [
        {
          "internalType": "address",
          "name": "operator",
          "type": "address"
        },
        {
          "internalType": "address",
          "name": "from",
          "type": "address"
        },
        {
          "internalType": "uint256",
          "name": "tokenId",
          "type": "uint256"
        },
        {
          "internalType": "bytes",
          "name": "data",
          "type": "bytes"
        }
      ],
      "name": "onERC721Received",
      "outputs": [
        {
          "internalType": "bytes4",
          "name": "",
          "type": "bytes4"
        }
      ],
      "stateMutability": "pure",
      "type": "function",
      "constant": true
    },
    {
      "inputs": [
        {
          "internalType": "address",
          "name": "account",
          "type": "address"
        }
      ],
      "name": "upgradeAccountToGold",
      "outputs": [],
      "stateMutability": "nonpayable",
      "type": "function"
    },
    {
      "inputs": [
        {
          "internalType": "address",
          "name": "accountAddress",
          "type": "address"
        }
      ],
      "name": "getAccountPoints",
      "outputs": [
        {
          "internalType": "uint256",
          "name": "",
          "type": "uint256"
        }
      ],
      "stateMutability": "view",
      "type": "function",
      "constant": true
    }
  ],
  "bytecode": "0x6080604052600480546001600160a01b0319163317905534801561002257600080fd5b5061095d806100326000396000f3fe6080604052600436106100965760003560e01c8063a11dda2611610069578063cce7ec131161004e578063cce7ec1314610218578063e3d6f3811461022b578063f10b97b61461026e57600080fd5b8063a11dda26146101bf578063c7ae7451146101f857600080fd5b8063150b7a021461009b5780631d66b15c146101165780633311b405146101385780635f9bbb721461017b575b600080fd5b3480156100a757600080fd5b506100e06100b6366004610789565b7f150b7a020000000000000000000000000000000000000000000000000000000095945050505050565b6040517fffffffff0000000000000000000000000000000000000000000000000000000090911681526020015b60405180910390f35b34801561012257600080fd5b5061013661013136600461084e565b6102bf565b005b34801561014457600080fd5b50610136610153366004610824565b6001600160a01b03909116600090815260016020908152604080832093835292905290812055565b34801561018757600080fd5b506101b1610196366004610767565b6001600160a01b031660009081526002602052604090205490565b60405190815260200161010d565b3480156101cb57600080fd5b506101366101da366004610767565b6001600160a01b031660009081526002602052604090206105dd9055565b34801561020457600080fd5b50610136610213366004610767565b610321565b610136610226366004610824565b6103d2565b34801561023757600080fd5b506101b1610246366004610824565b6001600160a01b03919091166000908152600160209081526040808320938352929052205490565b34801561027a57600080fd5b506102a7610289366004610767565b6001600160a01b039081166000908152602081905260409020541690565b6040516001600160a01b03909116815260200161010d565b6001600160a01b038316600090815260016020908152604080832085845282529182902083905581518481529081018390527f3f72b37348e8c0749eb54ea001345c1b0171d9dff909f1552078cb9e517f1a3b910160405180910390a1505050565b6001600160a01b0381166000818152602081815260408083208054337fffffffffffffffffffffffff000000000000000000000000000000000000000091821681179092556003805460018101825595527fc2575a0e9e593c00f959f8c92f12db2869c3395a3b0502d05e2516446f71f85b90940180549094161790925590519182527f721ca03b8ccef446044e2f8a66950b77bf3fa7b92cf118b21b1506cd3b601018910160405180910390a150565b336000908152600260209081526040808320546001600160a01b0386168452600183528184208585529092529091205460056101f483111561041657506001610423565b60c8831115610423575060035b61042e8160016108a2565b61043890836108dc565b3410156104cb576040517f08c379a000000000000000000000000000000000000000000000000000000000815260206004820152602560248201527f496e73756666696369656e742066756e647320746f207075726368617365207460448201527f69636b6574000000000000000000000000000000000000000000000000000000606482015260840160405180910390fd5b6001600160a01b03808616600090815260208190526040902054166001816001600160a01b0316633dc0e1c96040518163ffffffff1660e01b815260040160206040518083038186803b15801561052157600080fd5b505afa158015610535573d6000803e3d6000fd5b505050506040513d601f19601f820116820180604052508101906105599190610881565b600381111561056a5761056a610911565b14156105ea576040517f4140fb22000000000000000000000000000000000000000000000000000000008152600481018690526001600160a01b03821690634140fb229034906024016000604051808303818588803b1580156105cc57600080fd5b505af11580156105e0573d6000803e3d6000fd5b50505050506106ea565b6003816001600160a01b0316633dc0e1c96040518163ffffffff1660e01b815260040160206040518083038186803b15801561062557600080fd5b505afa158015610639573d6000803e3d6000fd5b505050506040513d601f19601f8201168201806040525081019061065d9190610881565b600381111561066e5761066e610911565b14156106ea576040517f0244032e000000000000000000000000000000000000000000000000000000008152600481018690526001600160a01b03821690630244032e9034906024016000604051808303818588803b1580156106d057600080fd5b505af11580156106e4573d6000803e3d6000fd5b50505050505b6106fb66038d7ea4c68000846108ba565b336000908152600260205260408120805490919061071a9084906108a2565b90915550506001600160a01b0386166000908152600160209081526040808320888452909152812055505050505050565b80356001600160a01b038116811461076257600080fd5b919050565b60006020828403121561077957600080fd5b6107828261074b565b9392505050565b6000806000806000608086880312156107a157600080fd5b6107aa8661074b565b94506107b86020870161074b565b935060408601359250606086013567ffffffffffffffff808211156107dc57600080fd5b818801915088601f8301126107f057600080fd5b8135818111156107ff57600080fd5b89602082850101111561081157600080fd5b9699959850939650602001949392505050565b6000806040838503121561083757600080fd5b6108408361074b565b946020939093013593505050565b60008060006060848603121561086357600080fd5b61086c8461074b565b95602085013595506040909401359392505050565b60006020828403121561089357600080fd5b81516004811061078257600080fd5b600082198211156108b5576108b56108fb565b500190565b6000826108d757634e487b7160e01b600052601260045260246000fd5b500490565b60008160001904831182151516156108f6576108f66108fb565b500290565b634e487b7160e01b600052601160045260246000fd5b634e487b7160e01b600052602160045260246000fdfea2646970667358221220d4f0ee935515cf5b88a96e0aa94b49d58c877acf28521fdc9c5f2933a407c75b64736f6c63430008070033",
  "immutableReferences": {},
  "source": "// SPDX-License-Identifier: MIT\r\npragma solidity ^0.8.0;\r\nimport \"./Event.sol\";\r\nimport \"@openzeppelin/contracts/token/ERC721/IERC721Receiver.sol\";\r\n\r\ncontract MarketPlace is IERC721Receiver {\r\n    //uint256 commissonFee;\r\n    //Event eventContract;\r\n    mapping(address => Event) events;\r\n    mapping(address => mapping(uint256 => uint256)) private prices;\r\n\r\n    // there will be 3 tiers, average 3 dollars per point\r\n    // every 1 eth spend = 1000 points , 1 point = 1000000000000000 wei\r\n    // bronze tier = 0 - 600 points => normal commission\r\n    // silver >600-1500 =>  3%\r\n    //gold 1500 > 1%\r\n    mapping(address => uint256) points;\r\n\r\n    // solidity doesnt store keys of a mapping hence need to store all the event addresses here\r\n    address[] eventAddresses;\r\n\r\n    address _owner = msg.sender;\r\n\r\n    /*\r\n  constructor(uint256 _commissonFee, Event _eventContract) {\r\n    commissonFee = _commissonFee;\r\n    eventContract = _eventContract;\r\n  }\r\n  */\r\n\r\n    //mapping method\r\n    constructor() {}\r\n\r\n    event eventAdded(address eventContractAddress);\r\n    event newTicketListed(uint256 tokenId, uint256 price);\r\n\r\n    function addEvent(address eventContractAddress) public {\r\n        // require(\r\n        //     address(events[eventContractAddress]) == address(0),\r\n        //     \"There is an existing event with the same name\"\r\n        // );\r\n\r\n        events[eventContractAddress] = Event(msg.sender);\r\n        eventAddresses.push(msg.sender);\r\n        emit eventAdded(eventContractAddress);\r\n    }\r\n\r\n    function buy(address eventAddress, uint256 tokenId) public payable {\r\n        // same require event exists\r\n        uint256 userPoints = points[msg.sender];\r\n        uint256 listedPrice = prices[eventAddress][tokenId];\r\n\r\n        uint256 commissionFee = 5;\r\n        if (userPoints > 500) {\r\n            commissionFee = 1;\r\n        } else if (userPoints > 200) {\r\n            commissionFee = 3;\r\n        }\r\n        require(\r\n            msg.value >= listedPrice * (commissionFee + 100 / 100),\r\n            \"Insufficient funds to purchase ticket\"\r\n        );\r\n\r\n        Event listedEvent = events[eventAddress];\r\n        if (listedEvent.getCurrentEventStage() == Event.EventStage.SALES) {\r\n            listedEvent.buyTicketsDuringSales{value: msg.value}(tokenId);\r\n        } else if (\r\n            listedEvent.getCurrentEventStage() == Event.EventStage.POSTEVENT\r\n        ) {\r\n            listedEvent.buyTicketsDuringPostEvent{value: msg.value}(tokenId);\r\n        }\r\n\r\n        points[msg.sender] += (listedPrice / 1000000000000000);\r\n        unlistTicket(eventAddress, tokenId);\r\n    }\r\n\r\n    function listTicket(\r\n        address eventAddress,\r\n        uint256 tokenId,\r\n        uint256 listedPrice\r\n    ) public {\r\n        prices[eventAddress][tokenId] = listedPrice;\r\n        emit newTicketListed(tokenId, listedPrice);\r\n    }\r\n\r\n    function unlistTicket(address eventAddress, uint256 tokenId) public {\r\n        prices[eventAddress][tokenId] = 0;\r\n    }\r\n\r\n    ///getters\r\n    function getEvent(address eventAddress) public view returns (Event) {\r\n        return events[eventAddress];\r\n    }\r\n\r\n    function getTicketPrice(address eventAddress, uint256 tokenId)\r\n        public\r\n        view\r\n        returns (uint256)\r\n    {\r\n        return prices[eventAddress][tokenId];\r\n    }\r\n\r\n    function onERC721Received(\r\n        address operator,\r\n        address from,\r\n        uint256 tokenId,\r\n        bytes calldata data\r\n    ) public pure override returns (bytes4) {\r\n        return this.onERC721Received.selector;\r\n    }\r\n\r\n    // for demo purpose\r\n    function upgradeAccountToGold(address account) public {\r\n        points[account] = 1501;\r\n    }\r\n\r\n    function getAccountPoints(address accountAddress)\r\n        public\r\n        view\r\n        returns (uint256)\r\n    {\r\n        return points[accountAddress];\r\n    }\r\n}\r\n",
  "sourcePath": "C:\\Users\\choow\\Desktop\\NUS\\NUS School of Computing\\AY2021-22 Semester 2\\IS4302 - Blockchain and Distributed ledger Technologies\\SmartTix\\contracts\\MarketPlace.sol",
  "compiler": {
    "name": "solc",
    "version": "0.8.7+commit.e28d00a7.Emscripten.clang"
  },
  "schemaVersion": "3.4.7",
  "updatedAt": "2022-04-11T05:01:13.851Z",
  "networkType": "ethereum",
  "devdoc": {
    "kind": "dev",
    "methods": {
      "onERC721Received(address,address,uint256,bytes)": {
        "details": "Whenever an {IERC721} `tokenId` token is transferred to this contract via {IERC721-safeTransferFrom} by `operator` from `from`, this function is called. It must return its Solidity selector to confirm the token transfer. If any other value is returned or the interface is not implemented by the recipient, the transfer will be reverted. The selector can be obtained in Solidity with `IERC721.onERC721Received.selector`."
      }
    },
    "version": 1
  },
  "userdoc": {
    "kind": "user",
    "methods": {
      "getEvent(address)": {
        "notice": "getters"
      }
    },
    "version": 1
  }
}