{
  "contractName": "MarketPlace",
  "abi": [
    {
      "inputs": [],
      "stateMutability": "nonpayable",
      "type": "constructor"
    },
    {
      "anonymous": false,
      "inputs": [
        {
          "indexed": false,
          "internalType": "address",
          "name": "eventContractAddress",
          "type": "address"
        }
      ],
      "name": "eventAdded",
      "type": "event"
    },
    {
      "anonymous": false,
      "inputs": [
        {
          "indexed": false,
          "internalType": "address",
          "name": "eventAddress",
          "type": "address"
        }
      ],
      "name": "listed",
      "type": "event"
    },
    {
      "anonymous": false,
      "inputs": [
        {
          "indexed": false,
          "internalType": "uint256",
          "name": "price",
          "type": "uint256"
        }
      ],
      "name": "price",
      "type": "event"
    },
    {
      "inputs": [
        {
          "internalType": "address",
          "name": "eventContractAddress",
          "type": "address"
        }
      ],
      "name": "addEvent",
      "outputs": [],
      "stateMutability": "nonpayable",
      "type": "function"
    },
    {
      "inputs": [
        {
          "internalType": "address",
          "name": "eventAddress",
          "type": "address"
        },
        {
          "internalType": "uint256",
          "name": "tokenId",
          "type": "uint256"
        }
      ],
      "name": "buy",
      "outputs": [],
      "stateMutability": "payable",
      "type": "function"
    },
    {
      "inputs": [
        {
          "internalType": "address",
          "name": "eventAddress",
          "type": "address"
        },
        {
          "internalType": "uint256",
          "name": "tokenId",
          "type": "uint256"
        },
        {
          "internalType": "uint256",
          "name": "listedPrice",
          "type": "uint256"
        }
      ],
      "name": "listTicket",
      "outputs": [],
      "stateMutability": "nonpayable",
      "type": "function"
    },
    {
      "inputs": [
        {
          "internalType": "address",
          "name": "eventAddress",
          "type": "address"
        },
        {
          "internalType": "uint256",
          "name": "tokenId",
          "type": "uint256"
        }
      ],
      "name": "unlistTicket",
      "outputs": [],
      "stateMutability": "nonpayable",
      "type": "function"
    },
    {
      "inputs": [
        {
          "internalType": "address",
          "name": "eventAddress",
          "type": "address"
        }
      ],
      "name": "getEvent",
      "outputs": [
        {
          "internalType": "contract Event",
          "name": "",
          "type": "address"
        }
      ],
      "stateMutability": "view",
      "type": "function"
    },
    {
      "inputs": [
        {
          "internalType": "address",
          "name": "eventAddress",
          "type": "address"
        },
        {
          "internalType": "uint256",
          "name": "tokenId",
          "type": "uint256"
        }
      ],
      "name": "getTicketPrice",
      "outputs": [
        {
          "internalType": "uint256",
          "name": "",
          "type": "uint256"
        }
      ],
      "stateMutability": "view",
      "type": "function"
    },
    {
      "inputs": [
        {
          "internalType": "address",
          "name": "operator",
          "type": "address"
        },
        {
          "internalType": "address",
          "name": "from",
          "type": "address"
        },
        {
          "internalType": "uint256",
          "name": "tokenId",
          "type": "uint256"
        },
        {
          "internalType": "bytes",
          "name": "data",
          "type": "bytes"
        }
      ],
      "name": "onERC721Received",
      "outputs": [
        {
          "internalType": "bytes4",
          "name": "",
          "type": "bytes4"
        }
      ],
      "stateMutability": "pure",
      "type": "function"
    }
  ],
  "bytecode": "0x6080604052600480546001600160a01b0319163317905534801561002257600080fd5b5061094c806100326000396000f3fe6080604052600436106100705760003560e01c8063c7ae74511161004e578063c7ae745114610176578063cce7ec1314610196578063e3d6f381146101a9578063f10b97b6146101fa57600080fd5b8063150b7a02146100755780631d66b15c146100f05780633311b40514610133575b600080fd5b34801561008157600080fd5b506100ba610090366004610778565b7f150b7a020000000000000000000000000000000000000000000000000000000095945050505050565b6040517fffffffff0000000000000000000000000000000000000000000000000000000090911681526020015b60405180910390f35b3480156100fc57600080fd5b5061013161010b36600461083d565b6001600160a01b0390921660009081526001602090815260408083209383529290522055565b005b34801561013f57600080fd5b5061013161014e366004610813565b6001600160a01b03909116600090815260016020908152604080832093835292905290812055565b34801561018257600080fd5b50610131610191366004610756565b61024b565b6101316101a4366004610813565b6102fc565b3480156101b557600080fd5b506101ec6101c4366004610813565b6001600160a01b03919091166000908152600160209081526040808320938352929052205490565b6040519081526020016100e7565b34801561020657600080fd5b50610233610215366004610756565b6001600160a01b039081166000908152602081905260409020541690565b6040516001600160a01b0390911681526020016100e7565b6001600160a01b0381166000818152602081815260408083208054337fffffffffffffffffffffffff000000000000000000000000000000000000000091821681179092556003805460018101825595527fc2575a0e9e593c00f959f8c92f12db2869c3395a3b0502d05e2516446f71f85b90940180549094161790925590519182527f721ca03b8ccef446044e2f8a66950b77bf3fa7b92cf118b21b1506cd3b601018910160405180910390a150565b336000908152600260209081526040808320546001600160a01b0386168452600183528184208585529092529091205460056101f48311156103405750600161034d565b60c883111561034d575060035b610358816001610891565b61036290836108cb565b3410156103f5576040517f08c379a000000000000000000000000000000000000000000000000000000000815260206004820152602560248201527f496e73756666696369656e742066756e647320746f207075726368617365207460448201527f69636b6574000000000000000000000000000000000000000000000000000000606482015260840160405180910390fd5b6001600160a01b038581166000908152602081815260409182902054915191909216808252917f64138230022bbf3c1f3ccea65c10b88b43a38d32bda077da51a15a3d4597f7a6910160405180910390a16001816001600160a01b0316633dc0e1c96040518163ffffffff1660e01b815260040160206040518083038186803b15801561048157600080fd5b505afa158015610495573d6000803e3d6000fd5b505050506040513d601f19601f820116820180604052508101906104b99190610870565b60038111156104ca576104ca610900565b141561054a576040517f4140fb22000000000000000000000000000000000000000000000000000000008152600481018690526001600160a01b03821690634140fb229034906024016000604051808303818588803b15801561052c57600080fd5b505af1158015610540573d6000803e3d6000fd5b505050505061064a565b6003816001600160a01b0316633dc0e1c96040518163ffffffff1660e01b815260040160206040518083038186803b15801561058557600080fd5b505afa158015610599573d6000803e3d6000fd5b505050506040513d601f19601f820116820180604052508101906105bd9190610870565b60038111156105ce576105ce610900565b141561064a576040517f0244032e000000000000000000000000000000000000000000000000000000008152600481018690526001600160a01b03821690630244032e9034906024016000604051808303818588803b15801561063057600080fd5b505af1158015610644573d6000803e3d6000fd5b50505050505b6004546040518481526001600160a01b03909116907f26a49e37ea23cf1c2a7864eb447c46266d229919c0f96a4945703f61b7d800be9060200160405180910390a16001600160a01b0381166108fc60646106a586886108cb565b6106af91906108a9565b6040518115909202916000818181858888f193505050501580156106d7573d6000803e3d6000fd5b506106e9660aa87bee538000856108a9565b3360009081526002602052604081208054909190610708908490610891565b90915550506001600160a01b038716600090815260016020908152604080832089845290915281205550505050505050565b80356001600160a01b038116811461075157600080fd5b919050565b60006020828403121561076857600080fd5b6107718261073a565b9392505050565b60008060008060006080868803121561079057600080fd5b6107998661073a565b94506107a76020870161073a565b935060408601359250606086013567ffffffffffffffff808211156107cb57600080fd5b818801915088601f8301126107df57600080fd5b8135818111156107ee57600080fd5b89602082850101111561080057600080fd5b9699959850939650602001949392505050565b6000806040838503121561082657600080fd5b61082f8361073a565b946020939093013593505050565b60008060006060848603121561085257600080fd5b61085b8461073a565b95602085013595506040909401359392505050565b60006020828403121561088257600080fd5b81516004811061077157600080fd5b600082198211156108a4576108a46108ea565b500190565b6000826108c657634e487b7160e01b600052601260045260246000fd5b500490565b60008160001904831182151516156108e5576108e56108ea565b500290565b634e487b7160e01b600052601160045260246000fd5b634e487b7160e01b600052602160045260246000fdfea2646970667358221220528e6d627791f26b606e8e4383a24799bd02b99b6045d0664321b0d3bdda8be264736f6c63430008070033",
  "immutableReferences": {},
  "source": "// SPDX-License-Identifier: MIT\r\npragma solidity ^0.8.0;\r\nimport \"./Event.sol\";\r\nimport \"@openzeppelin/contracts/token/ERC721/IERC721Receiver.sol\";\r\n\r\ncontract MarketPlace is IERC721Receiver {\r\n    //uint256 commissonFee;\r\n    //Event eventContract;\r\n    mapping(address => Event) events;\r\n    mapping(address => mapping(uint256 => uint256)) private prices;\r\n\r\n    // there will be 3 tiers, average 3 dollars per point\r\n    // every 1 eth spend = 1000 points , 1 point = 1000000000000000 wei\r\n    // bronze tier = 0 - 600 points => normal commission\r\n    // silver >600-1500 =>  3%\r\n    //gold 1500 > 1%\r\n    mapping(address => uint256) points;\r\n\r\n    // solidity doesnt store keys of a mapping hence need to store all the event addresses here\r\n    address[] eventAddresses;\r\n\r\n    address _owner = msg.sender;\r\n\r\n    /*\r\n  constructor(uint256 _commissonFee, Event _eventContract) {\r\n    commissonFee = _commissonFee;\r\n    eventContract = _eventContract;\r\n  }\r\n  */\r\n\r\n    //mapping method\r\n    constructor() {}\r\n\r\n    event eventAdded(address eventContractAddress);\r\n    event listed(address eventAddress);\r\n    event price(uint256 price);\r\n\r\n    function addEvent(address eventContractAddress) public {\r\n        // require(\r\n        //     address(events[eventContractAddress]) == address(0),\r\n        //     \"There is an existing event with the same name\"\r\n        // );\r\n\r\n        events[eventContractAddress] = Event(msg.sender);\r\n        eventAddresses.push(msg.sender);\r\n        emit eventAdded(eventContractAddress);\r\n    }\r\n\r\n    function buy(address eventAddress, uint256 tokenId) public payable {\r\n        // same require event exists\r\n        uint256 userPoints = points[msg.sender];\r\n        uint256 listedPrice = prices[eventAddress][tokenId];\r\n\r\n        uint256 commissionFee = 5;\r\n        if (userPoints > 500) {\r\n            commissionFee = 1;\r\n        } else if (userPoints > 200) {\r\n            commissionFee = 3;\r\n        }\r\n        require(\r\n            msg.value >= listedPrice * (commissionFee + 100 / 100),\r\n            \"Insufficient funds to purchase ticket\"\r\n        );\r\n\r\n        Event listedEvent = events[eventAddress];\r\n        emit listed(address(listedEvent));\r\n        if (listedEvent.getCurrentEventStage() == Event.EventStage.SALES) {\r\n            listedEvent.buyTicketsDuringSales{value: msg.value}(tokenId);\r\n        } else if (\r\n            listedEvent.getCurrentEventStage() == Event.EventStage.POSTEVENT\r\n        ) {\r\n            listedEvent.buyTicketsDuringPostEvent{value: msg.value}(tokenId);\r\n        }\r\n        address payable owner = payable(address(uint160(_owner)));\r\n        emit price(listedPrice);\r\n        owner.transfer((listedPrice * commissionFee) / 100);\r\n\r\n        points[msg.sender] += (listedPrice / 3000000000000000);\r\n        unlistTicket(eventAddress, tokenId);\r\n    }\r\n\r\n    function listTicket(\r\n        address eventAddress,\r\n        uint256 tokenId,\r\n        uint256 listedPrice\r\n    ) public {\r\n        prices[eventAddress][tokenId] = listedPrice;\r\n    }\r\n\r\n    function unlistTicket(address eventAddress, uint256 tokenId) public {\r\n        prices[eventAddress][tokenId] = 0;\r\n    }\r\n\r\n    ///getters\r\n    function getEvent(address eventAddress) public view returns (Event) {\r\n        return events[eventAddress];\r\n    }\r\n\r\n    function getTicketPrice(address eventAddress, uint256 tokenId)\r\n        public\r\n        view\r\n        returns (uint256)\r\n    {\r\n        return prices[eventAddress][tokenId];\r\n    }\r\n\r\n    function onERC721Received(\r\n        address operator,\r\n        address from,\r\n        uint256 tokenId,\r\n        bytes calldata data\r\n    ) public pure override returns (bytes4) {\r\n        return this.onERC721Received.selector;\r\n    }\r\n    // // list and unlist functions\r\n    // function list(\r\n    //     string memory eventName,\r\n    //     uint256 tokenId,\r\n    //     uint256 price\r\n    // ) public {\r\n    //     Event listedEvent = events[eventName];\r\n    //     /*\r\n    // require(\r\n    //   events[eventName] != null,\r\n    //   \"event does not exits\"\r\n    // );\r\n    // */\r\n    //     prices[eventName][tokenId] = price;\r\n    //     listedEvent.listTicket(tokenId);\r\n    // }\r\n\r\n    // function unlist(string memory eventName, uint256 tokenId) public {\r\n    //     Event listedEvent = events[eventName];\r\n    //     /*\r\n    // require(\r\n    //   events[eventName] != null,\r\n    //   \"event does not exits\"\r\n    // );\r\n    // */\r\n    //     prices[eventName][tokenId] = 0;\r\n    //     listedEvent.unlistTicket(tokenId);\r\n    // }\r\n\r\n    // // check price\r\n    // function checkPrice(string memory eventName, uint256 tokenId)\r\n    //     public\r\n    //     view\r\n    //     returns (uint256)\r\n    // {\r\n    //     // same require event exists\r\n    //     return prices[eventName][tokenId];\r\n    // }\r\n}\r\n",
  "sourcePath": "C:\\Users\\Weilin\\OneDrive\\Documents\\School\\Y3S2\\IS4302\\IS4203_Group13\\contracts\\MarketPlace.sol",
  "compiler": {
    "name": "solc",
    "version": "0.8.7+commit.e28d00a7.Emscripten.clang"
  },
  "schemaVersion": "3.4.4",
  "updatedAt": "2022-04-09T10:55:26.109Z",
  "devdoc": {
    "kind": "dev",
    "methods": {
      "onERC721Received(address,address,uint256,bytes)": {
        "details": "Whenever an {IERC721} `tokenId` token is transferred to this contract via {IERC721-safeTransferFrom} by `operator` from `from`, this function is called. It must return its Solidity selector to confirm the token transfer. If any other value is returned or the interface is not implemented by the recipient, the transfer will be reverted. The selector can be obtained in Solidity with `IERC721.onERC721Received.selector`."
      }
    },
    "version": 1
  },
  "userdoc": {
    "kind": "user",
    "methods": {
      "getEvent(address)": {
        "notice": "getters"
      }
    },
    "version": 1
  }
}