{
  "contractName": "MarketPlace",
  "abi": [
    {
      "inputs": [],
      "stateMutability": "nonpayable",
      "type": "constructor"
    },
    {
      "anonymous": false,
      "inputs": [
        {
          "indexed": false,
          "internalType": "address",
          "name": "eventContractAddress",
          "type": "address"
        }
      ],
      "name": "eventAdded",
      "type": "event"
    },
    {
      "inputs": [
        {
          "internalType": "address",
          "name": "eventContractAddress",
          "type": "address"
        }
      ],
      "name": "addEvent",
      "outputs": [],
      "stateMutability": "nonpayable",
      "type": "function"
    },
    {
      "inputs": [
        {
          "internalType": "address",
          "name": "operator",
          "type": "address"
        },
        {
          "internalType": "address",
          "name": "from",
          "type": "address"
        },
        {
          "internalType": "uint256",
          "name": "tokenId",
          "type": "uint256"
        },
        {
          "internalType": "bytes",
          "name": "data",
          "type": "bytes"
        }
      ],
      "name": "onERC721Received",
      "outputs": [
        {
          "internalType": "bytes4",
          "name": "",
          "type": "bytes4"
        }
      ],
      "stateMutability": "nonpayable",
      "type": "function"
    },
    {
      "inputs": [
        {
          "internalType": "address",
          "name": "eventContractAddress",
          "type": "address"
        },
        {
          "internalType": "uint256",
          "name": "tokenId",
          "type": "uint256"
        }
      ],
      "name": "buy",
      "outputs": [],
      "stateMutability": "nonpayable",
      "type": "function"
    }
  ],
  "bytecode": "0x608060405233600260006101000a81548173ffffffffffffffffffffffffffffffffffffffff021916908373ffffffffffffffffffffffffffffffffffffffff16021790555034801561005157600080fd5b50610525806100616000396000f3fe608060405234801561001057600080fd5b50600436106100415760003560e01c8063150b7a0214610046578063c7ae745114610076578063cce7ec1314610092575b600080fd5b610060600480360381019061005b91906102fa565b6100ae565b60405161006d919061040a565b60405180910390f35b610090600480360381019061008b91906102cd565b6100c3565b005b6100ac60048036038101906100a79190610382565b61017a565b005b600063150b7a0260e01b905095945050505050565b336000808373ffffffffffffffffffffffffffffffffffffffff1673ffffffffffffffffffffffffffffffffffffffff16815260200190815260200160002060006101000a81548173ffffffffffffffffffffffffffffffffffffffff021916908373ffffffffffffffffffffffffffffffffffffffff1602179055507f721ca03b8ccef446044e2f8a66950b77bf3fa7b92cf118b21b1506cd3b6010188160405161016f91906103ef565b60405180910390a150565b60008060008473ffffffffffffffffffffffffffffffffffffffff1673ffffffffffffffffffffffffffffffffffffffff16815260200190815260200160002060009054906101000a900473ffffffffffffffffffffffffffffffffffffffff1690508073ffffffffffffffffffffffffffffffffffffffff16634140fb22836040518263ffffffff1660e01b81526004016102169190610425565b600060405180830381600087803b15801561023057600080fd5b505af1158015610244573d6000803e3d6000fd5b50505050505050565b60008135905061025c816104c1565b92915050565b60008083601f840112610278576102776104ad565b5b8235905067ffffffffffffffff811115610295576102946104a8565b5b6020830191508360018202830111156102b1576102b06104b2565b5b9250929050565b6000813590506102c7816104d8565b92915050565b6000602082840312156102e3576102e26104bc565b5b60006102f18482850161024d565b91505092915050565b600080600080600060808688031215610316576103156104bc565b5b60006103248882890161024d565b95505060206103358882890161024d565b9450506040610346888289016102b8565b935050606086013567ffffffffffffffff811115610367576103666104b7565b5b61037388828901610262565b92509250509295509295909350565b60008060408385031215610399576103986104bc565b5b60006103a78582860161024d565b92505060206103b8858286016102b8565b9150509250929050565b6103cb81610440565b82525050565b6103da81610452565b82525050565b6103e98161049e565b82525050565b600060208201905061040460008301846103c2565b92915050565b600060208201905061041f60008301846103d1565b92915050565b600060208201905061043a60008301846103e0565b92915050565b600061044b8261047e565b9050919050565b60007fffffffff0000000000000000000000000000000000000000000000000000000082169050919050565b600073ffffffffffffffffffffffffffffffffffffffff82169050919050565b6000819050919050565b600080fd5b600080fd5b600080fd5b600080fd5b600080fd5b6104ca81610440565b81146104d557600080fd5b50565b6104e18161049e565b81146104ec57600080fd5b5056fea2646970667358221220ddc63f7e4358949237a98498fc8fb73ec1429bfcb5913bd5d271424c1c51260e64736f6c63430008070033",
  "immutableReferences": {},
  "source": "// SPDX-License-Identifier: MIT\npragma solidity ^0.8.0;\nimport \"./Event.sol\";\nimport \"@openzeppelin/contracts/token/ERC721/IERC721Receiver.sol\";\n\ncontract MarketPlace is IERC721Receiver{\n    //uint256 commissonFee;\n    //Event eventContract;\n    mapping(address => Event) events;\n    mapping(string => mapping(uint256 => uint256)) prices;\n    address _owner = msg.sender;\n\n    /*\n  constructor(uint256 _commissonFee, Event _eventContract) {\n    commissonFee = _commissonFee;\n    eventContract = _eventContract;\n  }\n  */\n\n    //mapping method\n    constructor() {}\n\n    event eventAdded(address eventContractAddress);\n\n    function addEvent(address eventContractAddress) public {\n        // require(\n        //     address(events[eventContractAddress]) == address(0),\n        //     \"There is an existing event with the same name\"\n        // );\n        events[eventContractAddress] = Event(msg.sender);\n        emit eventAdded(eventContractAddress);\n    }\n\n  function onERC721Received( address operator, address from, uint256 tokenId, bytes calldata data ) public override returns (bytes4) {\n            return this.onERC721Received.selector;\n    }\n    // // list and unlist functions\n    // function list(\n    //     string memory eventName,\n    //     uint256 tokenId,\n    //     uint256 price\n    // ) public {\n    //     Event listedEvent = events[eventName];\n    //     /*\n    // require(\n    //   events[eventName] != null,\n    //   \"event does not exits\"\n    // );\n    // */\n    //     prices[eventName][tokenId] = price;\n    //     listedEvent.listTicket(tokenId);\n    // }\n\n    // function unlist(string memory eventName, uint256 tokenId) public {\n    //     Event listedEvent = events[eventName];\n    //     /*\n    // require(\n    //   events[eventName] != null,\n    //   \"event does not exits\"\n    // );\n    // */\n    //     prices[eventName][tokenId] = 0;\n    //     listedEvent.unlistTicket(tokenId);\n    // }\n\n    // // check price\n    // function checkPrice(string memory eventName, uint256 tokenId)\n    //     public\n    //     view\n    //     returns (uint256)\n    // {\n    //     // same require event exists\n    //     return prices[eventName][tokenId];\n    // }\n\n    function buy(address eventContractAddress, uint256 tokenId) public {\n        // same require event exists\n        Event listedEvent = events[eventContractAddress];\n        listedEvent.buyTicketsDuringSales(tokenId);\n    }\n}\n",
  "sourcePath": "/Users/raymondhandoko/Documents/NUS/IS4302/group_project/IS4203_Group13/contracts/MarketPlace.sol",
  "compiler": {
    "name": "solc",
    "version": "0.8.7+commit.e28d00a7.Emscripten.clang"
  },
  "schemaVersion": "3.4.4",
  "updatedAt": "2022-04-08T06:35:11.569Z",
  "devdoc": {
    "kind": "dev",
    "methods": {
      "onERC721Received(address,address,uint256,bytes)": {
        "details": "Whenever an {IERC721} `tokenId` token is transferred to this contract via {IERC721-safeTransferFrom} by `operator` from `from`, this function is called. It must return its Solidity selector to confirm the token transfer. If any other value is returned or the interface is not implemented by the recipient, the transfer will be reverted. The selector can be obtained in Solidity with `IERC721.onERC721Received.selector`."
      }
    },
    "version": 1
  },
  "userdoc": {
    "kind": "user",
    "methods": {},
    "version": 1
  }
}