{
  "contractName": "MarketPlace",
  "abi": [
    {
      "inputs": [
        {
          "internalType": "uint256",
          "name": "_commissonFee",
          "type": "uint256"
        }
      ],
      "stateMutability": "nonpayable",
      "type": "constructor"
    },
    {
      "anonymous": false,
      "inputs": [
        {
          "indexed": false,
          "internalType": "uint256",
          "name": "eventId",
          "type": "uint256"
        },
        {
          "indexed": false,
          "internalType": "uint256",
          "name": "ticketId",
          "type": "uint256"
        }
      ],
      "name": "buyTicket",
      "type": "event"
    },
    {
      "anonymous": false,
      "inputs": [
        {
          "indexed": false,
          "internalType": "uint256",
          "name": "eventId",
          "type": "uint256"
        },
        {
          "indexed": false,
          "internalType": "string",
          "name": "eventName",
          "type": "string"
        }
      ],
      "name": "eventAdded",
      "type": "event"
    },
    {
      "inputs": [],
      "name": "getMarketPlaceAddress",
      "outputs": [
        {
          "internalType": "address",
          "name": "",
          "type": "address"
        }
      ],
      "stateMutability": "view",
      "type": "function"
    },
    {
      "inputs": [
        {
          "internalType": "uint256",
          "name": "eventId",
          "type": "uint256"
        }
      ],
      "name": "getEvent",
      "outputs": [
        {
          "internalType": "address",
          "name": "",
          "type": "address"
        }
      ],
      "stateMutability": "view",
      "type": "function"
    },
    {
      "inputs": [],
      "name": "getTotalEvents",
      "outputs": [
        {
          "internalType": "uint256",
          "name": "",
          "type": "uint256"
        }
      ],
      "stateMutability": "view",
      "type": "function"
    }
  ],
  "bytecode": "0x608060405260048054600160a060020a03191633179055600060055534801561002757600080fd5b506040516101a83803806101a883398101604081905261004691610053565b600160008190555561006c565b60006020828403121561006557600080fd5b5051919050565b61012d8061007b6000396000f3fe6080604052348015600f57600080fd5b50600436106058577c01000000000000000000000000000000000000000000000000000000006000350463616069408114605d578063694eaa401460735780636d1884e0146099575b600080fd5b6005546040519081526020015b60405180910390f35b305b60405173ffffffffffffffffffffffffffffffffffffffff9091168152602001606a565b607560a436600460df565b60008160055481111560b557600080fd5b505060009081526002602052604090205473ffffffffffffffffffffffffffffffffffffffff1690565b60006020828403121560f057600080fd5b503591905056fea2646970667358221220bf0755d3405d3d14d4eb285cc9773ef16a63d2f7c2dfb9b562f0f3061d05def964736f6c63430008070033",
  "immutableReferences": {},
  "source": "// SPDX-License-Identifier: MIT\npragma solidity ^0.8.0;\nimport \"./Event.sol\";\nimport \"@openzeppelin/contracts/security/ReentrancyGuard.sol\";\n\ncontract MarketPlace is ReentrancyGuard {\n    uint256 commissonFee;\n    //Event eventContract;\n    mapping(uint256 => address) events;\n    mapping(string => mapping(uint256 => uint256)) prices;\n    address _owner = msg.sender;\n    uint256 totalEvents = 0;\n\n    /*\n  constructor(uint256 _commissonFee, Event _eventContract) {\n    commissonFee = _commissonFee;\n    eventContract = _eventContract;\n  }\n  */\n\n    //mapping method\n    constructor(uint256 _commissonFee) {\n        commissonFee = _commissonFee;\n    }\n\n    modifier validEvent(uint256 eventId) {\n        require(eventId <= totalEvents);\n        _;\n    }\n\n    event eventAdded(uint256 eventId, string eventName);\n    event buyTicket(uint256 eventId, uint256 ticketId);\n\n    // function addEvent(Event _event) public {\n    //     require(\n    //         address(events[_event.getEventId()]) == address(0),\n    //         \"There is an existing event with the same name\"\n    //     );\n    //     events[_event.getEventId()] = address(_event);\n    //     emit eventAdded(_event.getEventId(), _event.getEventName());\n    // }\n\n    // // list and unlist functions\n    // function list(\n    //     string memory eventName,\n    //     uint256 tokenId,\n    //     uint256 price\n    // ) public {\n    //     Event listedEvent = events[eventName];\n    //     /*\n    // require(\n    //   events[eventName] != null,\n    //   \"event does not exits\"\n    // );\n    // */\n    //     prices[eventName][tokenId] = price;\n    //     listedEvent.listTicket(tokenId);\n    // }\n\n    // function unlist(string memory eventName, uint256 tokenId) public {\n    //     Event listedEvent = events[eventName];\n    //     /*\n    // require(\n    //   events[eventName] != null,\n    //   \"event does not exits\"\n    // );\n    // */\n    //     prices[eventName][tokenId] = 0;\n    //     listedEvent.unlistTicket(tokenId);\n    // }\n\n    // // check price\n    // function checkPrice(string memory eventName, uint256 tokenId)\n    //     public\n    //     view\n    //     returns (uint256)\n    // {\n    //     // same require event exists\n    //     return prices[eventName][tokenId];\n    // }\n\n    // function buy(uint256 eventId, uint256 tokenId) public nonReentrant {\n    //     // same require event exists\n    //     Event listedEvent = Event(events[eventId]);\n    //     listedEvent.buyTicketsDuringSales(tokenId);\n    //     emit buyTicket(eventId, tokenId);\n    // }\n\n    // function createEvent(\n    //     string memory _eventName,\n    //     string memory _symbol,\n    //     string memory _location,\n    //     string memory _company,\n    //     uint256 _resaleCeiling,\n    //     uint256 _maxTicketsPerAddress,\n    //     uint256 _commissionFee,\n    //     uint256 _eventDate\n    // ) public {\n    //     totalEvents++;\n    //     Event eventInstance = new Event(\n    //         totalEvents,\n    //         _eventName,\n    //         _symbol,\n    //         _location,\n    //         _company,\n    //         _resaleCeiling,\n    //         _maxTicketsPerAddress,\n    //         _commissionFee,\n    //         _eventDate,\n    //         this\n    //     );\n\n    //     addEvent(eventInstance);\n    // }\n\n    ///////////////////////////////////////////////////////\n    //getters\n    function getMarketPlaceAddress() public view returns (address) {\n        return address(this);\n    }\n\n    function getEvent(uint256 eventId)\n        public\n        view\n        validEvent(eventId)\n        returns (address)\n    {\n        return events[eventId];\n    }\n\n    function getTotalEvents() public view returns (uint256) {\n        return totalEvents;\n    }\n}\n",
  "sourcePath": "/Users/raymondhandoko/Documents/NUS/IS4302/IS4203_Group13/contracts/MarketPlace.sol",
  "compiler": {
    "name": "solc",
    "version": "0.8.7+commit.e28d00a7.Emscripten.clang"
  },
  "schemaVersion": "3.4.4",
  "updatedAt": "2022-04-06T08:16:27.762Z",
  "devdoc": {
    "kind": "dev",
    "methods": {},
    "version": 1
  },
  "userdoc": {
    "kind": "user",
    "methods": {},
    "version": 1
  }
}