{
  "contractName": "Ticket",
  "abi": [
    {
      "inputs": [
        {
          "internalType": "string",
          "name": "name",
          "type": "string"
        },
        {
          "internalType": "string",
          "name": "symbol",
          "type": "string"
        },
        {
          "internalType": "contract MarketPlace",
          "name": "marketplaceAddress",
          "type": "address"
        },
        {
          "internalType": "contract Event",
          "name": "eventAddress",
          "type": "address"
        }
      ],
      "stateMutability": "nonpayable",
      "type": "constructor"
    },
    {
      "anonymous": false,
      "inputs": [
        {
          "indexed": true,
          "internalType": "address",
          "name": "owner",
          "type": "address"
        },
        {
          "indexed": true,
          "internalType": "address",
          "name": "approved",
          "type": "address"
        },
        {
          "indexed": true,
          "internalType": "uint256",
          "name": "tokenId",
          "type": "uint256"
        }
      ],
      "name": "Approval",
      "type": "event"
    },
    {
      "anonymous": false,
      "inputs": [
        {
          "indexed": true,
          "internalType": "address",
          "name": "owner",
          "type": "address"
        },
        {
          "indexed": true,
          "internalType": "address",
          "name": "operator",
          "type": "address"
        },
        {
          "indexed": false,
          "internalType": "bool",
          "name": "approved",
          "type": "bool"
        }
      ],
      "name": "ApprovalForAll",
      "type": "event"
    },
    {
      "anonymous": false,
      "inputs": [
        {
          "indexed": true,
          "internalType": "address",
          "name": "previousOwner",
          "type": "address"
        },
        {
          "indexed": true,
          "internalType": "address",
          "name": "newOwner",
          "type": "address"
        }
      ],
      "name": "OwnershipTransferred",
      "type": "event"
    },
    {
      "anonymous": false,
      "inputs": [
        {
          "indexed": true,
          "internalType": "address",
          "name": "from",
          "type": "address"
        },
        {
          "indexed": true,
          "internalType": "address",
          "name": "to",
          "type": "address"
        },
        {
          "indexed": true,
          "internalType": "uint256",
          "name": "tokenId",
          "type": "uint256"
        }
      ],
      "name": "Transfer",
      "type": "event"
    },
    {
      "anonymous": false,
      "inputs": [
        {
          "indexed": false,
          "internalType": "uint256",
          "name": "ticketId",
          "type": "uint256"
        }
      ],
      "name": "ticketBought",
      "type": "event"
    },
    {
      "anonymous": false,
      "inputs": [
        {
          "indexed": false,
          "internalType": "uint256",
          "name": "ticketId",
          "type": "uint256"
        }
      ],
      "name": "ticketCheckedIn",
      "type": "event"
    },
    {
      "anonymous": false,
      "inputs": [
        {
          "indexed": false,
          "internalType": "uint256",
          "name": "ticketId",
          "type": "uint256"
        }
      ],
      "name": "ticketCreated",
      "type": "event"
    },
    {
      "anonymous": false,
      "inputs": [
        {
          "indexed": false,
          "internalType": "uint256",
          "name": "ticketId",
          "type": "uint256"
        }
      ],
      "name": "ticketInvalidated",
      "type": "event"
    },
    {
      "anonymous": false,
      "inputs": [
        {
          "indexed": false,
          "internalType": "uint256",
          "name": "ticketId",
          "type": "uint256"
        }
      ],
      "name": "ticketListed",
      "type": "event"
    },
    {
      "anonymous": false,
      "inputs": [
        {
          "indexed": false,
          "internalType": "uint256",
          "name": "ticketId",
          "type": "uint256"
        }
      ],
      "name": "ticketUnlisted",
      "type": "event"
    },
    {
      "anonymous": false,
      "inputs": [
        {
          "indexed": false,
          "internalType": "uint256",
          "name": "ticketId",
          "type": "uint256"
        }
      ],
      "name": "ticketValidated",
      "type": "event"
    },
    {
      "inputs": [
        {
          "internalType": "address",
          "name": "to",
          "type": "address"
        },
        {
          "internalType": "uint256",
          "name": "tokenId",
          "type": "uint256"
        }
      ],
      "name": "approve",
      "outputs": [],
      "stateMutability": "nonpayable",
      "type": "function"
    },
    {
      "inputs": [
        {
          "internalType": "address",
          "name": "owner",
          "type": "address"
        }
      ],
      "name": "balanceOf",
      "outputs": [
        {
          "internalType": "uint256",
          "name": "",
          "type": "uint256"
        }
      ],
      "stateMutability": "view",
      "type": "function"
    },
    {
      "inputs": [
        {
          "internalType": "uint256",
          "name": "tokenId",
          "type": "uint256"
        }
      ],
      "name": "getApproved",
      "outputs": [
        {
          "internalType": "address",
          "name": "",
          "type": "address"
        }
      ],
      "stateMutability": "view",
      "type": "function"
    },
    {
      "inputs": [
        {
          "internalType": "address",
          "name": "owner",
          "type": "address"
        },
        {
          "internalType": "address",
          "name": "operator",
          "type": "address"
        }
      ],
      "name": "isApprovedForAll",
      "outputs": [
        {
          "internalType": "bool",
          "name": "",
          "type": "bool"
        }
      ],
      "stateMutability": "view",
      "type": "function"
    },
    {
      "inputs": [],
      "name": "name",
      "outputs": [
        {
          "internalType": "string",
          "name": "",
          "type": "string"
        }
      ],
      "stateMutability": "view",
      "type": "function"
    },
    {
      "inputs": [],
      "name": "numTickets",
      "outputs": [
        {
          "internalType": "uint256",
          "name": "",
          "type": "uint256"
        }
      ],
      "stateMutability": "view",
      "type": "function"
    },
    {
      "inputs": [],
      "name": "owner",
      "outputs": [
        {
          "internalType": "address",
          "name": "",
          "type": "address"
        }
      ],
      "stateMutability": "view",
      "type": "function"
    },
    {
      "inputs": [
        {
          "internalType": "uint256",
          "name": "tokenId",
          "type": "uint256"
        }
      ],
      "name": "ownerOf",
      "outputs": [
        {
          "internalType": "address",
          "name": "",
          "type": "address"
        }
      ],
      "stateMutability": "view",
      "type": "function"
    },
    {
      "inputs": [],
      "name": "renounceOwnership",
      "outputs": [],
      "stateMutability": "nonpayable",
      "type": "function"
    },
    {
      "inputs": [
        {
          "internalType": "address",
          "name": "from",
          "type": "address"
        },
        {
          "internalType": "address",
          "name": "to",
          "type": "address"
        },
        {
          "internalType": "uint256",
          "name": "tokenId",
          "type": "uint256"
        }
      ],
      "name": "safeTransferFrom",
      "outputs": [],
      "stateMutability": "nonpayable",
      "type": "function"
    },
    {
      "inputs": [
        {
          "internalType": "address",
          "name": "from",
          "type": "address"
        },
        {
          "internalType": "address",
          "name": "to",
          "type": "address"
        },
        {
          "internalType": "uint256",
          "name": "tokenId",
          "type": "uint256"
        },
        {
          "internalType": "bytes",
          "name": "_data",
          "type": "bytes"
        }
      ],
      "name": "safeTransferFrom",
      "outputs": [],
      "stateMutability": "nonpayable",
      "type": "function"
    },
    {
      "inputs": [
        {
          "internalType": "address",
          "name": "operator",
          "type": "address"
        },
        {
          "internalType": "bool",
          "name": "approved",
          "type": "bool"
        }
      ],
      "name": "setApprovalForAll",
      "outputs": [],
      "stateMutability": "nonpayable",
      "type": "function"
    },
    {
      "inputs": [
        {
          "internalType": "bytes4",
          "name": "interfaceId",
          "type": "bytes4"
        }
      ],
      "name": "supportsInterface",
      "outputs": [
        {
          "internalType": "bool",
          "name": "",
          "type": "bool"
        }
      ],
      "stateMutability": "view",
      "type": "function"
    },
    {
      "inputs": [],
      "name": "symbol",
      "outputs": [
        {
          "internalType": "string",
          "name": "",
          "type": "string"
        }
      ],
      "stateMutability": "view",
      "type": "function"
    },
    {
      "inputs": [
        {
          "internalType": "uint256",
          "name": "tokenId",
          "type": "uint256"
        }
      ],
      "name": "tokenURI",
      "outputs": [
        {
          "internalType": "string",
          "name": "",
          "type": "string"
        }
      ],
      "stateMutability": "view",
      "type": "function"
    },
    {
      "inputs": [
        {
          "internalType": "address",
          "name": "from",
          "type": "address"
        },
        {
          "internalType": "address",
          "name": "to",
          "type": "address"
        },
        {
          "internalType": "uint256",
          "name": "tokenId",
          "type": "uint256"
        }
      ],
      "name": "transferFrom",
      "outputs": [],
      "stateMutability": "nonpayable",
      "type": "function"
    },
    {
      "inputs": [
        {
          "internalType": "address",
          "name": "newOwner",
          "type": "address"
        }
      ],
      "name": "transferOwnership",
      "outputs": [],
      "stateMutability": "nonpayable",
      "type": "function"
    },
    {
      "inputs": [
        {
          "internalType": "uint256",
          "name": "_seatID",
          "type": "uint256"
        },
        {
          "internalType": "string",
          "name": "_type",
          "type": "string"
        },
        {
          "internalType": "uint256",
          "name": "_creationPrice",
          "type": "uint256"
        },
        {
          "internalType": "uint256",
          "name": "_eventId",
          "type": "uint256"
        }
      ],
      "name": "createTicket",
      "outputs": [
        {
          "internalType": "uint256",
          "name": "",
          "type": "uint256"
        }
      ],
      "stateMutability": "nonpayable",
      "type": "function"
    },
    {
      "inputs": [
        {
          "internalType": "string",
          "name": "_type",
          "type": "string"
        },
        {
          "internalType": "uint256",
          "name": "_creationPrice",
          "type": "uint256"
        },
        {
          "internalType": "uint256",
          "name": "_numOfTickets",
          "type": "uint256"
        },
        {
          "internalType": "uint256",
          "name": "_eventId",
          "type": "uint256"
        }
      ],
      "name": "createTicketInBulk",
      "outputs": [],
      "stateMutability": "nonpayable",
      "type": "function"
    },
    {
      "inputs": [
        {
          "internalType": "uint256",
          "name": "id",
          "type": "uint256"
        }
      ],
      "name": "getTicket",
      "outputs": [
        {
          "components": [
            {
              "internalType": "address",
              "name": "_ticketOwner",
              "type": "address"
            },
            {
              "internalType": "uint256",
              "name": "_seatID",
              "type": "uint256"
            },
            {
              "internalType": "string",
              "name": "_type",
              "type": "string"
            },
            {
              "internalType": "uint256",
              "name": "creationPrice",
              "type": "uint256"
            },
            {
              "internalType": "uint256",
              "name": "listingPrice",
              "type": "uint256"
            },
            {
              "internalType": "bool",
              "name": "isListed",
              "type": "bool"
            },
            {
              "internalType": "bool",
              "name": "isCheckedIn",
              "type": "bool"
            },
            {
              "internalType": "bool",
              "name": "isValid",
              "type": "bool"
            },
            {
              "internalType": "uint256",
              "name": "eventId",
              "type": "uint256"
            }
          ],
          "internalType": "struct Ticket.ticket",
          "name": "",
          "type": "tuple"
        }
      ],
      "stateMutability": "view",
      "type": "function"
    },
    {
      "inputs": [],
      "name": "getCurrentTicketCount",
      "outputs": [
        {
          "internalType": "uint256",
          "name": "",
          "type": "uint256"
        }
      ],
      "stateMutability": "view",
      "type": "function"
    }
  ],
  "bytecode": "0x60806040526000600d553480156200001657600080fd5b50604051620022fe380380620022fe83398101604081905262000039916200027f565b8351849084906200005290600090602085019062000122565b5080516200006890600190602084019062000122565b5050506200009762000088620000cc640100000000026401000000009004565b640100000000620000d0810204565b600b8054600160a060020a03938416600160a060020a031991821617909155600c805492909316911617905550620003b19050565b3390565b60068054600160a060020a03838116600160a060020a0319831681179093556040519116919082907f8be0079c531659141344cd1fd0a4f28419497f9722a3daafe3b4186f6b6457e090600090a35050565b828054620001309062000313565b90600052602060002090601f0160209004810192826200015457600085556200019f565b82601f106200016f57805160ff19168380011785556200019f565b828001600101855582156200019f579182015b828111156200019f57825182559160200191906001019062000182565b50620001ad929150620001b1565b5090565b5b80821115620001ad5760008155600101620001b2565b600082601f830112620001da57600080fd5b81516001604060020a0380821115620001f757620001f762000369565b604051601f8301601f19908116603f0116810190828211818310171562000222576200022262000369565b816040528381526020925086838588010111156200023f57600080fd5b600091505b8382101562000263578582018301518183018401529082019062000244565b83821115620002755760008385830101525b9695505050505050565b600080600080608085870312156200029657600080fd5b84516001604060020a0380821115620002ae57600080fd5b620002bc88838901620001c8565b95506020870151915080821115620002d357600080fd5b50620002e287828801620001c8565b9350506040850151620002f58162000398565b6060860151909250620003088162000398565b939692955090935050565b6002810460018216806200032857607f821691505b6020821081141562000363577f4e487b7100000000000000000000000000000000000000000000000000000000600052602260045260246000fd5b50919050565b7f4e487b7100000000000000000000000000000000000000000000000000000000600052604160045260246000fd5b600160a060020a0381168114620003ae57600080fd5b50565b611f3d80620003c16000396000f3fe608060405234801561001057600080fd5b5060043610610154576000357c010000000000000000000000000000000000000000000000000000000090048063715018a6116100d5578063b41de95011610099578063b41de9501461029e578063b88d4fde146102b1578063c62e8c9e146102c4578063c87b56dd146102d7578063e985e9c5146102ea578063f2fde38b1461032657600080fd5b8063715018a61461024a5780637dc379fa146102525780638da5cb5b1461027257806395d89b4114610283578063a22cb4651461028b57600080fd5b806328ce30831161011c57806328ce3083146101e9578063353d90ec1461020857806342842e0e146102115780636352211e1461022457806370a082311461023757600080fd5b806301ffc9a71461015957806306fdde0314610181578063081812fc14610196578063095ea7b3146101c157806323b872dd146101d6575b600080fd5b61016c610167366004611a84565b610339565b60405190151581526020015b60405180910390f35b6101896103d6565b6040516101789190611c35565b6101a96101a4366004611b12565b610468565b604051600160a060020a039091168152602001610178565b6101d46101cf366004611a58565b610516565b005b6101d46101e4366004611964565b61064e565b336000908152600a60205260409020545b604051908152602001610178565b6101fa600d5481565b6101d461021f366004611964565b610682565b6101a9610232366004611b12565b61069d565b6101fa6102453660046118f1565b61072b565b6101d46107c8565b610265610260366004611b12565b610831565b6040516101789190611d02565b600654600160a060020a03166101a9565b610189610a1b565b6101d4610299366004611a25565b610a2a565b6101fa6102ac366004611b2b565b610a39565b6101d46102bf3660046119a5565b610c74565b6101d46102d2366004611abe565b610caf565b6101896102e5366004611b12565b610ce3565b61016c6102f836600461192b565b600160a060020a03918216600090815260056020908152604080832093909416825291909152205460ff1690565b6101d46103343660046118f1565b610ddc565b6000600160e060020a031982167f80ac58cd00000000000000000000000000000000000000000000000000000000148061039c5750600160e060020a031982167f5b5e139f00000000000000000000000000000000000000000000000000000000145b806103d057507f01ffc9a700000000000000000000000000000000000000000000000000000000600160e060020a03198316145b92915050565b6060600080546103e590611e11565b80601f016020809104026020016040519081016040528092919081815260200182805461041190611e11565b801561045e5780601f106104335761010080835404028352916020019161045e565b820191906000526020600020905b81548152906001019060200180831161044157829003601f168201915b5050505050905090565b600081815260026020526040812054600160a060020a03166104fa5760405160e560020a62461bcd02815260206004820152602c60248201527f4552433732313a20617070726f76656420717565727920666f72206e6f6e657860448201527f697374656e7420746f6b656e000000000000000000000000000000000000000060648201526084015b60405180910390fd5b50600090815260046020526040902054600160a060020a031690565b60006105218261069d565b905080600160a060020a031683600160a060020a031614156105ae5760405160e560020a62461bcd02815260206004820152602160248201527f4552433732313a20617070726f76616c20746f2063757272656e74206f776e6560448201527f720000000000000000000000000000000000000000000000000000000000000060648201526084016104f1565b33600160a060020a03821614806105ca57506105ca81336102f8565b61063f5760405160e560020a62461bcd02815260206004820152603860248201527f4552433732313a20617070726f76652063616c6c6572206973206e6f74206f7760448201527f6e6572206e6f7220617070726f76656420666f7220616c6c000000000000000060648201526084016104f1565b6106498383610ec4565b505050565b6106583382610f3f565b6106775760405160e560020a62461bcd0281526004016104f190611ca5565b610649838383611046565b61064983838360405180602001604052806000815250610c74565b600081815260026020526040812054600160a060020a0316806103d05760405160e560020a62461bcd02815260206004820152602960248201527f4552433732313a206f776e657220717565727920666f72206e6f6e657869737460448201527f656e7420746f6b656e000000000000000000000000000000000000000000000060648201526084016104f1565b6000600160a060020a0382166107ac5760405160e560020a62461bcd02815260206004820152602a60248201527f4552433732313a2062616c616e636520717565727920666f7220746865207a6560448201527f726f20616464726573730000000000000000000000000000000000000000000060648201526084016104f1565b50600160a060020a031660009081526003602052604090205490565b600654600160a060020a031633146108255760405160e560020a62461bcd02815260206004820181905260248201527f4f776e61626c653a2063616c6c6572206973206e6f7420746865206f776e657260448201526064016104f1565b61082f6000611226565b565b61088f6040518061012001604052806000600160a060020a0316815260200160008152602001606081526020016000815260200160008152602001600015158152602001600015158152602001600015158152602001600081525090565b6000828152600260205260409020548290600160a060020a03166108f85760405160e560020a62461bcd02815260206004820152601e60248201527f506c6561736520656e74657220612076616c6964207469636b6574206964000060448201526064016104f1565b6000838152600760209081526040918290208251610120810184528154600160a060020a03168152600182015492810192909252600281018054929391929184019161094390611e11565b80601f016020809104026020016040519081016040528092919081815260200182805461096f90611e11565b80156109bc5780601f10610991576101008083540402835291602001916109bc565b820191906000526020600020905b81548152906001019060200180831161099f57829003601f168201915b50505091835250506003820154602082015260048201546040820152600582015460ff8082161515606084015261010082048116151560808401526201000090910416151560a082015260069091015460c09091015291505b50919050565b6060600180546103e590611e11565b610a35338383611285565b5050565b60408051610120810182526000808252602082018790529181018590526060810184905260808101849052600160a0820181905260c0820183905260e08201526101008101839052600d8054839182610a9183611e49565b919050559050610b42600b60009054906101000a9004600160a060020a0316600160a060020a031663694eaa406040518163ffffffff167c010000000000000000000000000000000000000000000000000000000002815260040160206040518083038186803b158015610b0457600080fd5b505afa158015610b18573d6000803e3d6000fd5b505050506040513d601f19601f82011682018060405250810190610b3c919061190e565b82611357565b6000818152600760209081526040918290208451815473ffffffffffffffffffffffffffffffffffffffff1916600160a060020a03909116178155848201516001820155918401518051859392610ba09260028501929101906117c2565b50606082015160038201556080820151600482015560a082015160058201805460c085015160e086015161ffff1990921693151561ff0019169390931761010093151584021762ff00001916620100009115159190910217905590910151600690910155604051600990610c15908890611bae565b908152604051602091819003820181208054600181018255600091825290839020018390558281527fdb0768e60aff03a7bcaff4bb349275ba861e576848c43c99418047adce10e8e5910160405180910390a19150505b949350505050565b610c7e3383610f3f565b610c9d5760405160e560020a62461bcd0281526004016104f190611ca5565b610ca984848484611371565b50505050565b60005b82811015610cdc5780610cc781878786610a39565b50508080610cd490611e49565b915050610cb2565b5050505050565b600081815260026020526040902054606090600160a060020a0316610d735760405160e560020a62461bcd02815260206004820152602f60248201527f4552433732314d657461646174613a2055524920717565727920666f72206e6f60448201527f6e6578697374656e7420746f6b656e000000000000000000000000000000000060648201526084016104f1565b6000610d8a60408051602081019091526000815290565b90506000815111610daa5760405180602001604052806000815250610dd5565b80610db4846113a7565b604051602001610dc5929190611bca565b6040516020818303038152906040525b9392505050565b600654600160a060020a03163314610e395760405160e560020a62461bcd02815260206004820181905260248201527f4f776e61626c653a2063616c6c6572206973206e6f7420746865206f776e657260448201526064016104f1565b600160a060020a038116610eb85760405160e560020a62461bcd02815260206004820152602660248201527f4f776e61626c653a206e6577206f776e657220697320746865207a65726f206160448201527f646472657373000000000000000000000000000000000000000000000000000060648201526084016104f1565b610ec181611226565b50565b6000818152600460205260409020805473ffffffffffffffffffffffffffffffffffffffff1916600160a060020a0384169081179091558190610f068261069d565b600160a060020a03167f8c5be1e5ebec7d5bd14f71427d1e84f3dd0314c0f7b2291e5b200ac8c7c3b92560405160405180910390a45050565b600081815260026020526040812054600160a060020a0316610fcc5760405160e560020a62461bcd02815260206004820152602c60248201527f4552433732313a206f70657261746f7220717565727920666f72206e6f6e657860448201527f697374656e7420746f6b656e000000000000000000000000000000000000000060648201526084016104f1565b6000610fd78361069d565b905080600160a060020a031684600160a060020a03161480611012575083600160a060020a031661100784610468565b600160a060020a0316145b80610c6c5750600160a060020a0380821660009081526005602090815260408083209388168352929052205460ff16610c6c565b82600160a060020a03166110598261069d565b600160a060020a0316146110d85760405160e560020a62461bcd02815260206004820152602560248201527f4552433732313a207472616e736665722066726f6d20696e636f72726563742060448201527f6f776e657200000000000000000000000000000000000000000000000000000060648201526084016104f1565b600160a060020a0382166111565760405160e560020a62461bcd028152602060048201526024808201527f4552433732313a207472616e7366657220746f20746865207a65726f2061646460448201527f726573730000000000000000000000000000000000000000000000000000000060648201526084016104f1565b611161600082610ec4565b600160a060020a038316600090815260036020526040812080546001929061118a908490611dce565b9091555050600160a060020a03821660009081526003602052604081208054600192906111b8908490611da2565b9091555050600081815260026020526040808220805473ffffffffffffffffffffffffffffffffffffffff1916600160a060020a0386811691821790925591518493918716917fddf252ad1be2c89b69c2b068fc378daa952ba7f163c4a11628f55a4df523b3ef91a4505050565b60068054600160a060020a0383811673ffffffffffffffffffffffffffffffffffffffff19831681179093556040519116919082907f8be0079c531659141344cd1fd0a4f28419497f9722a3daafe3b4186f6b6457e090600090a35050565b81600160a060020a031683600160a060020a031614156112ea5760405160e560020a62461bcd02815260206004820152601960248201527f4552433732313a20617070726f766520746f2063616c6c65720000000000000060448201526064016104f1565b600160a060020a03838116600081815260056020908152604080832094871680845294825291829020805460ff191686151590811790915591519182527f17307eab39ab6107e8899845ad3d59bd9653f200f220920489ca2b5937696c31910160405180910390a3505050565b610a358282604051806020016040528060008152506114f8565b61137c848484611046565b6113888484848461152e565b610ca95760405160e560020a62461bcd0281526004016104f190611c48565b6060816113e757505060408051808201909152600181527f3000000000000000000000000000000000000000000000000000000000000000602082015290565b8160005b811561141157806113fb81611e49565b915061140a9050600a83611dba565b91506113eb565b60008167ffffffffffffffff81111561142c5761142c611ec3565b6040519080825280601f01601f191660200182016040528015611456576020820181803683370190505b5090505b8415610c6c5761146b600183611dce565b9150611478600a86611e64565b611483906030611da2565b7f0100000000000000000000000000000000000000000000000000000000000000028183815181106114b7576114b7611eaa565b60200101907effffffffffffffffffffffffffffffffffffffffffffffffffffffffffffff1916908160001a9053506114f1600a86611dba565b945061145a565b611502838361166d565b61150f600084848461152e565b6106495760405160e560020a62461bcd0281526004016104f190611c48565b6000600160a060020a0384163b15611665576040517f150b7a02000000000000000000000000000000000000000000000000000000008152600160a060020a0385169063150b7a029061158b903390899088908890600401611bf9565b602060405180830381600087803b1580156115a557600080fd5b505af19250505080156115d5575060408051601f3d908101601f191682019092526115d291810190611aa1565b60015b611632573d808015611603576040519150601f19603f3d011682016040523d82523d6000602084013e611608565b606091505b50805161162a5760405160e560020a62461bcd0281526004016104f190611c48565b805181602001fd5b600160e060020a0319167f150b7a0200000000000000000000000000000000000000000000000000000000149050610c6c565b506001610c6c565b600160a060020a0382166116c65760405160e560020a62461bcd02815260206004820181905260248201527f4552433732313a206d696e7420746f20746865207a65726f206164647265737360448201526064016104f1565b600081815260026020526040902054600160a060020a03161561172e5760405160e560020a62461bcd02815260206004820152601c60248201527f4552433732313a20746f6b656e20616c7265616479206d696e7465640000000060448201526064016104f1565b600160a060020a0382166000908152600360205260408120805460019290611757908490611da2565b9091555050600081815260026020526040808220805473ffffffffffffffffffffffffffffffffffffffff1916600160a060020a03861690811790915590518392907fddf252ad1be2c89b69c2b068fc378daa952ba7f163c4a11628f55a4df523b3ef908290a45050565b8280546117ce90611e11565b90600052602060002090601f0160209004810192826117f05760008555611836565b82601f1061180957805160ff1916838001178555611836565b82800160010185558215611836579182015b8281111561183657825182559160200191906001019061181b565b50611842929150611846565b5090565b5b808211156118425760008155600101611847565b600067ffffffffffffffff8084111561187657611876611ec3565b604051601f8501601f19908116603f0116810190828211818310171561189e5761189e611ec3565b816040528093508581528686860111156118b757600080fd5b858560208301376000602087830101525050509392505050565b600082601f8301126118e257600080fd5b610dd58383356020850161185b565b60006020828403121561190357600080fd5b8135610dd581611edc565b60006020828403121561192057600080fd5b8151610dd581611edc565b6000806040838503121561193e57600080fd5b823561194981611edc565b9150602083013561195981611edc565b809150509250929050565b60008060006060848603121561197957600080fd5b833561198481611edc565b9250602084013561199481611edc565b929592945050506040919091013590565b600080600080608085870312156119bb57600080fd5b84356119c681611edc565b935060208501356119d681611edc565b925060408501359150606085013567ffffffffffffffff8111156119f957600080fd5b8501601f81018713611a0a57600080fd5b611a198782356020840161185b565b91505092959194509250565b60008060408385031215611a3857600080fd5b8235611a4381611edc565b91506020830135801515811461195957600080fd5b60008060408385031215611a6b57600080fd5b8235611a7681611edc565b946020939093013593505050565b600060208284031215611a9657600080fd5b8135610dd581611ef1565b600060208284031215611ab357600080fd5b8151610dd581611ef1565b60008060008060808587031215611ad457600080fd5b843567ffffffffffffffff811115611aeb57600080fd5b611af7878288016118d1565b97602087013597506040870135966060013595509350505050565b600060208284031215611b2457600080fd5b5035919050565b60008060008060808587031215611b4157600080fd5b84359350602085013567ffffffffffffffff811115611b5f57600080fd5b611b6b878288016118d1565b949794965050505060408301359260600135919050565b60008151808452611b9a816020860160208601611de5565b601f01601f19169290920160200192915050565b60008251611bc0818460208701611de5565b9190910192915050565b60008351611bdc818460208801611de5565b835190830190611bf0818360208801611de5565b01949350505050565b6000600160a060020a03808716835280861660208401525083604083015260806060830152611c2b6080830184611b82565b9695505050505050565b602081526000610dd56020830184611b82565b60208082526032908201527f4552433732313a207472616e7366657220746f206e6f6e20455243373231526560408201527f63656976657220696d706c656d656e7465720000000000000000000000000000606082015260800190565b60208082526031908201527f4552433732313a207472616e736665722063616c6c6572206973206e6f74206f60408201527f776e6572206e6f7220617070726f766564000000000000000000000000000000606082015260800190565b60208152611d1c602082018351600160a060020a03169052565b6020820151604082015260006040830151610120806060850152611d44610140850183611b82565b915060608501516080850152608085015160a085015260a0850151611d6d60c086018215159052565b5060c085015180151560e08601525060e0850151610100611d918187018315159052565b959095015193019290925250919050565b60008219821115611db557611db5611e78565b500190565b600082611dc957611dc9611e91565b500490565b600082821015611de057611de0611e78565b500390565b60005b83811015611e00578181015183820152602001611de8565b83811115610ca95750506000910152565b600281046001821680611e2557607f821691505b60208210811415610a155760e060020a634e487b7102600052602260045260246000fd5b6000600019821415611e5d57611e5d611e78565b5060010190565b600082611e7357611e73611e91565b500690565b60e060020a634e487b7102600052601160045260246000fd5b60e060020a634e487b7102600052601260045260246000fd5b60e060020a634e487b7102600052603260045260246000fd5b60e060020a634e487b7102600052604160045260246000fd5b600160a060020a0381168114610ec157600080fd5b600160e060020a031981168114610ec157600080fdfea2646970667358221220cad8ba17dc04c5d9958b3f2c842e859baf03d211027760c45c79a94604e1833464736f6c63430008070033",
  "immutableReferences": {},
  "source": "// SPDX-License-Identifier: MIT\npragma solidity ^0.8.0;\nimport \"@openzeppelin/contracts/token/ERC721/ERC721.sol\";\nimport \"@openzeppelin/contracts/access/Ownable.sol\";\nimport \"./MarketPlace.sol\";\nimport \"./Event.sol\";\n\ncontract Ticket is ERC721, Ownable {\n\n    struct ticket {\n        // address _marketPlaceAddress;\n        address _ticketOwner;\n        uint256 _seatID;\n        string _type;\n        uint256 creationPrice;\n        uint256 listingPrice;\n        bool isListed;\n        bool isCheckedIn;\n        bool isValid;\n        //newly added\n        uint256 eventId;\n    }\n\n    mapping(uint256 => ticket) IDToTicket;\n    mapping(uint256 => uint256[]) eventIdToTicketIds;\n    mapping(string => uint256[]) typeToTicketIds;\n    mapping(address => uint256) ticketCountPerOwner;\n\n    MarketPlace marketplaceContract;\n    Event eventContract;\n    uint256 public numTickets = 0;\n\n    event ticketCreated(uint256 ticketId);\n    event ticketBought(uint256 ticketId);\n    event ticketListed(uint256 ticketId);\n    event ticketUnlisted(uint256 ticketId);\n    event ticketCheckedIn(uint256 ticketId);\n    event ticketInvalidated(uint256 ticketId);\n    event ticketValidated(uint256 ticketId);\n\n\n    modifier requireValidTicket(uint256 tokenId) {\n        require(_exists(tokenId), \"Please enter a valid ticket id\");\n        _;\n    }\n\n\n    modifier onlyEventOrganizer(uint256 eventId) {\n        require(\n            msg.sender == eventContract.getEventOrganizer(eventId),\n            \"Only the event organizer can perform this action\"\n        );\n        _;\n    }\n\n    constructor(string memory name, string memory symbol, MarketPlace marketplaceAddress, Event eventAddress) ERC721(name, symbol){\n        name = name;\n        symbol = symbol;\n        marketplaceContract = marketplaceAddress;\n        eventContract = eventAddress;\n    }\n\n    function createTicket(\n        uint256 _seatID,\n        string memory _type,\n        uint256 _creationPrice,\n        uint256 _eventId\n    )\n        public\n        returns (uint256)\n    {\n        ticket memory newTicket = ticket(\n            address(0),\n            _seatID,\n            _type,\n            _creationPrice,\n            _creationPrice, // initial listing price is the creation price\n            true,\n            false,\n            true,\n            _eventId\n        );\n        uint256 newTicketId = numTickets++;\n        _safeMint(marketplaceContract.getMarketPlaceAddress(), newTicketId);\n        IDToTicket[newTicketId] = newTicket;\n        typeToTicketIds[_type].push(newTicketId);\n        emit ticketCreated(newTicketId);\n        return newTicketId;\n    }\n \n     function createTicketInBulk(\n        string memory _type,\n        uint256 _creationPrice,\n        uint256 _numOfTickets,\n        uint256 _eventId\n    ) public {\n        for (uint256 i = 0; i < _numOfTickets; i++) {\n            uint256 currentSeatID = i;\n            createTicket(currentSeatID, _type, _creationPrice, _eventId);\n        }\n    }\n\n\n    function getTicket(uint256 id)\n        public\n        view\n        requireValidTicket(id)\n        returns (ticket memory)\n    {\n        return IDToTicket[id];\n    }\n\n     function getCurrentTicketCount() public view returns (uint256) {\n        return ticketCountPerOwner[msg.sender];\n    }\n  \n}\n",
  "sourcePath": "/Users/raymondhandoko/Documents/NUS/IS4302/IS4203_Group13/contracts/Ticket.sol",
  "compiler": {
    "name": "solc",
    "version": "0.8.7+commit.e28d00a7.Emscripten.clang"
  },
  "schemaVersion": "3.4.4",
  "updatedAt": "2022-04-06T08:18:40.640Z",
  "devdoc": {
    "kind": "dev",
    "methods": {
      "approve(address,uint256)": {
        "details": "See {IERC721-approve}."
      },
      "balanceOf(address)": {
        "details": "See {IERC721-balanceOf}."
      },
      "getApproved(uint256)": {
        "details": "See {IERC721-getApproved}."
      },
      "isApprovedForAll(address,address)": {
        "details": "See {IERC721-isApprovedForAll}."
      },
      "name()": {
        "details": "See {IERC721Metadata-name}."
      },
      "owner()": {
        "details": "Returns the address of the current owner."
      },
      "ownerOf(uint256)": {
        "details": "See {IERC721-ownerOf}."
      },
      "renounceOwnership()": {
        "details": "Leaves the contract without owner. It will not be possible to call `onlyOwner` functions anymore. Can only be called by the current owner. NOTE: Renouncing ownership will leave the contract without an owner, thereby removing any functionality that is only available to the owner."
      },
      "safeTransferFrom(address,address,uint256)": {
        "details": "See {IERC721-safeTransferFrom}."
      },
      "safeTransferFrom(address,address,uint256,bytes)": {
        "details": "See {IERC721-safeTransferFrom}."
      },
      "setApprovalForAll(address,bool)": {
        "details": "See {IERC721-setApprovalForAll}."
      },
      "supportsInterface(bytes4)": {
        "details": "See {IERC165-supportsInterface}."
      },
      "symbol()": {
        "details": "See {IERC721Metadata-symbol}."
      },
      "tokenURI(uint256)": {
        "details": "See {IERC721Metadata-tokenURI}."
      },
      "transferFrom(address,address,uint256)": {
        "details": "See {IERC721-transferFrom}."
      },
      "transferOwnership(address)": {
        "details": "Transfers ownership of the contract to a new account (`newOwner`). Can only be called by the current owner."
      }
    },
    "version": 1
  },
  "userdoc": {
    "kind": "user",
    "methods": {},
    "version": 1
  }
}