{
  "contractName": "Ticket",
  "abi": [
    {
      "inputs": [
        {
          "internalType": "string",
          "name": "name",
          "type": "string"
        },
        {
          "internalType": "string",
          "name": "symbol",
          "type": "string"
        },
        {
          "internalType": "contract MarketPlace",
          "name": "marketplaceAddress",
          "type": "address"
        },
        {
          "internalType": "contract Event",
          "name": "eventAddress",
          "type": "address"
        }
      ],
      "stateMutability": "nonpayable",
      "type": "constructor"
    },
    {
      "anonymous": false,
      "inputs": [
        {
          "indexed": true,
          "internalType": "address",
          "name": "owner",
          "type": "address"
        },
        {
          "indexed": true,
          "internalType": "address",
          "name": "approved",
          "type": "address"
        },
        {
          "indexed": true,
          "internalType": "uint256",
          "name": "tokenId",
          "type": "uint256"
        }
      ],
      "name": "Approval",
      "type": "event"
    },
    {
      "anonymous": false,
      "inputs": [
        {
          "indexed": true,
          "internalType": "address",
          "name": "owner",
          "type": "address"
        },
        {
          "indexed": true,
          "internalType": "address",
          "name": "operator",
          "type": "address"
        },
        {
          "indexed": false,
          "internalType": "bool",
          "name": "approved",
          "type": "bool"
        }
      ],
      "name": "ApprovalForAll",
      "type": "event"
    },
    {
      "anonymous": false,
      "inputs": [
        {
          "indexed": true,
          "internalType": "address",
          "name": "previousOwner",
          "type": "address"
        },
        {
          "indexed": true,
          "internalType": "address",
          "name": "newOwner",
          "type": "address"
        }
      ],
      "name": "OwnershipTransferred",
      "type": "event"
    },
    {
      "anonymous": false,
      "inputs": [
        {
          "indexed": true,
          "internalType": "address",
          "name": "from",
          "type": "address"
        },
        {
          "indexed": true,
          "internalType": "address",
          "name": "to",
          "type": "address"
        },
        {
          "indexed": true,
          "internalType": "uint256",
          "name": "tokenId",
          "type": "uint256"
        }
      ],
      "name": "Transfer",
      "type": "event"
    },
    {
      "anonymous": false,
      "inputs": [
        {
          "indexed": false,
          "internalType": "uint256",
          "name": "ticketId",
          "type": "uint256"
        }
      ],
      "name": "ticketBought",
      "type": "event"
    },
    {
      "anonymous": false,
      "inputs": [
        {
          "indexed": false,
          "internalType": "uint256",
          "name": "ticketId",
          "type": "uint256"
        }
      ],
      "name": "ticketCheckedIn",
      "type": "event"
    },
    {
      "anonymous": false,
      "inputs": [
        {
          "indexed": false,
          "internalType": "uint256",
          "name": "ticketId",
          "type": "uint256"
        }
      ],
      "name": "ticketCreated",
      "type": "event"
    },
    {
      "anonymous": false,
      "inputs": [
        {
          "indexed": false,
          "internalType": "uint256",
          "name": "ticketId",
          "type": "uint256"
        }
      ],
      "name": "ticketInvalidated",
      "type": "event"
    },
    {
      "anonymous": false,
      "inputs": [
        {
          "indexed": false,
          "internalType": "uint256",
          "name": "ticketId",
          "type": "uint256"
        }
      ],
      "name": "ticketListed",
      "type": "event"
    },
    {
      "anonymous": false,
      "inputs": [
        {
          "indexed": false,
          "internalType": "uint256",
          "name": "ticketId",
          "type": "uint256"
        }
      ],
      "name": "ticketUnlisted",
      "type": "event"
    },
    {
      "anonymous": false,
      "inputs": [
        {
          "indexed": false,
          "internalType": "uint256",
          "name": "ticketId",
          "type": "uint256"
        }
      ],
      "name": "ticketValidated",
      "type": "event"
    },
    {
      "inputs": [
        {
          "internalType": "address",
          "name": "to",
          "type": "address"
        },
        {
          "internalType": "uint256",
          "name": "tokenId",
          "type": "uint256"
        }
      ],
      "name": "approve",
      "outputs": [],
      "stateMutability": "nonpayable",
      "type": "function"
    },
    {
      "inputs": [
        {
          "internalType": "address",
          "name": "owner",
          "type": "address"
        }
      ],
      "name": "balanceOf",
      "outputs": [
        {
          "internalType": "uint256",
          "name": "",
          "type": "uint256"
        }
      ],
      "stateMutability": "view",
      "type": "function"
    },
    {
      "inputs": [
        {
          "internalType": "uint256",
          "name": "tokenId",
          "type": "uint256"
        }
      ],
      "name": "getApproved",
      "outputs": [
        {
          "internalType": "address",
          "name": "",
          "type": "address"
        }
      ],
      "stateMutability": "view",
      "type": "function"
    },
    {
      "inputs": [
        {
          "internalType": "address",
          "name": "owner",
          "type": "address"
        },
        {
          "internalType": "address",
          "name": "operator",
          "type": "address"
        }
      ],
      "name": "isApprovedForAll",
      "outputs": [
        {
          "internalType": "bool",
          "name": "",
          "type": "bool"
        }
      ],
      "stateMutability": "view",
      "type": "function"
    },
    {
      "inputs": [],
      "name": "name",
      "outputs": [
        {
          "internalType": "string",
          "name": "",
          "type": "string"
        }
      ],
      "stateMutability": "view",
      "type": "function"
    },
    {
      "inputs": [],
      "name": "numTickets",
      "outputs": [
        {
          "internalType": "uint256",
          "name": "",
          "type": "uint256"
        }
      ],
      "stateMutability": "view",
      "type": "function"
    },
    {
      "inputs": [],
      "name": "owner",
      "outputs": [
        {
          "internalType": "address",
          "name": "",
          "type": "address"
        }
      ],
      "stateMutability": "view",
      "type": "function"
    },
    {
      "inputs": [
        {
          "internalType": "uint256",
          "name": "tokenId",
          "type": "uint256"
        }
      ],
      "name": "ownerOf",
      "outputs": [
        {
          "internalType": "address",
          "name": "",
          "type": "address"
        }
      ],
      "stateMutability": "view",
      "type": "function"
    },
    {
      "inputs": [],
      "name": "renounceOwnership",
      "outputs": [],
      "stateMutability": "nonpayable",
      "type": "function"
    },
    {
      "inputs": [
        {
          "internalType": "address",
          "name": "from",
          "type": "address"
        },
        {
          "internalType": "address",
          "name": "to",
          "type": "address"
        },
        {
          "internalType": "uint256",
          "name": "tokenId",
          "type": "uint256"
        }
      ],
      "name": "safeTransferFrom",
      "outputs": [],
      "stateMutability": "nonpayable",
      "type": "function"
    },
    {
      "inputs": [
        {
          "internalType": "address",
          "name": "from",
          "type": "address"
        },
        {
          "internalType": "address",
          "name": "to",
          "type": "address"
        },
        {
          "internalType": "uint256",
          "name": "tokenId",
          "type": "uint256"
        },
        {
          "internalType": "bytes",
          "name": "_data",
          "type": "bytes"
        }
      ],
      "name": "safeTransferFrom",
      "outputs": [],
      "stateMutability": "nonpayable",
      "type": "function"
    },
    {
      "inputs": [
        {
          "internalType": "address",
          "name": "operator",
          "type": "address"
        },
        {
          "internalType": "bool",
          "name": "approved",
          "type": "bool"
        }
      ],
      "name": "setApprovalForAll",
      "outputs": [],
      "stateMutability": "nonpayable",
      "type": "function"
    },
    {
      "inputs": [
        {
          "internalType": "bytes4",
          "name": "interfaceId",
          "type": "bytes4"
        }
      ],
      "name": "supportsInterface",
      "outputs": [
        {
          "internalType": "bool",
          "name": "",
          "type": "bool"
        }
      ],
      "stateMutability": "view",
      "type": "function"
    },
    {
      "inputs": [],
      "name": "symbol",
      "outputs": [
        {
          "internalType": "string",
          "name": "",
          "type": "string"
        }
      ],
      "stateMutability": "view",
      "type": "function"
    },
    {
      "inputs": [
        {
          "internalType": "uint256",
          "name": "tokenId",
          "type": "uint256"
        }
      ],
      "name": "tokenURI",
      "outputs": [
        {
          "internalType": "string",
          "name": "",
          "type": "string"
        }
      ],
      "stateMutability": "view",
      "type": "function"
    },
    {
      "inputs": [
        {
          "internalType": "address",
          "name": "from",
          "type": "address"
        },
        {
          "internalType": "address",
          "name": "to",
          "type": "address"
        },
        {
          "internalType": "uint256",
          "name": "tokenId",
          "type": "uint256"
        }
      ],
      "name": "transferFrom",
      "outputs": [],
      "stateMutability": "nonpayable",
      "type": "function"
    },
    {
      "inputs": [
        {
          "internalType": "address",
          "name": "newOwner",
          "type": "address"
        }
      ],
      "name": "transferOwnership",
      "outputs": [],
      "stateMutability": "nonpayable",
      "type": "function"
    },
    {
      "inputs": [
        {
          "internalType": "uint256",
          "name": "_seatID",
          "type": "uint256"
        },
        {
          "internalType": "string",
          "name": "_type",
          "type": "string"
        },
        {
          "internalType": "uint256",
          "name": "_creationPrice",
          "type": "uint256"
        },
        {
          "internalType": "uint256",
          "name": "_eventId",
          "type": "uint256"
        }
      ],
      "name": "createTicket",
      "outputs": [
        {
          "internalType": "uint256",
          "name": "",
          "type": "uint256"
        }
      ],
      "stateMutability": "nonpayable",
      "type": "function"
    },
    {
      "inputs": [
        {
          "internalType": "string",
          "name": "_type",
          "type": "string"
        },
        {
          "internalType": "uint256",
          "name": "_creationPrice",
          "type": "uint256"
        },
        {
          "internalType": "uint256",
          "name": "_numOfTickets",
          "type": "uint256"
        },
        {
          "internalType": "uint256",
          "name": "_eventId",
          "type": "uint256"
        }
      ],
      "name": "createTicketInBulk",
      "outputs": [],
      "stateMutability": "nonpayable",
      "type": "function"
    },
    {
      "inputs": [
        {
          "internalType": "uint256",
          "name": "id",
          "type": "uint256"
        }
      ],
      "name": "getTicket",
      "outputs": [
        {
          "components": [
            {
              "internalType": "address",
              "name": "_ticketOwner",
              "type": "address"
            },
            {
              "internalType": "uint256",
              "name": "_seatID",
              "type": "uint256"
            },
            {
              "internalType": "string",
              "name": "_type",
              "type": "string"
            },
            {
              "internalType": "uint256",
              "name": "creationPrice",
              "type": "uint256"
            },
            {
              "internalType": "uint256",
              "name": "listingPrice",
              "type": "uint256"
            },
            {
              "internalType": "bool",
              "name": "isListed",
              "type": "bool"
            },
            {
              "internalType": "bool",
              "name": "isCheckedIn",
              "type": "bool"
            },
            {
              "internalType": "bool",
              "name": "isValid",
              "type": "bool"
            },
            {
              "internalType": "uint256",
              "name": "eventId",
              "type": "uint256"
            }
          ],
          "internalType": "struct Ticket.ticket",
          "name": "",
          "type": "tuple"
        }
      ],
      "stateMutability": "view",
      "type": "function"
    },
    {
      "inputs": [],
      "name": "getCurrentTicketCount",
      "outputs": [
        {
          "internalType": "uint256",
          "name": "",
          "type": "uint256"
        }
      ],
      "stateMutability": "view",
      "type": "function"
    },
    {
      "inputs": [
        {
          "internalType": "uint256",
          "name": "eventId",
          "type": "uint256"
        }
      ],
      "name": "getTicketsForEventId",
      "outputs": [
        {
          "internalType": "uint256[]",
          "name": "",
          "type": "uint256[]"
        }
      ],
      "stateMutability": "view",
      "type": "function"
    }
  ],
  "bytecode": "0x60806040526000600d553480156200001657600080fd5b50604051620023f4380380620023f483398101604081905262000039916200027f565b8351849084906200005290600090602085019062000122565b5080516200006890600190602084019062000122565b5050506200009762000088620000cc640100000000026401000000009004565b640100000000620000d0810204565b600b8054600160a060020a03938416600160a060020a031991821617909155600c805492909316911617905550620003b19050565b3390565b60068054600160a060020a03838116600160a060020a0319831681179093556040519116919082907f8be0079c531659141344cd1fd0a4f28419497f9722a3daafe3b4186f6b6457e090600090a35050565b828054620001309062000313565b90600052602060002090601f0160209004810192826200015457600085556200019f565b82601f106200016f57805160ff19168380011785556200019f565b828001600101855582156200019f579182015b828111156200019f57825182559160200191906001019062000182565b50620001ad929150620001b1565b5090565b5b80821115620001ad5760008155600101620001b2565b600082601f830112620001da57600080fd5b81516001604060020a0380821115620001f757620001f762000369565b604051601f8301601f19908116603f0116810190828211818310171562000222576200022262000369565b816040528381526020925086838588010111156200023f57600080fd5b600091505b8382101562000263578582018301518183018401529082019062000244565b83821115620002755760008385830101525b9695505050505050565b600080600080608085870312156200029657600080fd5b84516001604060020a0380821115620002ae57600080fd5b620002bc88838901620001c8565b95506020870151915080821115620002d357600080fd5b50620002e287828801620001c8565b9350506040850151620002f58162000398565b6060860151909250620003088162000398565b939692955090935050565b6002810460018216806200032857607f821691505b6020821081141562000363577f4e487b7100000000000000000000000000000000000000000000000000000000600052602260045260246000fd5b50919050565b7f4e487b7100000000000000000000000000000000000000000000000000000000600052604160045260246000fd5b600160a060020a0381168114620003ae57600080fd5b50565b61203380620003c16000396000f3fe608060405234801561001057600080fd5b506004361061015f576000357c0100000000000000000000000000000000000000000000000000000000900480637dc379fa116100d5578063b88d4fde11610099578063b88d4fde146102bc578063c62e8c9e146102cf578063c87b56dd146102e2578063e985e9c5146102f5578063f2f2764414610331578063f2fde38b1461035157600080fd5b80637dc379fa1461025d5780638da5cb5b1461027d57806395d89b411461028e578063a22cb46514610296578063b41de950146102a957600080fd5b806328ce30831161012757806328ce3083146101f4578063353d90ec1461021357806342842e0e1461021c5780636352211e1461022f57806370a0823114610242578063715018a61461025557600080fd5b806301ffc9a71461016457806306fdde031461018c578063081812fc146101a1578063095ea7b3146101cc57806323b872dd146101e1575b600080fd5b610177610172366004611b36565b610364565b60405190151581526020015b60405180910390f35b610194610401565b6040516101839190611d2b565b6101b46101af366004611bc4565b610493565b604051600160a060020a039091168152602001610183565b6101df6101da366004611b0a565b610541565b005b6101df6101ef366004611a16565b610679565b336000908152600a60205260409020545b604051908152602001610183565b610205600d5481565b6101df61022a366004611a16565b6106ad565b6101b461023d366004611bc4565b6106c8565b6102056102503660046119a3565b610756565b6101df6107f3565b61027061026b366004611bc4565b61085c565b6040516101839190611df8565b600654600160a060020a03166101b4565b610194610a46565b6101df6102a4366004611ad7565b610a55565b6102056102b7366004611bdd565b610a64565b6101df6102ca366004611a57565b610cc4565b6101df6102dd366004611b70565b610cff565b6101946102f0366004611bc4565b610d33565b6101776103033660046119dd565b600160a060020a03918216600090815260056020908152604080832093909416825291909152205460ff1690565b61034461033f366004611bc4565b610e2c565b6040516101839190611ce7565b6101df61035f3660046119a3565b610e8e565b6000600160e060020a031982167f80ac58cd0000000000000000000000000000000000000000000000000000000014806103c75750600160e060020a031982167f5b5e139f00000000000000000000000000000000000000000000000000000000145b806103fb57507f01ffc9a700000000000000000000000000000000000000000000000000000000600160e060020a03198316145b92915050565b60606000805461041090611f07565b80601f016020809104026020016040519081016040528092919081815260200182805461043c90611f07565b80156104895780601f1061045e57610100808354040283529160200191610489565b820191906000526020600020905b81548152906001019060200180831161046c57829003601f168201915b5050505050905090565b600081815260026020526040812054600160a060020a03166105255760405160e560020a62461bcd02815260206004820152602c60248201527f4552433732313a20617070726f76656420717565727920666f72206e6f6e657860448201527f697374656e7420746f6b656e000000000000000000000000000000000000000060648201526084015b60405180910390fd5b50600090815260046020526040902054600160a060020a031690565b600061054c826106c8565b905080600160a060020a031683600160a060020a031614156105d95760405160e560020a62461bcd02815260206004820152602160248201527f4552433732313a20617070726f76616c20746f2063757272656e74206f776e6560448201527f7200000000000000000000000000000000000000000000000000000000000000606482015260840161051c565b33600160a060020a03821614806105f557506105f58133610303565b61066a5760405160e560020a62461bcd02815260206004820152603860248201527f4552433732313a20617070726f76652063616c6c6572206973206e6f74206f7760448201527f6e6572206e6f7220617070726f76656420666f7220616c6c0000000000000000606482015260840161051c565b6106748383610f76565b505050565b6106833382610ff1565b6106a25760405160e560020a62461bcd02815260040161051c90611d9b565b6106748383836110f8565b61067483838360405180602001604052806000815250610cc4565b600081815260026020526040812054600160a060020a0316806103fb5760405160e560020a62461bcd02815260206004820152602960248201527f4552433732313a206f776e657220717565727920666f72206e6f6e657869737460448201527f656e7420746f6b656e0000000000000000000000000000000000000000000000606482015260840161051c565b6000600160a060020a0382166107d75760405160e560020a62461bcd02815260206004820152602a60248201527f4552433732313a2062616c616e636520717565727920666f7220746865207a6560448201527f726f206164647265737300000000000000000000000000000000000000000000606482015260840161051c565b50600160a060020a031660009081526003602052604090205490565b600654600160a060020a031633146108505760405160e560020a62461bcd02815260206004820181905260248201527f4f776e61626c653a2063616c6c6572206973206e6f7420746865206f776e6572604482015260640161051c565b61085a60006112d8565b565b6108ba6040518061012001604052806000600160a060020a0316815260200160008152602001606081526020016000815260200160008152602001600015158152602001600015158152602001600015158152602001600081525090565b6000828152600260205260409020548290600160a060020a03166109235760405160e560020a62461bcd02815260206004820152601e60248201527f506c6561736520656e74657220612076616c6964207469636b65742069640000604482015260640161051c565b6000838152600760209081526040918290208251610120810184528154600160a060020a03168152600182015492810192909252600281018054929391929184019161096e90611f07565b80601f016020809104026020016040519081016040528092919081815260200182805461099a90611f07565b80156109e75780601f106109bc576101008083540402835291602001916109e7565b820191906000526020600020905b8154815290600101906020018083116109ca57829003601f168201915b50505091835250506003820154602082015260048201546040820152600582015460ff8082161515606084015261010082048116151560808401526201000090910416151560a082015260069091015460c09091015291505b50919050565b60606001805461041090611f07565b610a60338383611337565b5050565b60408051610120810182526000808252602082018790529181018590526060810184905260808101849052600160a0820181905260c0820183905260e08201526101008101839052600d8054839182610abc83611f3f565b919050559050610b6d600b60009054906101000a9004600160a060020a0316600160a060020a031663694eaa406040518163ffffffff167c010000000000000000000000000000000000000000000000000000000002815260040160206040518083038186803b158015610b2f57600080fd5b505afa158015610b43573d6000803e3d6000fd5b505050506040513d601f19601f82011682018060405250810190610b6791906119c0565b82611409565b6000818152600760209081526040918290208451815473ffffffffffffffffffffffffffffffffffffffff1916600160a060020a03909116178155848201516001820155918401518051859392610bcb926002850192910190611874565b50606082015160038201556080820151600482015560a082015160058201805460c085015160e086015161ffff1990921693151561ff0019169390931761010093151584021762ff00001916620100009115159190910217905590910151600690910155604051600990610c40908890611c60565b90815260408051918290036020908101832080546001818101835560009283528383209091018690558882526008835292812080549384018155815220018290557fdb0768e60aff03a7bcaff4bb349275ba861e576848c43c99418047adce10e8e590610cb09083815260200190565b60405180910390a19150505b949350505050565b610cce3383610ff1565b610ced5760405160e560020a62461bcd02815260040161051c90611d9b565b610cf984848484611423565b50505050565b60005b82811015610d2c5780610d1781878786610a64565b50508080610d2490611f3f565b915050610d02565b5050505050565b600081815260026020526040902054606090600160a060020a0316610dc35760405160e560020a62461bcd02815260206004820152602f60248201527f4552433732314d657461646174613a2055524920717565727920666f72206e6f60448201527f6e6578697374656e7420746f6b656e0000000000000000000000000000000000606482015260840161051c565b6000610dda60408051602081019091526000815290565b90506000815111610dfa5760405180602001604052806000815250610e25565b80610e0484611459565b604051602001610e15929190611c7c565b6040516020818303038152906040525b9392505050565b600081815260086020908152604091829020805483518184028101840190945280845260609392830182828015610e8257602002820191906000526020600020905b815481526020019060010190808311610e6e575b50505050509050919050565b600654600160a060020a03163314610eeb5760405160e560020a62461bcd02815260206004820181905260248201527f4f776e61626c653a2063616c6c6572206973206e6f7420746865206f776e6572604482015260640161051c565b600160a060020a038116610f6a5760405160e560020a62461bcd02815260206004820152602660248201527f4f776e61626c653a206e6577206f776e657220697320746865207a65726f206160448201527f6464726573730000000000000000000000000000000000000000000000000000606482015260840161051c565b610f73816112d8565b50565b6000818152600460205260409020805473ffffffffffffffffffffffffffffffffffffffff1916600160a060020a0384169081179091558190610fb8826106c8565b600160a060020a03167f8c5be1e5ebec7d5bd14f71427d1e84f3dd0314c0f7b2291e5b200ac8c7c3b92560405160405180910390a45050565b600081815260026020526040812054600160a060020a031661107e5760405160e560020a62461bcd02815260206004820152602c60248201527f4552433732313a206f70657261746f7220717565727920666f72206e6f6e657860448201527f697374656e7420746f6b656e0000000000000000000000000000000000000000606482015260840161051c565b6000611089836106c8565b905080600160a060020a031684600160a060020a031614806110c4575083600160a060020a03166110b984610493565b600160a060020a0316145b80610cbc5750600160a060020a0380821660009081526005602090815260408083209388168352929052205460ff16610cbc565b82600160a060020a031661110b826106c8565b600160a060020a03161461118a5760405160e560020a62461bcd02815260206004820152602560248201527f4552433732313a207472616e736665722066726f6d20696e636f72726563742060448201527f6f776e6572000000000000000000000000000000000000000000000000000000606482015260840161051c565b600160a060020a0382166112085760405160e560020a62461bcd028152602060048201526024808201527f4552433732313a207472616e7366657220746f20746865207a65726f2061646460448201527f7265737300000000000000000000000000000000000000000000000000000000606482015260840161051c565b611213600082610f76565b600160a060020a038316600090815260036020526040812080546001929061123c908490611ec4565b9091555050600160a060020a038216600090815260036020526040812080546001929061126a908490611e98565b9091555050600081815260026020526040808220805473ffffffffffffffffffffffffffffffffffffffff1916600160a060020a0386811691821790925591518493918716917fddf252ad1be2c89b69c2b068fc378daa952ba7f163c4a11628f55a4df523b3ef91a4505050565b60068054600160a060020a0383811673ffffffffffffffffffffffffffffffffffffffff19831681179093556040519116919082907f8be0079c531659141344cd1fd0a4f28419497f9722a3daafe3b4186f6b6457e090600090a35050565b81600160a060020a031683600160a060020a0316141561139c5760405160e560020a62461bcd02815260206004820152601960248201527f4552433732313a20617070726f766520746f2063616c6c657200000000000000604482015260640161051c565b600160a060020a03838116600081815260056020908152604080832094871680845294825291829020805460ff191686151590811790915591519182527f17307eab39ab6107e8899845ad3d59bd9653f200f220920489ca2b5937696c31910160405180910390a3505050565b610a608282604051806020016040528060008152506115aa565b61142e8484846110f8565b61143a848484846115e0565b610cf95760405160e560020a62461bcd02815260040161051c90611d3e565b60608161149957505060408051808201909152600181527f3000000000000000000000000000000000000000000000000000000000000000602082015290565b8160005b81156114c357806114ad81611f3f565b91506114bc9050600a83611eb0565b915061149d565b60008167ffffffffffffffff8111156114de576114de611fb9565b6040519080825280601f01601f191660200182016040528015611508576020820181803683370190505b5090505b8415610cbc5761151d600183611ec4565b915061152a600a86611f5a565b611535906030611e98565b7f01000000000000000000000000000000000000000000000000000000000000000281838151811061156957611569611fa0565b60200101907effffffffffffffffffffffffffffffffffffffffffffffffffffffffffffff1916908160001a9053506115a3600a86611eb0565b945061150c565b6115b4838361171f565b6115c160008484846115e0565b6106745760405160e560020a62461bcd02815260040161051c90611d3e565b6000600160a060020a0384163b15611717576040517f150b7a02000000000000000000000000000000000000000000000000000000008152600160a060020a0385169063150b7a029061163d903390899088908890600401611cab565b602060405180830381600087803b15801561165757600080fd5b505af1925050508015611687575060408051601f3d908101601f1916820190925261168491810190611b53565b60015b6116e4573d8080156116b5576040519150601f19603f3d011682016040523d82523d6000602084013e6116ba565b606091505b5080516116dc5760405160e560020a62461bcd02815260040161051c90611d3e565b805181602001fd5b600160e060020a0319167f150b7a0200000000000000000000000000000000000000000000000000000000149050610cbc565b506001610cbc565b600160a060020a0382166117785760405160e560020a62461bcd02815260206004820181905260248201527f4552433732313a206d696e7420746f20746865207a65726f2061646472657373604482015260640161051c565b600081815260026020526040902054600160a060020a0316156117e05760405160e560020a62461bcd02815260206004820152601c60248201527f4552433732313a20746f6b656e20616c7265616479206d696e74656400000000604482015260640161051c565b600160a060020a0382166000908152600360205260408120805460019290611809908490611e98565b9091555050600081815260026020526040808220805473ffffffffffffffffffffffffffffffffffffffff1916600160a060020a03861690811790915590518392907fddf252ad1be2c89b69c2b068fc378daa952ba7f163c4a11628f55a4df523b3ef908290a45050565b82805461188090611f07565b90600052602060002090601f0160209004810192826118a257600085556118e8565b82601f106118bb57805160ff19168380011785556118e8565b828001600101855582156118e8579182015b828111156118e85782518255916020019190600101906118cd565b506118f49291506118f8565b5090565b5b808211156118f457600081556001016118f9565b600067ffffffffffffffff8084111561192857611928611fb9565b604051601f8501601f19908116603f0116810190828211818310171561195057611950611fb9565b8160405280935085815286868601111561196957600080fd5b858560208301376000602087830101525050509392505050565b600082601f83011261199457600080fd5b610e258383356020850161190d565b6000602082840312156119b557600080fd5b8135610e2581611fd2565b6000602082840312156119d257600080fd5b8151610e2581611fd2565b600080604083850312156119f057600080fd5b82356119fb81611fd2565b91506020830135611a0b81611fd2565b809150509250929050565b600080600060608486031215611a2b57600080fd5b8335611a3681611fd2565b92506020840135611a4681611fd2565b929592945050506040919091013590565b60008060008060808587031215611a6d57600080fd5b8435611a7881611fd2565b93506020850135611a8881611fd2565b925060408501359150606085013567ffffffffffffffff811115611aab57600080fd5b8501601f81018713611abc57600080fd5b611acb8782356020840161190d565b91505092959194509250565b60008060408385031215611aea57600080fd5b8235611af581611fd2565b915060208301358015158114611a0b57600080fd5b60008060408385031215611b1d57600080fd5b8235611b2881611fd2565b946020939093013593505050565b600060208284031215611b4857600080fd5b8135610e2581611fe7565b600060208284031215611b6557600080fd5b8151610e2581611fe7565b60008060008060808587031215611b8657600080fd5b843567ffffffffffffffff811115611b9d57600080fd5b611ba987828801611983565b97602087013597506040870135966060013595509350505050565b600060208284031215611bd657600080fd5b5035919050565b60008060008060808587031215611bf357600080fd5b84359350602085013567ffffffffffffffff811115611c1157600080fd5b611c1d87828801611983565b949794965050505060408301359260600135919050565b60008151808452611c4c816020860160208601611edb565b601f01601f19169290920160200192915050565b60008251611c72818460208701611edb565b9190910192915050565b60008351611c8e818460208801611edb565b835190830190611ca2818360208801611edb565b01949350505050565b6000600160a060020a03808716835280861660208401525083604083015260806060830152611cdd6080830184611c34565b9695505050505050565b6020808252825182820181905260009190848201906040850190845b81811015611d1f57835183529284019291840191600101611d03565b50909695505050505050565b602081526000610e256020830184611c34565b60208082526032908201527f4552433732313a207472616e7366657220746f206e6f6e20455243373231526560408201527f63656976657220696d706c656d656e7465720000000000000000000000000000606082015260800190565b60208082526031908201527f4552433732313a207472616e736665722063616c6c6572206973206e6f74206f60408201527f776e6572206e6f7220617070726f766564000000000000000000000000000000606082015260800190565b60208152611e12602082018351600160a060020a03169052565b6020820151604082015260006040830151610120806060850152611e3a610140850183611c34565b915060608501516080850152608085015160a085015260a0850151611e6360c086018215159052565b5060c085015180151560e08601525060e0850151610100611e878187018315159052565b959095015193019290925250919050565b60008219821115611eab57611eab611f6e565b500190565b600082611ebf57611ebf611f87565b500490565b600082821015611ed657611ed6611f6e565b500390565b60005b83811015611ef6578181015183820152602001611ede565b83811115610cf95750506000910152565b600281046001821680611f1b57607f821691505b60208210811415610a405760e060020a634e487b7102600052602260045260246000fd5b6000600019821415611f5357611f53611f6e565b5060010190565b600082611f6957611f69611f87565b500690565b60e060020a634e487b7102600052601160045260246000fd5b60e060020a634e487b7102600052601260045260246000fd5b60e060020a634e487b7102600052603260045260246000fd5b60e060020a634e487b7102600052604160045260246000fd5b600160a060020a0381168114610f7357600080fd5b600160e060020a031981168114610f7357600080fdfea2646970667358221220be2ce01ae7bcbf9ad3b10239bc9a736faa41a0183e71f0789c59191f0f239ac164736f6c63430008070033",
  "immutableReferences": {},
  "source": "// SPDX-License-Identifier: MIT\npragma solidity ^0.8.0;\nimport \"@openzeppelin/contracts/token/ERC721/ERC721.sol\";\nimport \"@openzeppelin/contracts/access/Ownable.sol\";\nimport \"./MarketPlace.sol\";\nimport \"./Event.sol\";\n\ncontract Ticket is ERC721, Ownable {\n\n    struct ticket {\n        // address _marketPlaceAddress;\n        address _ticketOwner;\n        uint256 _seatID;\n        string _type;\n        uint256 creationPrice;\n        uint256 listingPrice;\n        bool isListed;\n        bool isCheckedIn;\n        bool isValid;\n        //newly added\n        uint256 eventId;\n    }\n\n    mapping(uint256 => ticket) IDToTicket;\n    mapping(uint256 => uint256[]) eventIdToTicketIds;\n    mapping(string => uint256[]) typeToTicketIds;\n    mapping(address => uint256) ticketCountPerOwner;\n\n    MarketPlace marketplaceContract;\n    Event eventContract;\n    uint256 public numTickets = 0;\n\n    event ticketCreated(uint256 ticketId);\n    event ticketBought(uint256 ticketId);\n    event ticketListed(uint256 ticketId);\n    event ticketUnlisted(uint256 ticketId);\n    event ticketCheckedIn(uint256 ticketId);\n    event ticketInvalidated(uint256 ticketId);\n    event ticketValidated(uint256 ticketId);\n\n\n    modifier requireValidTicket(uint256 tokenId) {\n        require(_exists(tokenId), \"Please enter a valid ticket id\");\n        _;\n    }\n\n\n    modifier onlyEventOrganizer(uint256 eventId) {\n        require(\n            msg.sender == eventContract.getEventOrganizer(eventId),\n            \"Only the event organizer can perform this action\"\n        );\n        _;\n    }\n\n    constructor(string memory name, string memory symbol, MarketPlace marketplaceAddress, Event eventAddress) ERC721(name, symbol){\n        name = name;\n        symbol = symbol;\n        marketplaceContract = marketplaceAddress;\n        eventContract = eventAddress;\n    }\n\n    function createTicket(\n        uint256 _seatID,\n        string memory _type,\n        uint256 _creationPrice,\n        uint256 _eventId\n    )\n        public\n        returns (uint256)\n    {\n        ticket memory newTicket = ticket(\n            address(0),\n            _seatID,\n            _type,\n            _creationPrice,\n            _creationPrice, // initial listing price is the creation price\n            true,\n            false,\n            true,\n            _eventId\n        );\n        uint256 newTicketId = numTickets++;\n        _safeMint(marketplaceContract.getMarketPlaceAddress(), newTicketId);\n        IDToTicket[newTicketId] = newTicket;\n        typeToTicketIds[_type].push(newTicketId);\n        eventIdToTicketIds[_eventId].push(newTicketId);\n        emit ticketCreated(newTicketId);\n        return newTicketId;\n    }\n \n     function createTicketInBulk(\n        string memory _type,\n        uint256 _creationPrice,\n        uint256 _numOfTickets,\n        uint256 _eventId\n    ) public {\n        for (uint256 i = 0; i < _numOfTickets; i++) {\n            uint256 currentSeatID = i;\n            createTicket(currentSeatID, _type, _creationPrice, _eventId);\n        }\n    }\n\n\n    function getTicket(uint256 id)\n        public\n        view\n        requireValidTicket(id)\n        returns (ticket memory)\n    {\n        return IDToTicket[id];\n    }\n\n     function getCurrentTicketCount() public view returns (uint256) {\n        return ticketCountPerOwner[msg.sender];\n    }\n\n    function getTicketsForEventId(uint256 eventId) public view returns (uint256[] memory) {\n        return eventIdToTicketIds[eventId];\n    }\n  \n}\n",
  "sourcePath": "/Users/raymondhandoko/Documents/NUS/IS4302/IS4203_Group13/contracts/Ticket.sol",
  "compiler": {
    "name": "solc",
    "version": "0.8.7+commit.e28d00a7.Emscripten.clang"
  },
  "schemaVersion": "3.4.4",
  "updatedAt": "2022-04-06T09:12:03.115Z",
  "devdoc": {
    "kind": "dev",
    "methods": {
      "approve(address,uint256)": {
        "details": "See {IERC721-approve}."
      },
      "balanceOf(address)": {
        "details": "See {IERC721-balanceOf}."
      },
      "getApproved(uint256)": {
        "details": "See {IERC721-getApproved}."
      },
      "isApprovedForAll(address,address)": {
        "details": "See {IERC721-isApprovedForAll}."
      },
      "name()": {
        "details": "See {IERC721Metadata-name}."
      },
      "owner()": {
        "details": "Returns the address of the current owner."
      },
      "ownerOf(uint256)": {
        "details": "See {IERC721-ownerOf}."
      },
      "renounceOwnership()": {
        "details": "Leaves the contract without owner. It will not be possible to call `onlyOwner` functions anymore. Can only be called by the current owner. NOTE: Renouncing ownership will leave the contract without an owner, thereby removing any functionality that is only available to the owner."
      },
      "safeTransferFrom(address,address,uint256)": {
        "details": "See {IERC721-safeTransferFrom}."
      },
      "safeTransferFrom(address,address,uint256,bytes)": {
        "details": "See {IERC721-safeTransferFrom}."
      },
      "setApprovalForAll(address,bool)": {
        "details": "See {IERC721-setApprovalForAll}."
      },
      "supportsInterface(bytes4)": {
        "details": "See {IERC165-supportsInterface}."
      },
      "symbol()": {
        "details": "See {IERC721Metadata-symbol}."
      },
      "tokenURI(uint256)": {
        "details": "See {IERC721Metadata-tokenURI}."
      },
      "transferFrom(address,address,uint256)": {
        "details": "See {IERC721-transferFrom}."
      },
      "transferOwnership(address)": {
        "details": "Transfers ownership of the contract to a new account (`newOwner`). Can only be called by the current owner."
      }
    },
    "version": 1
  },
  "userdoc": {
    "kind": "user",
    "methods": {},
    "version": 1
  }
}